:020000022000DC
:1060000000000120BD620200E5620200218F020053
:10601000E9620200EB620200ED6202000000000093
:10602000000000000000000000000000EF6202001D
:10603000F162020000000000F3620200F56202005B
:10604000F1BD0200F762020089CD0200F762020092
:10605000F7620200F762020091CC020061BF020009
:10606000F7620200F7620200F7620200F7620200C4
:10607000F762020069020300F7620200F7620200A1
:10608000F7620200198D0200F7620200F762020057
:10609000F7620200F762020011080300F7620200D3
:1060A000F7620200F7620200F7620200F762020084
:1060B000F7620200F762020000000000000000002A
:1060C000F7620200F7620200F7620200F762020064
:1060D000F7620200F7620200F762020000000000AF
:1060E00000000000000000000000000000000000B0
:1060F00000000000000000000000000000000000A0
:10610000000000000000000000000000000000008F
:10611000000000000000000000000000000000007F
:10612000000000000000000000000000000000006F
:10613000000000000000000000000000000000005F
:10614000000000000000000000000000000000004F
:10615000000000000000000000000000000000003F
:10616000000000000000000000000000000000002F
:10617000000000000000000000000000000000001F
:10618000000000000000000000000000000000000F
:1061900000000000000000000000000000000000FF
:1061A00000000000000000000000000000000000EF
:1061B00000000000000000000000000000000000DF
:1061C00000000000000000000000000000000000CF
:1061D00000000000000000000000000000000000BF
:1061E00000000000000000000000000000000000AF
:1061F000000000000000000000000000000000009F
:1062000010B5054C237833B9044B13B10448AFF3F0
:1062100000800123237010BD982E00200000000094
:10622000209F030008B5034B1BB103490348AFF39C
:10623000008008BD000000009C2E0020209F03006D
:10624000A3F5803A704700BF174B002B08BF134BD4
:106250009D46FFF7F5FF00218B460F461348144A71
:10626000121A0FF0A5FC0E4B002B00D098470D4BD7
:10627000002B00D098470020002104000D000D489D
:10628000002802D00C48AFF300800FF051FC200032
:1062900029000FF0DDFB0FF025FC00BF0000080017
:1062A000000000000000000000000120982E0020E7
:1062B000804F002000000000000000000649074A4F
:1062C000074B9B1A03DD043BC858D050FBDC05F09C
:1062D00019F8FFF7B9FF000094A00300202D00205B
:1062E000982E0020FEE7FEE7FEE7FEE7FEE7FEE76A
:1062F000FEE7FEE7FEE7FEE780B5A0B002AFF8607C
:10630000B9607A603B60B86803F09EFD7B68FB640F
:106310003B683B6500237B65002387F858300023EA
:10632000FB65D7F880303B6600237B6707F13401BB
:106330007B6F0C22B86803F067FE0C237B67FB6B56
:106340003B643B8FA7F844307B8FA7F8463000238F
:1063500087F8493097F8343003F00303DBB2012BA0
:1063600029D17B6BC3F39523BB6697F83430C3F315
:10637000C203DBB287F84830BB8EC3F38313DBB2B2
:106380007B667B6E9A0007F11C017B6FB86803F097
:106390003BFE7B6E9B007A6F13447B6707F14002E4
:1063A00007F11C0107F14C03009313467A6EB86E97
:1063B00001F088F832E097F8343003F00303DBB2E1
:1063C000022B2BD1FB8EC3F389139BB23B6797F84B
:1063D0003430C3F3C203DBB287F848303B6F082B7D
:1063E00028BF0823FB6607F114017B6FFA6EB868BB
:1063F00003F00AFE7A6FFB6E13447B673A6FFB6E05
:10640000D31A3B6707F14C0307F1400207F1140070
:10641000F96E01F0F9F83B6F002BDFD1B86803F09B
:1064200023FD00BF7837BD4680BD000080B582B037
:1064300000AF78607B681B781A460D4B9B5C002B85
:1064400005D07B680433184608F050F80BE07B68F1
:106450001B781A46064B9B5C002B04D17B680C33DF
:10646000184607F059F900BF0837BD4680BD00BF88
:10647000A44E002080B586B000AFF860B960134626
:10648000FB7100237B61FB681B781A46104B9B5CF9
:10649000002B08D0FB680433FA79B968184608F075
:1064A00089F878610EE0FB681B781A46084B9B5C04
:1064B000002B07D1FB680C33FA79B968184607F04E
:1064C000A3F978617B6918461837BD4680BD00BFC7
:1064D000A44E002080B483B000AF78603960044BD4
:1064E00001221A7000BF0C37BD465DF8047B70476F
:1064F000F42E0020B0B58CB000AF0346FB711B4BEF
:1065000007F108041D460FCD0FC495E80F0084E87D
:106510000F000923BB604FF0FF33FB604FF0FF33E8
:106520003B614FF0FF337B614FF0EB733B62FB79D4
:10653000002B01D00E4A00E0002207F108031946A3
:106540000C4805F043FAF862FB6ABB62BB6A002B99
:1065500004D0094A4321B86A01F078FB074AFB7965
:10656000137000BF3037BD46B0BD00BF547003008C
:10657000D5640200202D0020EC6F0300F52E0020D2
:1065800080B582B000AF0123FB71FB791846FFF79D
:10659000B1FF00BF0837BD4680BD000080B588B0A0
:1065A00000AFF860B9607A607B68FB77124B00221D
:1065B0001A70FB7F1A46B9681048FFF75BFFB86195
:1065C000BB697B617B69002B04D00D4A532178693C
:1065D00001F03CFB00BF0B4B1B78002B07D0064B98
:1065E0001B78DBB283F00103DBB2002BF3D100BFD9
:1065F0002037BD4680BD00BFF42E0020202D002096
:10660000EC6F0300F52E002080B584B002AF7860F7
:106610003960064B00934023054A39687868FFF7D4
:106620006BFE00BF0837BD4680BD00BF9D65020000
:10663000B42E002080B483B000AF786000BF0C3768
:10664000BD465DF8047B704780B582B000AF7860CE
:106650000448FFF7EBFE0020FFF74CFF00BF0837B0
:10666000BD4680BD202D002080B483B000AF78608F
:106670007B68DB6801225A7100BF0C37BD465DF8AC
:10668000047B704780B582B000AF4FF0FF337B6072
:10669000FFF776FF0421094800F0C2FD78607B68AF
:1066A000002B03DA064948200EF0FEF90348FFF7F5
:1066B000DBFF00BF0837BD4680BD00BF7CA00300E4
:1066C0009470030080B582B000AF786039607B6859
:1066D0001B681B6839687868984700BF0837BD4653
:1066E00080BD80B582B000AF78607B681B685B6856
:1066F0007868984700BF0837BD4680BD80B582B036
:1067000000AF78607B681B689B687868984700BF1B
:106710000837BD4680BD80B483B000AF78600B46BB
:10672000FB707B68DB68FA781A7100BF0C37BD46D6
:106730005DF8047B704780B483B000AF78607B68FD
:10674000DB681B7918460C37BD465DF8047B704743
:1067500080B483B000AF78607B68DB6801225A7137
:1067600000BF0C37BD465DF8047B704780B483B032
:1067700000AF78607B68DB685B7918460C37BD46F4
:106780005DF8047B7047000080B584B000AF78608E
:1067900039607B68002B01D107231BE00F4B0022DF
:1067A0001A70386800F0A8FF0C4A7B68C2F80C34F5
:1067B0000B4803F0AFFAF860FB68002B01D0FB68D0
:1067C00008E0084803F042FC074A084BD31ADB08EC
:1067D000BB60002318461037BD4680BD60300020E6
:1067E000AC9F0300007103007CA00300D49F030052
:1067F00080B400AF044A054BD31ADB081846BD46E7
:106800005DF8047B704700BF7CA00300D49F0300A9
:1068100080B586B000AF78600B46FB70FB78002B2C
:106820001FD0FFF7E5FF386100237B6113E07B6930
:106830009B000E4A1344FB60FB681B881A467B686A
:106840001B689A4204D17B687A691A60002309E0C8
:106850007B6901337B617A693B699A42E7D30523FF
:1068600000E0002318461837BD4680BD942E002056
:1068700080B584B000AF78600B46FB70FA783B1DA2
:1068800011461846FFF7C4FF0346002B07D17B686B
:10689000DB00054A1344FB60FB681B6800E0002333
:1068A00018461037BD4680BDD49F030080B485B024
:1068B00000AF78600B46FB707B68DB00144A134422
:1068C000BB60FB78013B032B18D801A252F823F0E0
:1068D000E1680200E7680200ED680200F568020066
:1068E0000223FB730DE00423FB730AE0BB681B79F2
:1068F000FB7306E0BB685B79FB7302E00023FB736C
:1069000000BFFB7B18461437BD465DF8047B70471B
:10691000D49F030080B485B000AF78603960002355
:10692000FB737B681B7803F00403DBB2002B23D0DE
:106930007B681B78C3F30103DBB2012B02D0022B6F
:106940000CD017E03B681B687A681288C2F3831288
:10695000D2B21344DA1C3B681A600BE03B681B6838
:106960007A685288C2F3891292B21344DA1C3B68E7
:106970001A6000BF0123FB73FB7B18461437BD462A
:106980005DF8047B7047000080B58AB000AF00233B
:10699000FB843A4802F0D1FC394802F0CEFC394B76
:1069A0009B683B61384B1B68BB613A69BB6913400C
:1069B00002339B00334A134404333B6207F1100354
:1069C0001946386AFFF7A6FF0346002B09D03A693B
:1069D000BB69134002339B002A4A134404333B62D1
:1069E000ECE700BF0023FB6111E03B695A1C3A61F0
:1069F000BA691340FA699200391D0A4421490233E9
:106A00009B000B445B681360FB690133FB61FB690E
:106A1000022BEAD93B79C3F30103DBB2012B0DD082
:106A2000022B16D17B89FB84FB88C3F389139BB2AD
:106A300003339A083B6913443B6110E07B89FB8474
:106A4000BB88C3F38313DBB21A463B6913443B6133
:106A500005E00E494FF4C2700EF026F800BF08485A
:106A600002F078FC78617B69002B02D03B69054A13
:106A70009360FB8C18462837BD4680BD78340020D3
:106A800074340020603000203C2D00201071030081
:106A900080B584B000AF0021074802F0ACFBF8607D
:106AA000FB68BB60BB6883F310037B607B681846A0
:106AB0001037BD4680BD00BF7C34002090B589B042
:106AC00000AFF860B9607A603B60FB681B0CFB614B
:106AD000FFF7DEFFB861FFF78BFE0246FB699342CA
:106AE00004D3294940F2A9100DF0DEFFBB69190457
:106AF0003B685A1C3B6B1340FA690A432349023333
:106B00009B000B445A60214BD3F80C343A68911C1B
:106B10003A6B01EA0204984702461C49A31C9B00F9
:106B20000B445A603A683B6B134002339B00174A90
:106B3000134404337B61FB6803F00703D9B27A691D
:106B4000137861F3C50313707B6803F00F03D9B2A8
:106B50007A69138861F389131380BB68C3F3150145
:106B60007A69136861F39F2313607A6913780121AE
:106B700061F3010313707A6913786FF38203137062
:106B800000BF2437BD4690BD107103006030002067
:106B900080B58CB000AFF860B9601346FB71FB683C
:106BA0000333BB62012387F827300023FB7607F10C
:106BB0001B03184601F06CFC384B5A68BB681A601E
:106BC000374B1A68354B9968344B5B68CB1A1344C2
:106BD0000133FB6214E00121324802F06FFBFFF742
:106BE000D3FEF861F9692F4802F068FB2C4B1A6854
:106BF0002A4B9968294B5B68CB1A13440133FB621B
:106C0000BA6AFB6A9A42E6D897F82730002B3BD045
:106C100000237B61FB79002B11D03B7D012262F3C5
:106C200001033B753B7D43F004033B75FB6803F0B8
:106C30000F03DAB2BB8A62F38913BB8210E03B7D9B
:106C4000022262F301033B753B7D43F004033B7575
:106C5000FB68C3F309039AB2FB8A62F38F13FB82CA
:106C60000E4B5A680E4B1B68134002339B000B4AB5
:106C7000134404333B627A693B6A1A60074B5A68D3
:106C8000BB6A1344054A5360FB7E184601F016FCAC
:106C900097F8273018463037BD4680BD6030002059
:106CA0003C2D00207C34002080B58AB002AFF86013
:106CB000B9607A603B60204B1B687B6107F1100371
:106CC000012219463868FFF763FF0346002B24D0E2
:106CD0003B690333FB610023BB6111E0BB699B008F
:106CE0007A681A44FB69591CF96179690B4012688A
:106CF000124902339B000B445A60BB690133BB61EC
:106D0000BA693B689A42E9D33A697B6900931346B2
:106D10003A68B968F868FFF7D1FE084B1B78002B7A
:106D200005D000BF00F088F80346002BFAD100BF61
:106D30002037BD4680BD00BF3C2D002060300020C4
:106D400080B582B000AF78603960002300223968D6
:106D50007868FFF7A9FF00BF0837BD4680BD80B542
:106D600086B000AFF860B9607A607B687B6107F13C
:106D700014020123B968F868FFF796FF00BF1837BF
:106D8000BD4680BD80B586B000AFF860B9607A605E
:106D90003B607B683B613B687B6107F1100202232B
:106DA000B968F868FFF780FF00BF1837BD4680BD9F
:106DB00080B588B000AFF860B9607A603B607B68EE
:106DC0007B613B68BB61BB6AFB6107F11402032373
:106DD000B968F868FFF768FF00BF2037BD4680BD7F
:106DE00080B588B000AFF860B9607A603B607B68BE
:106DF0003B613B687B61BB6ABB61FB6AFB6107F17E
:106E000010020423B968F868FFF74EFF00BF20376F
:106E1000BD4680BD80B400AF064B9A68054B5B68E9
:106E20009A420CBF01230023DBB21846BD465DF831
:106E3000047B70476030002080B598B000AFFFF74A
:106E4000E9FF0346002B01D00023ABE1924B002267
:106E5000C3F81824BFF34F8F00BF8F4B9B683B6173
:106E60008E4B1B683B643A693B6C134002339B00BA
:106E7000894A134404337B640023FB650023BB650C
:106E80000023FB6307F110031946786CFFF742FDFE
:106E90000346002B19D0804BD3F81834002B14D1A3
:106EA0007D4B5A683B699A4205D87B4B5B687A4AAE
:106EB0009360002376E13A693B6C134002339B00F8
:106EC000754A134404337B64DCE700237B6511E0DF
:106ED0003B695A1C3A613A6C13407A6D9200391D35
:106EE0000A446D4902339B000B445B6813607B6D61
:106EF00001337B657B6D022BEAD93B7903F00303F9
:106F0000DBB2022B40F09280FB88C3F389139BB263
:106F10007B63FB88C3F389139BB2502B28BF50239C
:106F20009BB23B633B6BC3F309039AB2FB8862F3EA
:106F30008F13FB803B6B0C33FB623B79C3F3C203C3
:106F4000DBB2FB63F96A564802F0F0FEF865FB6DB0
:106F5000002B00F0C680F86D02F076FF391DBB6D86
:106F60000C22F86D03F030F8BB6D0C33BB653B6948
:106F7000DA433B6C134001339B00BB623A6BBB6A44
:106F80009A423DD9BB6A002B08D03A693B6C13404A
:106F900002339B00404A1344043300E0414B3B6200
:106FA000BB6A002B02D0BB6ADBB201E03B6BDBB2F9
:106FB000FB77BB6A002B01D03A4B00E00023BB619A
:106FC000BB6A002B06D03B6BDAB2BB6ADBB2D31ACA
:106FD000DBB200E00023FB75FA7FBB6D396AF86D08
:106FE00002F0F2FFFB7FBA6D1344BB65BB69002B57
:106FF00015D0FA7DBB6DB969F86D02F0E5FF0EE0C2
:107000003A693B6C134002339B00234A1344043318
:107010007B62BB6D3A6B796AF86D02F0D5FF7B6BD2
:1070200003339A083B6913443B615AE03B7903F010
:107030000303DBB2012B54D1BB88C3F38313DBB250
:10704000062B28BF0623DAB2BB8862F38913BB8004
:10705000BB88C3F38313DBB20333BB633B79C3F356
:10706000C203DBB2FB63BB6B9B0019460C4802F00A
:107070005DFEF865FB6D002B33D0F86D02F0E4FE89
:10708000391DBB6D0C22F86D02F09EFFBB6D0C33F9
:10709000BB6500237B651CE0603000203C2D002098
:1070A000AC9F03006C3000203B695A1C3A613A6C7B
:1070B000134002339B003D4A1344191DBB6D04224B
:1070C000F86D02F081FFBB6D0433BB657B6D01334E
:1070D0007B65BB88C3F38313DBB21A467B6D934297
:1070E000E2D3FB6D002B3DD0304BD3F810343B6521
:1070F0002E4BD3F81834002B1BD0F86D02F0B4FEE1
:107100004AE0002387F84F30386DFFF72FFB034626
:10711000002B02D0012387F84F3097F84F30002B17
:1071200003D0F96D386DFFF7CDFA3B6DDB681B6856
:107130003B653B6D002BE4D1F86D02F095FE00231A
:10714000FB70FB1C184601F0A3F9184BD3F8183458
:10715000002B02D13B69154A9360FB78184601F079
:10716000ADF919E0114BD3F81034BB6406E0B86CEC
:10717000FFF7C4FABB6CDB681B68BB64BB6C002BFD
:10718000F5D10B4A0B4BD31ADB081B0443F0020367
:1071900009491846FFF7D4FDFFF73CFE034683F08C
:1071A0000103DBB218466037BD4680BD6030002069
:1071B0000CA00300D49F03007471030080B584B059
:1071C00000AF0023FB6020E0144BD3F81034BB6009
:1071D0000123FB710EE0B868FFF7ADFA03461A46CB
:1071E000FB68934202D10023FB7106E0BB68DB68B9
:1071F0001B68BB60BB68002BEDD1FB79002B01D075
:10720000FB6807E0FB680133FB60FB68092BDBDDF3
:107210004FF0FF3318461037BD4680BD6030002068
:1072200080B584B000AF78600B46FB70FFF7C6FFF7
:10723000F860FB68B3F1FF3F01D1FB6822E0FB6817
:10724000DBB219467868FFF766FA104BD3F81034B2
:10725000002B08D10D4A7B68C2F810347B68DB68CC
:1072600000221A600DE0094BD3F81034DA687B680D
:10727000DB6812681A60054BD3F81034DB687A6853
:107280001A60FB6818461037BD4680BD603000208C
:1072900080B582B000AF0D4BD3F810347B600B4B40
:1072A00001221A7009E07868FFF752FA7868FFF750
:1072B00018FA7B68DB681B687B607B68002BF2D167
:1072C00000BF00BF0837BD4680BD00BF6030002052
:1072D00080B58CB004AF78603960304B1B683A6879
:1072E000B2FBF3F33B602E4B1B683A68B2FBF3F33F
:1072F000FB61FB692B4AA2FB0323DB0ABB61BB6971
:107300004FF4616202FB03F3FA69D31AFB61FB6974
:10731000254AA2FB03235B097B617A6913461B01A3
:107320009B1A9B001A46FB699B1AFB611C4B1A684F
:107330003B68B3FBF2F102FB01F29B1A3B613B6934
:107340004FF47A7202FB03F2154B1B68B2FBF3F3A6
:10735000FB603B694FF47A7202FB03F2104B1B682F
:10736000F96801FB03F3D31A4FF47A7202FB03F2BC
:107370000B4B1B68B2FBF3F3BB60BB680293FB686B
:107380000193FB6900937B69BA690849786802F048
:1073900019F900BF2037BD4680BD00BF84340020EE
:1073A00080340020C5B3A29189888888F0710300D9
:1073B00090B585B002AF786039607B68DB88002BC0
:1073C0000AD07B68DB881A461F4B009313461F4A7E
:1073D0001F49386802F0F6F87B681B7A052B2ED01F
:1073E0007B685B7A002B12D07B689B881A467B688F
:1073F0001B7A19461046FFF759FA03461A46154BF1
:1074000053F822301A461449386802F0DBF87B68DA
:107410001B6819463868FFF75BFF7B681B7A1A46C2
:107420000E4B53F822407B689B8800211846FFF7DB
:107430001FFA034622460A49386802F0C3F800BF23
:107440000C37BD4690BD00BFA8710300B8710300A2
:107450000C720300542D002024720300402D0020E4
:107460002872030080B584B000AFF860B96013469D
:10747000FB71FB681B7A052B0FD0FB685B7A002B36
:1074800006D00D4B1B681A460C49B86802F09AF8F2
:107490000B49B86802F096F806E0FB79002B03D0A0
:1074A0000749B86802F08EF8B86802F069F800BFC2
:1074B0001037BD4680BD00BF542D0020247203004C
:1074C00034720300B0B58AB004AFF860B9607A6076
:1074D0003B60BB6A1B7BFB75BB6A00221A73B96AEF
:1074E0003868FFF765FF7B68062B7FD801A252F84A
:1074F00023F000BF117502001B7502002B750200FE
:107500003F7502005D75020085750200B5750200C9
:10751000F968B86A02F056F869E0BB681B681A4659
:10752000F968B86A02F04EF861E0BB681A68BB6897
:1075300004331B68F968B86A02F044F857E0BB6886
:107540001A68BB6804331968BB6808331B6800936A
:107550000B46F968B86A02F035F848E0BB6819686C
:10756000BB6804331868BB6808331B68BA680C3200
:1075700012680192009303460A46F968B86A02F05D
:1075800021F834E0BB681868BB6804331C68BB682A
:1075900008331B68BA680C321268B9681031096880
:1075A00002910192009323460246F968B86A02F0FC
:1075B00009F81CE0BB681C68BB6804331D68BB6825
:1075C00008331B68BA680C321268B9681031096850
:1075D000B8681430006803900291019200932B4622
:1075E0002246F968B86A01F0EDFF00E000BF002212
:1075F000B96A3868FFF736FFBB6AFA7D1A7300BFB5
:107600001837BD46B0BD00BF80B586B000AFF8608A
:10761000B9607A603B60BB68082B5CD83B681B7B19
:10762000FB743B6800221A7339687868FFF7C0FE64
:1076300000237B6114E07A69BB689A4209D2FA6838
:107640007B6913441B781A462549386801F0BAFF54
:1076500003E02449386801F0B5FF7B6901337B61A1
:107660007B69072BE7D92049386801F0ABFF00237D
:107670007B6124E07A69BB689A4219D2FA687B6917
:1076800013441B78BB74BB7C7E2B0AD8BB7C0133B4
:10769000164A13441B7803F09703002B01D0BB7CE0
:1076A00000E02E231A461249386801F08BFF03E0F0
:1076B0001049386801F086FF7B6901337B617B6983
:1076C000072BD7D9012239687868FFF7CBFE3B68D2
:1076D000FA7C1A7300E000BF1837BD4680BD00BFBA
:1076E000387203004072030044720300849D03005B
:1076F000487203004C72030080B483B000AF78601E
:107700000C4B01221A6007E07B685B087B60094B29
:107710001B685B00074A13607B68074A9342F3D8F3
:10772000064A7B68136000BF0C37BD465DF8047BDA
:10773000704700BF8434002040420F008034002096
:1077400080B485B000AF0346FB71FB795B08DBB208
:107750001A460C4B9B5CFB73FB7903F00103002B77
:1077600003D0FB7B1B09DBB203E0FB7B03F00F03C1
:10777000DBB2BB73BB7B18461437BD465DF8047B98
:10778000704700BFC034002080B485B000AF03460E
:107790000A46FB711346BB71FB7903F00103002B12
:1077A00001D00F2300E0F023FB73FB7903F001030A
:1077B000002B03D0BB791B01DBB200E0BB79BB73AC
:1077C000FB795B08DBB21A460F4B9A5CFB795B08CE
:1077D000DBB21946FB7B1340DAB20B4B5A54FB79F0
:1077E0005B08DBB21A46084B9A5CFB795B08DBB29C
:1077F0001946BB7B1343DAB2034B5A5400BF14370C
:10780000BD465DF8047B7047C034002080B584B06D
:1078100000AF0346FB710023FB600FE00F4B1A68BB
:10782000FB68DB001344BB60BB681B78FA799A42A3
:1078300001D1BB680DE0FB680133FB60084B1B788E
:107840001A46FB689342E9DB064988200DF02CF9C3
:10785000002318461037BD4680BD00BF8834002085
:107860008C3400205C72030080B584B000AF034606
:107870000A46FB711346BB71FB791846FFF7C6FF3A
:10788000F860FB68002B09D0FB685B68002B05D013
:10789000FB685B68B979FA791046984700BF1037E2
:1078A000BD4680BD2DE9F04F89B000AF03460A46C2
:1078B000FB751346BB75FB7D1846FFF741FF03467A
:1078C000042B00F2B58001A252F823F0E178020007
:1078D000517902006979020091790200A3790200CE
:1078E000BB7D002B00F0A180FB7D01211846FFF736
:1078F0004BFF0023FB7707F11F03184600F0C8FD7C
:10790000F97D4FF001024FF00003A1F12004C1F115
:10791000200003FA01F902FA04F449EA040922FA00
:1079200000F049EA000902FA01F8444BD3E90023C8
:1079300048EA0201B96049EA0303FB603F4BD7E91B
:107940000212C3E90012FB7F184600F0B7FD6CE09D
:10795000BB7D002B01D0022200E00022FB7D1146FE
:107960001846FFF711FF63E0BB7D002B0AD0FB7DBB
:1079700003211846FFF708FFFB7D01211846FFF79A
:1079800073FF55E0FB7D01211846FFF7FDFE4FE038
:10799000BB7D002B4BD1FB7D04211846FFF7F4FE85
:1079A00045E0BB7D002B05D0FB7D03211846FFF78A
:1079B000EBFE3DE0FB7D00211846FFF7E5FEFB7D79
:1079C00000211846FFF750FF0023BB7707F11E0385
:1079D000184600F05DFDF97D4FF001024FF0000305
:1079E000A1F12006C1F1200003FA01F502FA06F622
:1079F000354322FA00F0054302FA01F46FEA040A63
:107A00006FEA050B0D4BD3E900230AEA0201396046
:107A10000BEA03037B60094BD7E90012C3E90012AC
:107A2000BB7F184600F04AFD02E000BF00E000BF47
:107A300000BF2437BD46BDE8F08F00BFB83400203A
:107A400080B582B000AF0648064B1B685B08002279
:107A5000194600F033FC786000BF0837BD4680BD92
:107A6000983400209034002080B586B000AF786054
:107A700000237B6124E01B4B1A687B69DB00134405
:107A80003B613B691B78184605F05CF80346FB73C5
:107A90003B695B78012B0CBF01230023DBB21A4644
:107AA000FB7B9A420CBF01230023BB733B691B780D
:107AB000BA7B11461846FFF7F5FE7B6901337B61FF
:107AC000094B1B781A467B699342D4DB074BD3E9F9
:107AD0000023134301D0FFF7B3FF00BF1837BD46A3
:107AE00080BD00BF883400208C340020B8340020D2
:107AF00080B584B000AF78600B46FB707B68DBB26A
:107B00001846FFF783FEF860FB681B78184605F0FF
:107B100019F80346FB72FB685B78012B0CBF01234D
:107B20000023DBB21A46FB7A9A420CBF01230023E2
:107B3000BB72BB7A002B06D0054BD3E9002313435D
:107B400001D1FFF77DFF00BF1037BD4680BD00BFEC
:107B5000B834002080B58AB000AFF8600B467A6078
:107B6000FB727B68092B01D807235BE004F05CFF04
:107B7000034683F00103DBB2002B09D004F0FAFEC8
:107B800078627B6A3B623B6A002B01D03B6A49E02A
:107B9000264AFB681360264AFB7A1370254A7B68E5
:107BA00013601022002124480EF002F823494FF000
:107BB00000024FF00003C1E9002328E0FB7ADB005C
:107BC000FA681344FB6103233B7500237B75BB7D7F
:107BD0006FF30003BB75BB7D6FF34103BB75BB7DCA
:107BE0006FF38203BB75FB699B787B75FB691B7820
:107BF000184607F11403124A194604F027FF786269
:107C00007B6ABB61BB69002B01D0BB690AE0FB7AD0
:107C10005A1EFA72002BD1D10A4A00210A4800F0FC
:107C20001BFB034618462837BD4680BD883400201C
:107C30008C34002090340020C0340020B834002060
:107C4000F17A0200697A0200B872030000B583B0CD
:107C500002900091019244F2010071466A460CF0D4
:107C600035FF03B000BD00BF2DE9B04382B000AFC7
:107C7000144801F035F8034618464FF00001124B46
:107C8000D3E9002310EB020841EB0309C7E900899F
:107C90000E4BD3E90023D7E90001994208BF904277
:107CA00007D2D7E9002312F1807443F10005C7E938
:107CB0000045D7E90023104619460837BD46BDE800
:107CC000B08300BF782D0020D8340020E03400209D
:107CD00080B489B000AF786039607B68FB613B6835
:107CE000BB61FB69D3E90223C7E90423BB69D3E97C
:107CF0000223C7E90223D7E90423D7E90201994205
:107D000008BF90422CBF01230023DBB21846243762
:107D1000BD465DF8047B7047B0B584B000AF7860B5
:107D20007B685B69002B03D12949A2200CF0BCFEC3
:107D30000023FB73274B1B78002B43D07B68002B61
:107D400040D07B681B7FDBB2002B3BD0FFF78CFF62
:107D50007B68D3E90223994208BF90422BD37B680A
:107D60001B69002B02D17B6800221A777B685B6954
:107D70007A689269104698477B681B69002B21D06E
:107D80007B681B7FDBB2002B1CD07B68D3E9020130
:107D90007B681B691A464FF00003841841EB03050A
:107DA0007B68C3E902457B6819460B4802F0CEF9AF
:107DB0000123FB7306E07B681946074802F0C6F909
:107DC0000123FB73FB7B18461037BD46B0BD00BFD7
:107DD000C8720300D4340020287303002DE9B04397
:107DE00088B000AF786039600D23FB613B680022EA
:107DF0001A707B68D3E90245FFF736FF02460B464F
:107E0000B4EB020865EB0309C7E90489D7E9042349
:107E1000012A73F100031BDB3B691A4A934205D91F
:107E200000F0B0FA0246174B134403E07B68D3E935
:107E300002231346FB604FF49623FA680021124890
:107E400000F042FEF861FB69002B05D1012313E02D
:107E500000210D4800F00EFFFB690D2B07D178685B
:107E6000FFF75AFF03461A463B681A7003E00749BA
:107E7000F5200CF019FE002318462037BD46BDE85A
:107E8000B08300BFFF4FFB00782D0020C8720300B5
:107E900080B582B000AF044802F092F978607B6848
:107EA00018460837BD4680BD2873030080B582B0F0
:107EB00000AF044802F0A6F978607B6818460837DE
:107EC000BD4680BD2873030080B582B000AFFFF7C8
:107ED000DFFF78607B68002B02D07B6800221A7776
:107EE0007B68002BF3D100BF00BF0837BD4680BDC3
:107EF00080B400AF074BD3E9002312F1807043F147
:107F00000001044BC3E9000100BFBD465DF8047BDE
:107F1000704700BFD834002090B583B000AF7860C0
:107F2000124B1B68002B1DD0786800F0D9FE044668
:107F30000021786800F0C4FE03461946204600F090
:107F400011FA0346B3F5962F04D309494FF49570FF
:107F50000CF0AAFD054B1B681846FFF7DDFE034B2E
:107F600000221A6000BF0C37BD4690BDD0340020FF
:107F7000C872030080B582B000AF7860FFF774FE6E
:107F800002460B460349C1E9002300BF0837BD463E
:107F900080BD00BFE034002080B584B000AF7860C1
:107FA000FFF784FFF8600023FB72FB68002B3DD0D5
:107FB000224B1B68002B02D10123FB7218E0FB68E7
:107FC000D3E902011D4B1B68D3E90223994208BF84
:107FD00090420DD20123FB72184B1B681B7FDBB252
:107FE000002B05D0154B1B681946154802F0AEF85A
:107FF000FB7A002B1CD0FFF74BFFF86007F10A0358
:108000001946F868FFF7EAFE0346002B0AD00B4A30
:10801000FB681360BB7A83F00103DBB2002BBFD097
:1080200000BF06E0054B00221A60B9E700BF00E080
:1080300000BF00BF1037BD4680BD00BFD034002058
:108040002873030080B586B000AF78602D4A07F131
:108050000C031946104601F09FF8786149E07B69EE
:108060001B78022B2DD0022B31DC002B02D0012BF0
:1080700014D02CE07B695B681B7FDBB283F00103CB
:10808000DBB2002B25D07B695B6801221A777B6904
:108090005B6819461C4802F059F81AE07B695A6877
:1080A0001A4B1B689A4203D1184B00221A6011E048
:1080B0007B695B681946144802F0B8F80346FB7404
:1080C00008E0FFF701FF124B01221A7002E000BF27
:1080D00000E000BF0B4A07F10C031946104601F0FF
:1080E00075F8084A07F10C031946104601F054F8D8
:1080F00078617B69002BB2D100BF00BF1837BD4645
:1081000080BD00BF4035002028730300D03400201C
:10811000D434002080B582B000AF7860786800F079
:108120009BFD0346002B01D0FFF7E2FE002178689B
:1081300000F0B2FD0346002B02D07868FFF7ECFE9A
:108140000121786800F0A8FD0346002B02D0786872
:10815000FFF710FF7868FFF775FF7868FFF71CFFDF
:1081600000BF0837BD4680BD80B500AF024800F0B3
:10817000C5FD00BF80BD00BF782D002080B584B054
:1081800000AF03463960FB71114A07F10803194635
:10819000104600F0D2FFF860FB68002B13D0FB689C
:1081A000FA791A70FB683A685A60094A07F10803BD
:1081B0001946104600F0DBFF0346002B01D0FFF705
:1081C000D3FF002300E0042318461037BD4680BDCE
:1081D0004035002080B582B000AF184B1B683B6073
:1081E000174808235822174900F062FF78607B681F
:1081F000002B01D07B681CE03B46134A194613480C
:1082000000F006FB78607B68002B01D07B6810E0F3
:1082100001210E4800F010FD01230D4A01210B48F9
:1082200000F08CFB094800F071FB0A4B01221A7028
:108230007B6818460837BD4680BD00BF2473030025
:1082400040350020E834002015810200782D002000
:10825000FFFF7F00D434002080B586B000AFF86007
:108260000B467A60FB72FB68002B04D1124940F286
:108270002E200CF019FC7B68002B04D10E4940F233
:108280002F200CF011FC7B68002B01D107230FE09D
:10829000FB681B687B617B697A685A61FB7A012BFA
:1082A0000CBF01230023DBB21A467B691A6100234D
:1082B00018461837BD4680BDC8720300B0B586B0F9
:1082C00000AFF860B9607A60FB68002B04D11649F2
:1082D00040F23E200CF0E8FBFB687B617B691B7F72
:1082E000DBB2002B01D000231AE07B697A689A6127
:1082F000FFF7BAFCBB681A464FF00003841841EB45
:1083000003057B69C3E902457B691B69002B02D029
:108310007B69BA681A6179690020FFF72FFF03466D
:1083200018461837BD46B0BDC872030080B584B08A
:1083300000AF78607B68002B04D109494FF41570B9
:108340000CF0B2FB7B68FB60FB6800221A77F968CF
:108350000120FFF713FF034618461037BD4680BDC6
:10836000C872030080B483B000AF786039607A6867
:108370003B68D31A23F07F4318460C37BD465DF89F
:10838000047B704780B500AF024800F0A9FC0346AB
:10839000184680BD782D002080B483B000AFEFF385
:1083A00010833B603B687B6072B600BF7B681846F9
:1083B0000C37BD465DF8047B704780B400AF62B6F1
:1083C00000BF00BFBD465DF8047B704780B584B038
:1083D00000AF7860FFF7E0FFF860164B9B68002B5A
:1083E0001BD1144B01229A60134BD3F88020134BFE
:1083F0001340104A1360104B104AC3F880200E4BF4
:10840000D3F884300B4A53600B4B4FF0FF32C3F864
:1084100084207B6800221A7002E07B6801221A70B7
:10842000FB68002B01D1FFF7C8FF00231846103767
:10843000BD4680BD984E002000E100E0FC06FFBD77
:1084400080B584B000AF0346FB710F4B9B68002BD7
:1084500015D0FB79002B12D1FFF79EFFF8600B4A75
:10846000094B1B681360094A074B5B685360064B56
:1084700000229A60FB68002B01D1FFF79EFF0023CA
:1084800018461037BD4680BD984E002000E100E040
:1084900080B582B000AF786000F028F80346012B69
:1084A00003D0054943200CF0FFFA7868FFF78EFFF0
:1084B00000BF0837BD4680BD3473030080B582B06D
:1084C00000AF0346FB7100F011F80346012B03D007
:1084D000054951200CF0E8FAFB791846FFF7B0FF88
:1084E00000BF0837BD4680BD3473030080B485B03B
:1084F00000AFEFF305837B607B68C3F30803FB6089
:10850000FB68002B0DD1EFF314833B603B68BB602D
:10851000BB6803F00103002B0CBF01230023DBB277
:1085200000E0012318461437BD465DF8047B704710
:1085300080B483B000AF0346FB7197F90730002B7E
:108540000BDBFB7903F01F02074997F907305B0942
:10855000012000FA02F241F8232000BF0C37BD468B
:108560005DF8047B704700BF00E100E080B483B099
:1085700000AF0346FB7197F90730002B0CDBFB794A
:1085800003F01F02074997F907305B09012000FA41
:1085900002F2403341F8232000BF0C37BD465DF89E
:1085A000047B704700E100E080B483B000AF034675
:1085B0003960FB7197F90730002B0ADB3B68DAB2B0
:1085C0000C4997F907305201D2B20B4483F80023CB
:1085D0000AE03B68DAB20849FB7903F00F03043B79
:1085E0005201D2B20B441A7600BF0C37BD465DF87B
:1085F000047B704700E100E000ED00E080B582B050
:1086000000AF03460A46FB711346BB71BB79012BD1
:1086100002D9BB79032B09D9BB79042B02D9BB79C9
:10862000072B03D907496B200CF03EFABA7997F96A
:10863000073011461846FFF7B7FF00BF0837BD46A1
:1086400080BD00BF9473030080B582B000AF0346C5
:10865000FB7197F907301846FFF76AFF00BF08372C
:10866000BD4680BD80B584B000AF78607B68002BCC
:108670000AD0074B43F00103FB607B689B01BB60A2
:10868000FB68B868984700E000BF1037BD4680BD62
:10869000E074030080B485B000AFF860B9607A6020
:1086A000FB68BA6802F5A872796843F8221000BF27
:1086B0001437BD465DF8047B704780B483B000AFCB
:1086C000786039607B683A6802F5A87253F8223006
:1086D00018460C37BD465DF8047B704780B483B004
:1086E00000AF786039607B683A68C3F8042300BF44
:1086F0000C37BD465DF8047B704780B483B000AF93
:10870000786039607B683A68C3F8082300BF0C378B
:10871000BD465DF8047B704780B483B000AF7860DD
:108720000B467B807B887A6813441B6818460C379D
:10873000BD465DF8047B704780B485B000AF7860BB
:108740000B467B807B887A68134400221A607B8802
:108750007A6813441B68FB60FB6800BF1437BD4692
:108760005DF8047B704780B483B000AF78607B68AD
:10877000D3F8043518460C37BD465DF8047B7047C6
:1087800080B582B000AF786039603B68B3F5805F38
:1087900004D306494FF4BE700CF086F97B683A6842
:1087A000C3F8082500BF0837BD4680BDE473030049
:1087B00080B483B000AF78600B46FB70FA787B68BA
:1087C00013441A460123136000BF0C37BD465DF801
:1087D000047B704780B483B000AF786039607B68F9
:1087E0003A68C3F8442300BF0C37BD465DF8047BEC
:1087F000704780B483B000AF786039607B683A68B6
:10880000C3F8482300BF0C37BD465DF8047B7047B2
:1088100080B586B000AFF860B9607A60FB68002B65
:1088200003D1334955200CF03FF9BB68002B03D12D
:108830002F4956200CF038F97B68002B03D12C49C6
:1088400057200CF031F9FB685B791946294A7B689F
:1088500042F82130FB685B79274ADB0013441B791F
:10886000002B0ED008237B61244A254BD31ADB084A
:108870001B0443F0020323491846FEF761FA7B69A3
:1088800032E0FB681A68BB681B8819461046FFF780
:1088900077FFFB6893F90420BB689B781946104664
:1088A000FFF7ACFEFB6893F904301846FFF7CCFEE7
:1088B000FB685B79104ADB00134401221A71FB68E4
:1088C0005B7919460C4AFB6842F8313000237B6122
:1088D0000A4A0B4BD31ADB081B0443F003030A4973
:1088E0001846FEF72DFA7B6918461837BD4680BD3D
:1088F0003074030054350020583500201CA00300BC
:10890000D49F030088740300AC74030080B582B068
:1089100000AF78607B68002B03D1074987200CF0FB
:10892000C3F87B681B6800211846FFF741FF00BFB2
:108930000837BD4680BD00BF3074030080B586B0E7
:1089400000AFF860B9607A60FB70FB68002B03D160
:108950001F4996200CF0A8F84FF48032BB6802FA49
:1089600003F37B61BB6850339BB29B007B827B68C7
:1089700023F07F437B60FB681B6879691846FFF72B
:10898000BCFEFB681B6879691846FFF732FFFB687D
:108990001B687A8A11461846FFF7CEFEFB681B68F3
:1089A0007A68B9681846FFF775FEFB681B68796935
:1089B0001846FFF70FFFFB78002B05D0FB681B68FC
:1089C00079691846FFF78AFE00BF1837BD4680BD9B
:1089D0003074030080B584B000AFF860B96013460E
:1089E000FB71FB68002B03D10B49A9200CF05CF84C
:1089F000FB681B68B9681846FFF7ECFEFB79002B93
:108A000005D0FB681B68B9681846FFF767FE00BF12
:108A10001037BD4680BD00BF3074030080B582B002
:108A200000AF786039607B68002B03D10949B3201F
:108A30000CF03AF87B681B6839681846FFF7D9FED6
:108A40007B681B6839681846FFF757FE00BF083778
:108A5000BD4680BD3074030080B582B000AF786041
:108A60000B467B807B68002B03D10E49BA200CF0AB
:108A70001BF87B681B687A8811461846FFF74CFE86
:108A80000346002B08D07B681B687A88114618467D
:108A9000FFF752FE012300E0002318460837BD46C9
:108AA00080BD00BF3074030080B483B000AF786035
:108AB00039607A683B68D31A23F07F4318460C3735
:108AC000BD465DF8047B704780B58AB000AFF860A2
:108AD000B9607A603B60FB68002B03D15549CD201B
:108AE0000BF0E2FF4FF48032BB6802FA03F37B62C3
:108AF000BB6850339BB29B007B847B6823F07F4331
:108B00007B60796AF868FFF789FFFB681B68184685
:108B1000FFF729FEF861FB681B68B9681846FFF784
:108B2000CCFDB861FB681B68FA69B9681846FFF7A5
:108B3000B1FDFB681B687A8C11461846FFF7FCFDF7
:108B4000F969B869FFF7B0FF0346012B09D110207E
:108B5000FFF788FDFB681B687A8C11461846FFF703
:108B6000EBFDFB681B681846FFF7FDFDF861F9692E
:108B70007868FFF799FF7861FB681B68796A184687
:108B8000FFF728FE7B69012B15D1FB6818687B680D
:108B900001331A46B968FFF77DFD1020FFF762FD2B
:108BA000FB681B681846FFF7DEFD0246FB6993422F
:108BB00035D00D2339E0FB681B687A68B968184620
:108BC000FFF768FDFB681B681846FFF7CCFDF861EE
:108BD0007B68013BF9691846FFF766FF78613B68DF
:108BE000C3F1FF1303F57F437A699A4201D90D233C
:108BF0001BE07B69002B12D1FB6818687B6801338E
:108C00001A46B968FFF746FDFB681B681846FFF770
:108C1000AAFD0246FB69934201D00D2305E0012223
:108C2000796AF868FFF7D6FE002318462837BD4654
:108C300080BD00BF3074030080B582B000AF7860A3
:108C40000B46FB70FB781A4602217868FFF7C2FEDC
:108C500000BF0837BD4680BD80B582B000AF7860E8
:108C60004FF482717868FFF7F7FE0346184608371D
:108C7000BD4680BD80B582B000AF786039604FF4EA
:108C800080323B6802FA03F319467868FFF7C6FEA4
:108C900000BF0837BD4680BD80B584B000AF7860A6
:108CA00039603B6850339BB29B00FB81FB891946BE
:108CB0007868FFF7D1FE034618461037BD4680BDE1
:108CC00080B582B000AF786039607B681B68396816
:108CD0001846FFF7F2FC034618460837BD4680BD2C
:108CE00080B582B000AF78607B681B681846FFF7DC
:108CF0003AFD034618460837BD4680BD80B582B0B0
:108D000000AF78607B6893F904301846FFF72EFCBB
:108D100000BF0837BD4680BD80B500AF034B1B6860
:108D2000034A12681046984700BF80BD54350020A2
:108D30005835002080B400AFBFF34F8F00BF064B03
:108D4000DB6803F4E0620449044B1343CB60BFF3D8
:108D50004F8F00BF00BFFDE700ED00E00400FA0503
:108D600080B582B000AF7860FFF7E4FF90B589B0BE
:108D700002AF7860FEF78CFA00BFFEF75DF803469D
:108D8000002BFAD17B683B61584B9B6AFB603B69C7
:108D9000002B35D0564A574BD31ADB081B0443F03F
:108DA00001003B699B691A465349FDF7D8FF504AB9
:108DB000504BD31ADB081B0443F001003B691968D0
:108DC0003B695C683B699B683A69D2680192009391
:108DD00023460A464949FEF703F8454A454BD31A4C
:108DE000DB081B0443F001003B691A693B695969C0
:108DF0003B69DB6900930B464149FDF7D9FF0AE067
:108E00003B4A3C4BD31ADB081B0443F001033D49AA
:108E10001846FDF795FF354BDB6A03F00203002B84
:108E20000AD0334A334BD31ADB081B0443F0010347
:108E300035491846FDF784FF00237B6120E00122BD
:108E40007B6902FA03F31A46FB681340002B14D027
:108E50002E4A7B6952F82330002B0ED0244A254B32
:108E6000D31ADB081B0443F00100284A7B6952F83F
:108E700023301A462649FDF772FF7B6901337B6177
:108E80007B69192BDBD9FB6803F08003002B0CD026
:108E9000174A184BD31ADB081B0443F00103134A8B
:108EA000526B1C491846FDF75AFFFB6803F4004358
:108EB000002B0CD00E4A0F4BD31ADB081B0443F0D7
:108EC00001030A4A926B14491846FDF748FF134BF9
:108ED0001B6803F00103002B00D000BE7868FFF789
:108EE0003FFF00BF1C37BD4690BD00BF00ED00E056
:108EF00034A00300D49F0300F47403000C75030036
:108F0000447503006C750300A0750300802D0020DC
:108F1000E4750300F075030010760300F0ED00E047
:108F20001EF0040F1CBFEFF309800AE0EFF3088086
:108F30000549064A884201D8904202D88D464FF032
:108F40000000034B184700000000012000E0002053
:108F50006D8D020000BF00BF80B487B000AF7860A5
:108F600039607B6853E8011F8AB2D8890244988926
:108F7000824228BF121A1889824202BFBFF32F8F84
:108F8000002307E0C2EA010243E801200028E9D1FA
:108F90004FF00103FB737861B9603A61BA683B68CE
:108FA0001A60FB7BDBB218461C37BD465DF8047BBC
:108FB000704780B485B000AF7860796851E8013FB0
:108FC000C3EA034341E80132002AF7D1FA60BB60EB
:108FD00000BF1437BD465DF8047B704780B487B08E
:108FE00000AF786039607B6853E8021F1FFAA1F276
:108FF000D888824202BFBFF32F8F00230DE0D889AB
:1090000002449889824228BF121AC1EA024243E808
:1090100002200028E8D14FF00103FB737861B960AA
:109020003A61BA683B681A60FB7BDBB218461C37B2
:10903000BD465DF8047B704780B485B000AF7860B2
:10904000796851E8023FC3EA234341E80232002A2B
:10905000F7D1FA60BB6000BF1437BD465DF8047BF2
:10906000704780B487B000AF78607B6853E8021F18
:10907000DA88B1EB314F4FF0000017BF89B242EAF6
:10908000024241EA024204E05968B1EB314F08BFA5
:10909000012043E802210029E8D1F87379613A619F
:1090A000FB7BDBB218461C37BD465DF8047B70477E
:1090B00080B485B000AFF860B96011461A460B461F
:1090C000FB801346BB80BB68002B01D10E231BE045
:1090D000FB88BA88B3FBF2F102FB01F29B1A9BB248
:1090E000002B01D009230FE0FB68BA681A60FB6807
:1090F00000225A60FB6800229A60FB68FA889A8115
:10910000FB68BA88DA81002318461437BD465DF83B
:10911000047B704780B584B000AF78607868FFF753
:10912000A0FF0346FB73FB7B002B01D0002300E074
:10913000112318461037BD4680BD80B584B000AFFE
:10914000786039603B6819467868FFF705FF034689
:10915000002B07D07B681B683A6812881344FB60B9
:10916000FB6800E0002318461037BD4680BD80B57F
:1091700082B000AF786039603B681A883B685B88D2
:109180009A4204D17868FFF714FF012300E000231E
:1091900018460837BD4680BD80B584B000AF786002
:1091A00039603B6819467868FFF718FF0346002BC3
:1091B00007D07B681B683A6852881344FB60FB68E1
:1091C00000E0002318461037BD4680BD80B582B050
:1091D00000AF786039603B681A883B685B889A42C8
:1091E00004D17868FFF728FF012300E00023184628
:1091F0000837BD4680BD90B486B000AF7860396056
:109200007B683A6853E8004F104643E8000191F04C
:10921000000FF7D17C613861F9607B691846183717
:10922000BD4690BC704790B486B000AF786039609E
:109230007B683A6853E8004F44EA020043E80001C3
:1092400091F0000FF6D17C613861F9607B691846B6
:109250001837BD4690BC704790B486B000AF7860B8
:1092600039607B683A6853E8004F44EA020043E8FB
:10927000000191F0000FF6D17C613861F9603B6923
:1092800018461837BD4690BC704790B486B000AF02
:10929000786039607B683A6853E8004F04EA02005E
:1092A00043E8000191F0000FF6D17C613861F9606C
:1092B0007B6918461837BD4690BC704790B486B09D
:1092C00000AF786039607B683A6853E8004F04EB80
:1092D000020043E8000191F0000FF6D17C61386193
:1092E000F9603B6918461837BD4690BC704790B48A
:1092F00086B000AF786039607B683A6853E8004F09
:10930000A4EB020043E8000191F0000FF6D17C616C
:109310003861F9603B6918461837BD4690BC704704
:1093200080B582B000AF786001217868FFF77BFFDD
:10933000034618460837BD4680BD80B582B000AFF1
:10934000786001217868FFF787FF034618460837E1
:10935000BD4680BD80B582B000AF786000217868DE
:10936000FFF793FF034618460837BD4680BD00004F
:1093700080B582B000AF78600B46FB707B68002B35
:1093800003D10849E8200BF08FFB7B68DA68FB7893
:109390007968098A01FB03F3134418460837BD4670
:1093A00080BD00BF007B030080B582B000AF786055
:1093B00039607B68002B03D10849F5200BF074FB62
:1093C0003B687A68D2689B1A7A68128AB3FBF2F318
:1093D000DBB218460837BD4680BD00BF007B0300E6
:1093E00080B584B000AF78607B68002B01D10E237C
:1093F00048E07B681B68002B03D12449FF200BF059
:1094000053FB7B685B68002B04D120494FF48070CC
:109410000BF04AFB7B689B68002B04D11B4940F290
:1094200001100BF041FB7B68DB68002B04D117496E
:109430004FF481700BF038FB7B681B8A002B04D142
:10944000124940F203100BF02FFB7B689A687B688F
:109450005B68D31AFB737B681B687A6852681A6072
:1094600006E07B681A681368591C1160FA7B1A7051
:10947000FB7B5A1EFA73002BF3D17B681B6800221A
:109480001A71002318461037BD4680BD007B0300CB
:1094900080B584B000AF78607B68002B04D11D4993
:1094A0004FF492700BF000FB0023FB600023BB72B3
:1094B00007F10A031846FEF7EBFF7B681B681A6882
:1094C0007B685B689A421CD97B681B681A68013A02
:1094D0001A601B681B7819467868FFF749FFF86027
:1094E0007B689A687B681B681B68D31AFB727B6871
:1094F0001B681B79FA7A9A4203D97B681B68FA7A4F
:109500001A71BB7A1846FEF7D9FFFB681846103768
:10951000BD4680BD007B030090B585B000AF78608C
:1095200039607B68002B04D1144940F247100BF0DE
:10953000BBFA3B68002B04D110494FF4A4700BF028
:10954000B3FA3B68FB600023FB7207F10B0318467C
:10955000FEF79EFF7B681B681C68621C1A60F96836
:109560007868FFF721FF03462370FB7A1846FEF761
:10957000A5FF00BF1437BD4690BD00BF007B0300B0
:1095800080B582B000AF78607B68002B03D10C49B6
:1095900031200BF089FA7B689B68002B0CD07B682C
:1095A0005B697A6810697A6811687A689268984786
:1095B0007B6800229A6000E000BF0837BD4680BD8E
:1095C0005C7B03000EB480B585B000AF78607B682B
:1095D000002B03D1194942200BF066FA7B685B69C6
:1095E000002B03D1154943200BF05EFA7B681B6802
:1095F000002B03D1114944200BF056FA7B685B68BD
:10960000002B03D10D4945200BF04EFAFB69002BCE
:109610000CD00023FB6007F12003FB6007F10C0373
:109620001A46F969786800F0B1F900E000BF143714
:10963000BD46BDE8804003B0704700BF5C7B0300BF
:1096400080B582B000AF78600B46FB70FB780A2BC8
:1096500003D10D217868FFF7F3FF7B681A687B68F8
:109660009B68581C796888601344FA781A707B6884
:109670009A687B685B689A4202D37868FFF780FF3C
:1096800000BF0837BD4680BD80B586B000AFF8602A
:10969000B9607A603B6000237B613B6803F00103A3
:1096A000002B21D00AE0BB680133BB607B6901332A
:1096B0007B61FB7C1946F868FFF7C2FFBB681B782B
:1096C000FB74FB7C002BEED106E07B68013B7B60EA
:1096D0002021F868FFF7B4FF7A687B699A422BD99A
:1096E0007B68002BF1D127E0BB68002B0BD0B8685A
:1096F0000CF088FD786106E07B68013B7B602021EF
:10970000F868FFF79DFF7A687B699A420ED97B68FB
:10971000002BF1D10AE0BB680133BB607B690133E8
:109720007B61FB7C1946F868FFF78AFFBB681B78F2
:10973000FB74FB7C002BEED100BF1837BD4680BD0B
:1097400080B588B000AFF860B9607A603B60BB68F4
:10975000FB610123BB6107E0FA697B68B2FBF3F3AD
:10976000FB61BB690133BB61FA697B689A42F3D242
:109770003A68BB699A4201D93B68BB61FB6A03F056
:109780000103002B1FD1BB6A002B1CD0FB6A03F026
:109790000203002B05D03B68002B02D13023FB7560
:1097A00001E02023FB7507E0BB6A013BBB62FB7D48
:1097B0001946F868FFF744FFBB6A002B03D0BA696B
:1097C000BB6A9A42F0D30123FB613B68012B03D9AA
:1097D0003B68013B3B6009E0BA68FB69B2FBF3F30D
:1097E0003B613A697B689A4200D205E0FB697A687E
:1097F00002FB03F3FB61E8E7BA68FB69B2FBF3F332
:109800003B613B69FA6902FB03F3BA68D31ABB6098
:10981000154A3B6913441B781946F868FFF710FF97
:10982000FA697B68B2FBF3F3FB61FB69002BE3D1C0
:10983000FB6A03F00103002B11D0BB6A002B0ED092
:1098400006E0BB6A013BBB622021F868FFF7F8FE27
:10985000BB6A002B03D0BA69BB6A9A42F1D300BF3E
:109860002037BD4680BD00BF047C030080B588B0B2
:1098700002AFF860B9607A603B60BB68002BB8BF8C
:109880005B423B6101237B6107E07B683A6992FBA5
:10989000F3F33B617B6901337B617B683A699A42F0
:1098A000F3DA3A687B699A4201D93B687B613B6A8B
:1098B000002B0AD0BB68002B04DB7B6A03F0040397
:1098C000002B02D03B6A013B3B627B6A03F0020340
:1098D000002B02D03B68002B16D07B6A03F00103FB
:1098E000002B11D13B6A002B0ED006E03B6A013BF6
:1098F0003B622021F868FFF7A3FE3B6A002B03D0F0
:109900007A693B6A9A42F1D3BB68002B07DABB68DD
:109910005B42BB602D21F868FFF792FE08E07B6A8E
:1099200003F00403002B03D02B21F868FFF788FE17
:109930007B6A03F00203002B19D07B6A03F001035A
:10994000002B14D13B68002B11D13B6A002B0ED0A9
:1099500006E03B6A013B3B623021F868FFF770FE8E
:109960003B6A002B03D07A693B6A9A42F1D3B9680B
:109970007B6A01933B6A00933B687A68F868FFF75B
:10998000DFFE00BF1837BD4680BD000080B58EB039
:1099900002AFF860B9607A60FB68002B04D1B64969
:1099A00040F252200BF080F8FB685B69002B04D179
:1099B000B1494FF415700BF077F8FB681B68002B6A
:1099C00004D1AD4940F255200BF06EF8FB685B689E
:1099D000002B04D1A84940F256200BF065F8BB6873
:1099E000002B00F09281BB681B7887F82F30BB6892
:1099F0000133BB6097F82F30002B00F07D8197F882
:109A00002F30252B40F06C8100233B620123BB6289
:109A1000BB681B7887F82F3097F82F30302B0DD08C
:109A2000302B1BDC2B2B11D02D2B17D13B6A43F095
:109A300001033B62BB680133BB6012E03B6A43F049
:109A400002033B62BB680133BB600AE03B6A43F040
:109A500004033B62BB680133BB6002E00023BB62CE
:109A600000BFBB6A002BD3D10023FB6197F82F30D6
:109A70002A2B0CD17B681B68191D7A6811601B6842
:109A8000FA691344FB61BB680133BB601AE0BB6831
:109A90001B7887F82F3097F82F302F2B12D997F893
:109AA0002F30392B0ED8BB680133BB60FA691346DF
:109AB0009B0013445B001A4697F82F301344303B49
:109AC000FB61D3E700237B62BB681B7887F82F30EC
:109AD00097F82F302E2B1DD1BB680133BB60BB68BC
:109AE0001B7887F82F3097F82F302F2B12D997F843
:109AF0002F30392B0ED8BB680133BB607A6A13460E
:109B00009B0013445B001A4697F82F301344303BF8
:109B10007B62E4E7BB681B7887F82F3097F82F301B
:109B20006C2B03D097F82F30682B07D1BB6801331B
:109B3000BB60BB681B7887F82F30EFE797F82F30B2
:109B4000252B00F0C380252BC0F2C580782B00F3B5
:109B5000C280582BC0F2BF80583B202B00F2BB8044
:109B600001A252F823F000BF539C0200D79C0200D0
:109B7000D79C0200D79C0200D79C0200D79C020011
:109B8000D79C0200D79C0200D79C0200D79C020001
:109B9000D79C0200ED9B02000B9C0200D79C0200A8
:109BA000D79C0200D79C0200D79C02000B9C0200AD
:109BB000D79C0200D79C0200D79C0200D79C0200D1
:109BC000D79C0200D79C0200999C0200D79C0200FF
:109BD000D79C02007D9C0200D79C02002F9C0200B3
:109BE000D79C0200D79C0200539C02007B681B6834
:109BF000191D7A6811601B68BB62BB6AFB75FB7D2F
:109C00001946F868FFF71CFD66E07B681B68191DA4
:109C10007A6811601B68BB623B6A0193FB69009321
:109C20007B6A0A22B96AF868FFF720FE54E07B6875
:109C30001B68191D7A6811601B68BB62B96A3B6AB0
:109C40000193FB6900937B6A0A22F868FFF778FDAD
:109C500042E07B681B68191D7A6811601B68BB6253
:109C6000B96A3B6A0193FB6900937B6A1022F8682A
:109C7000FFF766FD30E000BFAC7B03007B681B682C
:109C8000191D7A6811601B68BB613B6AFA69B96982
:109C9000F868FFF7F9FC1FE07B681B68191D7A68FC
:109CA00011601B68BB623021F868FFF7C9FC78219E
:109CB000F868FFF7C5FCB96A0023019308230093F5
:109CC00008231022F868FFF73BFD05E02521F8681E
:109CD000FFF7B6FC00E000BFBB680133BB6005E0E6
:109CE00097F82F301946F868FFF7AAFCBB681B7875
:109CF000002B7FF478AE00E000BFFB681B7B002BDD
:109D000004D0F868FFF73CFC00E000BF3037BD46E8
:109D100080BD00BF80B582B000AF78607868FFF783
:109D20005FFB034618460837BD4680BD80B58AB044
:109D300000AF786039607B681B8A043BFB613A683E
:109D4000FB691344DA1CFB69B2FBF3F3FB7678681A
:109D5000FFF79EFB78617B69002B01D1002337E080
:109D60007B6900221A717B6901225A71FB699AB2E0
:109D70007B69DA807B697B62FB7E013B3B617B6AAE
:109D80007A681A6000233B621DE07868FFF780FB69
:109D9000F860FB68002B0ED07B695B790133DAB287
:109DA0007B695A717B6AFA681A60FB687A681A6084
:109DB000FB687B6204E0786900F00EF8002307E09E
:109DC0003B6A01333B623A6A3B699A42DDD37B6965
:109DD00018462837BD4680BD80B58AB000AF786090
:109DE0007B68FB61FB695B79FB767B683B62FB7E92
:109DF000013B7B6100237B6205E03B6A1B683B62A1
:109E00007B6A01337B627A6A7B699A42F5D33B6A4B
:109E10001B683B617B683B6200237B620BE03B6A13
:109E20001B68FB60396A3869FFF776FBFB683B62A9
:109E30007B6A01337B62FB7E7A6A9A42EFD300BF72
:109E400000BF2837BD4680BD80B584B000AF7860C4
:109E50007B68FB60FB68043301211846FFF72EFA8C
:109E600000BF1037BD4680BD80B586B000AF7860BA
:109E70007B687B617B69043301211846FFF737FA61
:109E80000346FB6007F10C033B613B691B78002B29
:109E900002D17868FFF7A0FF00BF1837BD4680BD2C
:109EA00080B590B000AFF860B9607A603B60FB6845
:109EB000002B03D14349B6200AF0F6FDFB687B6214
:109EC000FB68FB637B6ADB881A467B6A5B7903FB72
:109ED00002F3043B3B623A683B6A9A4203D3394936
:109EE000C4200AF0E1FD7B6ADB88FB613B681A1D38
:109EF000FB69B2FBF3F3BB633B680433FA69B3FB62
:109F0000F2F2F96901FB02F29B1A7B637B681A6823
:109F10003B6813443A6A9A4203D23A6A3B68D31ABE
:109F200001E07B681B683B637B683A6B1A6005E065
:109F3000FB6B1B68FB63BB6B013BBB63BB6B002B09
:109F4000F6D10023FB62FA697B6BD31ABB62BA6A53
:109F50003B6B934228BF1346BB622AE0BA68FB6A98
:109F60001344BB61FA6B7B6B134404337B6197F83A
:109F70004830002B05D0BA6A7969B8690BF00AFE3F
:109F800004E0BA6AB96978690BF004FE00237B63C8
:109F9000FB6B1B68FB633A6BBB6AD31A3B63FA6AC1
:109FA000BB6A1344FB62FA693B6B934228BF1346BA
:109FB000BB623B6B002BD1D100BF00BF4037BD4619
:109FC00080BD00BF147C030080B588B002AFF8608C
:109FD000B9607A603B607B687B6107F11402002303
:109FE00000933B68B968F868FFF75AFF7B697A68A5
:109FF0009A4203D00349F6200AF056FD00BF1837F5
:10A00000BD4680BD147C030080B588B002AFF86007
:10A01000B9607A603B607B687B6107F114020123C1
:10A0200000933B68B968F868FFF73AFF7B697A6884
:10A030009A4204D004494FF480700AF035FD00BF05
:10A040001837BD4680BD00BF147C030080B483B0C8
:10A0500000AF78607B689B6800229A607B689B6891
:10A0600000221A617B689B6800225A617B689B68AA
:10A070000022DA607B689B6800225A607B689B68DC
:10A0800000221A6000BF0C37BD465DF8047B7047A4
:10A0900080B582B000AF786039607B68002B03D157
:10A0A000104950200AF000FD3B68002B03D10D49F8
:10A0B00051200AF0F9FC7B683A681A607B681B68DB
:10A0C0001A687B685A607B685A687B681B685B68A3
:10A0D0009A4202D17B6800225A6000BF0837BD4611
:10A0E00080BD00BF707C030080B582B000AF786097
:10A0F0007B68002B03D1144963200AF0D5FC7B68F0
:10A100001B68002B03D1104964200AF0CDFC7B684A
:10A110005B68002B14D07B685B681A467B681B6801
:10A120009B6813441A467B685A607B685A687B6850
:10A130001B685B689A4204D17B6800225A6000E089
:10A1400000BF0837BD4680BD707C030080B584B079
:10A1500000AF786039607B68002B03D117493A2043
:10A160000AF0A2FC3B68002B03D114493B200AF003
:10A170009BFC7B685B68FB600FE07B689B68FA6810
:10A180001268396810469847034683F00103DBB232
:10A19000002B07D1FB681B68FB60FB681B68002B6A
:10A1A000EBD100E000BFFB681A683B681A60FB68EF
:10A1B0003A681A6000BF1037BD4680BDF07C0300CE
:10A1C00080B584B000AF78607B68002B03D10C4968
:10A1D00051200AF069FC7B685B681B68FB607B6848
:10A1E0005B681B68002B06D07B685B681A687B681D
:10A1F0005B6812681A60FB6818461037BD4680BD60
:10A20000F07C030080B582B000AF78607B68002BE3
:10A2100003D105495D200AF047FC7B685B681B6839
:10A2200018460837BD4680BDF07C030080B584B079
:10A2300000AF786039607B68002B03D11449692036
:10A240000AF032FC3B68002B03D111496A200AF066
:10A250002BFC0023FB727B685B68FB600EE0FB68F5
:10A260001B683A689A4206D13B681A68FB681A6014
:10A270000123FB7206E0FB681B68FB60FB681B6840
:10A28000002BECD1FB7A18461037BD4680BD00BFCD
:10A29000F07C030080B584B000AF7860786800F08F
:10A2A0000DF8F860FB68002B01D0FB6800E0024B62
:10A2B00018461037BD4680BD507D030080B487B07E
:10A2C00000AF7860174B7B61174B3B611FE03A6929
:10A2D0007B69D31ADB10DA0F13445B10DB007A6959
:10A2E0001344FB60FB681B68BB60BA687B689A42DA
:10A2F00002D9FB683B610AE0BA687B689A4203D2E4
:10A30000FB6808337B6102E0FB685B6804E07A6904
:10A310003B699A42DBD3002318461C37BD465DF8E3
:10A32000047B7047508103007882030080B586B0BB
:10A3300002AFF860B9607A60FB68002B10D1194A4F
:10A34000194BD31ADB081B0443F00100174A1849C4
:10A350000E2300930B461749FCF72AFD0E231DE040
:10A36000BB68002B10D10F4A0F4BD31ADB081B041C
:10A3700043F00100104A0E490E2300930B460D498D
:10A38000FCF716FD0E2309E0FB68BA681A60FB684B
:10A390001B681B687968F8689847034618461037A9
:10A3A000BD4680BD4CA00300D49F030088820300FB
:10A3B0002C84030090820300BC82030090B587B018
:10A3C00002AFF860B9607A603B60FB68002B10D187
:10A3D000604A614BD31ADB081B0443F001005F4A5B
:10A3E0005F490E2300930B465E49FCF7E1FC0E2308
:10A3F000ABE07B68002B10D1564A574BD31ADB08D1
:10A400001B0443F00100584A55490E2300930B46A4
:10A410005449FCF7CDFC0E2397E0FB681B68002B2A
:10A4200010D14C4A4C4BD31ADB081B0443F00100FB
:10A430004E4A4B49082300930B464A49FCF7B8FCA7
:10A44000082382E03B68002B10D1424A424BD31ACA
:10A45000DB081B0443F00100454A414909230093EE
:10A460000B464049FCF7A4FC09236EE0FB685B68DF
:10A470005A683B68B3FBF2F102FB01F29B1A002B16
:10A4800010D0344A344BD31ADB081B0443F00100CC
:10A49000384A3349092300930B463249FCF788FCBC
:10A4A000092352E0B86800F026F90346002B10D1CA
:10A4B000284A294BD31ADB081B0443F001002E4A1B
:10A4C0002749102300930B462649FCF771FC102303
:10A4D0003BE07B68184600F00EF90346002B10D1D4
:10A4E0001C4A1D4BD31ADB081B0443F00100234A0E
:10A4F0001B49102300930B461A49FCF759FC102303
:10A5000023E03A68B968F86800F0D6F80346002BF3
:10A5100010D1104A104BD31ADB081B0443F0010082
:10A52000174A0F49102300930B460E49FCF740FCD5
:10A5300010230AE0FB681B68DC683B6A00933B68F9
:10A540007A68B968F868A047034618461437BD46CC
:10A5500090BD00BF4CA00300D49F0300888203007D
:10A5600040840300908203001C830300C482030024
:10A57000D882030024830300508303006883030010
:10A580008C83030090B587B002AFF860B9607A6041
:10A590003B60FB68002B10D13E4A3F4BD31ADB08CF
:10A5A0001B0443F001003D4A3D490E2300930B4636
:10A5B0003C49FCF7FDFB0E2368E0FB681B68002BA1
:10A5C00010D1344A344BD31ADB081B0443F001008A
:10A5D000354A3349082300930B463249FCF7E8FB20
:10A5E000082353E07B68002B10D12A4A2A4BD31A48
:10A5F000DB081B0443F001002C4A2949092300937E
:10A600000B462849FCF7D4FB09233FE0B968F868FA
:10A6100000F083F80346002B10D11E4A1E4BD31ABC
:10A62000DB081B0443F00100214A1D49102300935D
:10A630000B461C49FCF7BCFB102327E0FB685B685A
:10A640001B687A6802FB03F31A46B968F86800F0E1
:10A6500033F80346002B10D10E4A0F4BD31ADB08F8
:10A660001B0443F00100134A0D49102300930B46CD
:10A670000C49FCF79DFB102308E0FB681B681C6974
:10A680003B687A68B968F868A047034618461437EB
:10A69000BD4690BD4CA00300D49F030088820300F8
:10A6A0005484030090820300C4820300D882030014
:10A6B000B4830300DC83030080B485B000AFF8608E
:10A6C000B9607A60FB68DB68BA689A4209D3BA68F5
:10A6D0007B6813445A1EFB681B699A4201D8012308
:10A6E00000E0002303F00103DBB218461437BD4637
:10A6F0005DF8047B704780B483B000AF78607B68FE
:10A7000003F00303002B0CBF01230023DBB2184628
:10A710000C37BD465DF8047B704780B483B000AF52
:10A72000786039607B685B681B685A1E3B68134021
:10A73000002B0CBF01230023DBB218460C37BD46AB
:10A740005DF8047B704729DF704700BF184628DF9B
:10A75000704700BF184680B588B000AF7860396098
:10A760007B681B689B68002B35D007F1080300222B
:10A770001A605A609A60DA601A615A613B68FB603D
:10A780007B689B68FB617B681B79002B02D0012BE7
:10A790000CD018E001233B727B681B693B617B682E
:10A7A000DB687B617B685B69BB610CE002233B7209
:10A7B0007B68DB684FF4805202FB03F33B617B68EC
:10A7C0005B69BB6100BF7B681B689B6807F108027F
:10A7D0001046984700E000BF2037BD4680BD80B5D9
:10A7E00086B000AF78607B685A697B689B69D31A32
:10A7F000B3F5805F28BF4FF480537B6104227B69EF
:10A80000B3FBF2F3012B38BF01237B617B681A692C
:10A810007B689B6913443B617B68DB681A467B68F5
:10A820009B691344FB607A69F9683869FFF78BFF0D
:10A83000034618461837BD4680BD80B582B000AFCC
:10A8400078607B68DA687B681B6913441846FFF7F9
:10A850007EFF034618460837BD4680BD80B500AF71
:10A86000034B04491846FEF7B1FC00BF80BD00BF92
:10A87000EC3500201436002080B500AF084B0949A4
:10A880001846FEF789FC0346074A1360064B1B680F
:10A89000002B14BF01230023DBB2184680BD00BF8C
:10A8A000EC350020143600201036002080B582B030
:10A8B00000AF2B4B1B7A002B0BD1FFF7DDFF0346BC
:10A8C00083F00103DBB2002B03D0254B00225A603A
:10A8D00042E0234B02221A72224B1B681B79002B89
:10A8E00002D0012B07D00DE01E4B1B681846FFF766
:10A8F00076FF786009E01B4B1B681846FFF79DFF49
:10A90000786002E003237B6000BF7B68002B03D0EC
:10A910007B68112B0CD00FE0114B1B7C83F00103E3
:10A92000DBB2002B17D00021022000F087F912E0E3
:10A930000B4B01221A720FE00A4B1B6803211846C9
:10A94000FFF709FF064B00221A72054B00225A60DE
:10A95000FFF784FF00E000BF0837BD4680BD00BFA1
:10A96000FC3500201036002080B500AF0848FEF707
:10A97000D7FC0346002B08D1064B5B7C83F0010318
:10A98000DBB2002B01D0FFF791FF00BF80BD00BFFD
:10A9900000360020FC35002080B485B000AF786020
:10A9A0001C4B0022DA607B681B79002B02D0012B44
:10A9B00019D028E07B685A697B689B69D31AB3F584
:10A9C000805F28BF4FF48053FB607B689A69FB6807
:10A9D0001A447B689A617B689A697B685B699A42D2
:10A9E0000ED1012310E07B681B695A1C7B681A6139
:10A9F0007B681A697B685B699A4203D1012303E093
:10AA000000BF00E000BF002318461437BD465DF8C4
:10AA1000047B7047FC35002080B483B000AF7860C1
:10AA20000A4BDB680133094AD360084BDB68082B0B
:10AA300004D9064B0022DA60012300E00023184607
:10AA40000C37BD465DF8047B704700BFFC35002025
:10AA500080B582B000AF786039607B680C4A5A607C
:10AA60000C48FEF75DFC0346002B0BD105F09CFE65
:10AA700003461A46074B1A7407481C238C220749C1
:10AA8000FEF716FB002318460837BD4680BD00BF01
:10AA900068840300FC350020EC3500206035002080
:10AAA00080B582B000AF786039601422002106487A
:10AAB0000BF07EF8054B1846FEF72CFB00231846DA
:10AAC0000837BD4680BD00BFFC350020EC350020B6
:10AAD00080B586B000AFF860B9607A603B60194A13
:10AAE00007F1100319461046FEF727FB78617B69D2
:10AAF000002B01D1042320E01C22002178690BF0F7
:10AB000057F87B6900221A717B69FA681A607B69C1
:10AB10003A6A9A607B69BA681A617B697A68DA6016
:10AB20007B693A685A61074A07F1100319461046D3
:10AB3000FEF71DFBFFF718FF002318461837BD4628
:10AB400080BD00BFEC35002080B584B000AFF86058
:10AB5000B9607A603B60BB683A68194678680BF068
:10AB600019F8002318461037BD4680BD80B586B061
:10AB700000AFF860B9607A603B60194A07F11003D2
:10AB800019461046FEF7D9FA78617B69002B01D18E
:10AB9000042321E01C22002178690BF009F87B696D
:10ABA00001221A717B69FA681A607B693A689A60B7
:10ABB0004FF48052BB68B3FBF2F27B69DA607B69C9
:10ABC0007A685A61064A07F1100319461046FEF7E3
:10ABD000CEFAFFF7C9FE002318461837BD4680BDE0
:10ABE000EC35002080B483B000AF786039603B68FA
:10ABF00018460C37BD465DF8047B704780B483B0BF
:10AC000000AF78603960002318460C37BD465DF808
:10AC1000047B704780B483B000AF7860064B1B7A2A
:10AC2000002B14BF01230023DBB218460C37BD46AE
:10AC30005DF8047B704700BFFC35002080B584B010
:10AC400000AF786039607B68022B02D07B68032BF1
:10AC500044D1254B1B7A022B05D0022B31DC002B73
:10AC60003ED0012B2DE00023FB737B68022B03D029
:10AC70007B68032B08D00FE01C4B1B681846FFF7BE
:10AC80008BFE0346FB7307E0184B1B681846FFF763
:10AC9000C3FE0346FB7300BFFB7B002B10D0124B9F
:10ACA00000221A72114B1A687B68022B01D1002313
:10ACB00000E00D2319461046FFF74DFDFFF7CEFDCE
:10ACC00000BF094B5B7C83F00103DBB2002B02D099
:10ACD000FFF7ECFD05E005F04BFD02E000BF00E0F2
:10ACE00000BF1037BD4680BDFC3500201036002067
:10ACF00080B483B000AF03463960FB71074B01227B
:10AD00005A74064B1B7A002B0CBF01230023DBB2C5
:10AD100018460C37BD465DF8047B7047FC350020B3
:10AD200080B582B000AF03463960FB71FB79012B1F
:10AD300002D0FB79032B0CD1084B00225A74FB790B
:10AD4000012B0CBF01230023DAB2044B1A74FFF766
:10AD5000ADFD00BF0837BD4680BD00BFFC350020FB
:10AD600080B400AFBFF34F8F00BF064BDB6803F426
:10AD7000E0620449044B1343CB60BFF34F8F00BF25
:10AD800000BFFDE700ED00E00400FA0580B483B0E9
:10AD900000AF1D4B1B68B3F1FF3F0AD11B4B1B6873
:10ADA000DBB27B601A4B1B681B0903F00F033B608F
:10ADB00005E0154B1B687B60164B1B683B607B688E
:10ADC000062B19D13B68033B032B13D801A252F881
:10ADD00023F000BFE5AD0200E9AD0200EDAD0200D9
:10ADE000F1AD0200012308E0012306E0012304E0A5
:10ADF000012302E0012300E0002318460C37BD4682
:10AE00005DF8047B704700BF30010010E00F00F0D8
:10AE1000E80F00F03401001080B483B000AF174B8E
:10AE20001B68DBB27B60164B1B681B0903F00F032A
:10AE30003B607B68062B19D13B68033B032B13D87F
:10AE400001A252F823F000BF59AE02005DAE02002D
:10AE500061AE020065AE0200012308E0002306E0B7
:10AE6000002304E0002302E0002300E00023184652
:10AE70000C37BD465DF8047B704700BFE00F00F063
:10AE8000E80F00F080B483B000AF1D4B1B68B3F136
:10AE9000FF3F0AD11B4B1B68DBB27B601A4B1B6860
:10AEA0001B0903F00F033B6005E0154B1B687B603B
:10AEB000164B1B683B607B68062B19D13B68033B34
:10AEC000032B13D801A252F823F000BFDDAE02001D
:10AED000E1AE0200E5AE0200E9AE0200012308E0A7
:10AEE000012306E0012304E0012302E0012300E046
:10AEF000002318460C37BD465DF8047B704700BF41
:10AF000030010010E00F00F0E80F00F034010010F5
:10AF100080B483B000AF174B1B68DBB27B60164B6D
:10AF20001B681B0903F00F033B607B68062B19D1DC
:10AF30003B68033B032B13D801A252F823F000BF58
:10AF400051AF020055AF020059AF02005DAF0200E1
:10AF5000012308E0002306E0002304E0002302E0D0
:10AF6000002300E0002318460C37BD465DF8047B43
:10AF7000704700BFE00F00F0E80F00F080B483B02E
:10AF800000AF1D4B1B68B3F1FF3F0AD11B4B1B6881
:10AF9000DBB27B601A4B1B681B0903F00F033B609D
:10AFA00005E0154B1B687B60164B1B683B607B689C
:10AFB000062B19D13B68033B032B13D801A252F88F
:10AFC00023F000BFD5AF0200D9AF0200DDAF020011
:10AFD000E1AF0200012308E0012306E0012304E0C1
:10AFE000012302E0012300E0002318460C37BD4690
:10AFF0005DF8047B704700BF30010010E00F00F0E7
:10B00000E80F00F03401001080B483B000AF174B9C
:10B010001B68DBB27B60164B1B681B0903F00F0338
:10B020003B607B68062B19D13B68033B032B13D88D
:10B0300001A252F823F000BF49B002004DB0020057
:10B0400051B0020055B00200012308E0002306E0E1
:10B05000002304E0002302E0002300E00023184660
:10B060000C37BD465DF8047B704700BFE00F00F071
:10B07000E80F00F080B483B000AF174B1B68DBB261
:10B080007B60164B1B681B0903F00F033B607B685A
:10B09000062B19D13B68033B032B13D801A252F8AE
:10B0A00023F000BFB5B00200B9B00200BDB002008D
:10B0B000C1B00200012308E0002306E0002304E001
:10B0C000002302E0002300E0002318460C37BD46B1
:10B0D0005DF8047B704700BFE00F00F0E80F00F060
:10B0E00080B483B000AF1D4B1B68B3F1FF3F0AD1A2
:10B0F0001B4B1B68DBB27B601A4B1B681B0903F000
:10B100000F033B6005E0154B1B687B60164B1B680B
:10B110003B607B68062B19D13B68033B032B13D89C
:10B1200001A252F823F000BF39B102003DB1020084
:10B1300041B1020045B10200002308E0002306E00F
:10B14000012304E0012302E0012300E0002318466C
:10B150000C37BD465DF8047B704700BF300100101E
:10B16000E00F00F0E80F00F03401001080B483B06D
:10B1700000AF1D4B1B68B3F1FF3F0AD11B4B1B688F
:10B18000DBB27B601A4B1B681B0903F00F033B60AB
:10B1900005E0154B1B687B60164B1B683B607B68AA
:10B1A000062B19D13B68033B032B13D801A252F89D
:10B1B00023F000BFC5B10200C9B10200CDB1020049
:10B1C000D1B10200012308E0012306E0012304E0DD
:10B1D000012302E0012300E0002318460C37BD469E
:10B1E0005DF8047B704700BF30010010E00F00F0F5
:10B1F000E80F00F03401001080B483B000AF1D4BA5
:10B200001B68B3F1FF3F0AD11B4B1B68DBB27B60AD
:10B210001A4B1B681B0903F00F033B6005E0154B3D
:10B220001B687B60164B1B683B607B68062B19D143
:10B230003B68033B032B13D801A252F823F000BF55
:10B2400051B2020055B2020059B202005DB20200D2
:10B25000012308E0012306E0012304E0012302E0CA
:10B26000012300E0002318460C37BD465DF8047B3F
:10B27000704700BF30010010E00F00F0E80F00F051
:10B280003401001080B483B000AF154B1B687B60A5
:10B29000144B1B683B607B68062B19D13B68033B52
:10B2A000032B13D801A252F823F000BFBDB2020055
:10B2B000C1B20200C5B20200C9B20200002308E018
:10B2C000002306E0002304E0012302E0012300E064
:10B2D000002318460C37BD465DF8047B704700BF5D
:10B2E000300100103401001080B400AF034B044A59
:10B2F0001A6000BFBD465DF8047B7047E82D002052
:10B300000090D00380B500AFFFF740FD0346002B4F
:10B3100006D0B84B1B681B0AB74A03F01F03136023
:10B32000FFF77AFD0346002B02D0B44BB44A1A60F3
:10B33000FFF7A8FD0346002B06D0B24B1B685B0B42
:10B34000B14A03F007031360FFF7E2FD0346002B49
:10B3500005D0AE4BDB68AD4A23F08073D360FFF7B6
:10B360000DFE0346002B0ED04FF080430022C3F8A1
:10B370000C214FF080430022C3F810214FF080438E
:10B380000022C3F83825FFF73FFE0346002B02D00A
:10B390009F4B03221A60FFF76DFE0346002B0BD074
:10B3A0009C4B05221A609C4B01221A609B4B002289
:10B3B0001A609B4B3F221A60FFF792FE0346002B58
:10B3C00076D04FF08053974AD3F80434C2F8203532
:10B3D0004FF08053934AD3F80834C2F824354FF025
:10B3E0008053904AD3F80C34C2F828354FF080537C
:10B3F0008C4AD3F81034C2F82C354FF08053894A68
:10B40000D3F81434C2F830354FF08053854AD3F85E
:10B410001834C2F834354FF08053824AD3F81C34C4
:10B42000C2F840354FF080537E4AD3F82034C2F83A
:10B4300044354FF080537B4AD3F82434C2F8483562
:10B440004FF08053774AD3F82834C2F84C354FF088
:10B450008053744AD3F82C34C2F850354FF08053DF
:10B46000704AD3F83034C2F854354FF080536D4AE7
:10B47000D3F83434C2F860354FF08053694AD3F8BA
:10B480003834C2F864354FF08053664AD3F83C3400
:10B49000C2F868354FF08053624AD3F84034C2F89E
:10B4A0006C354FF080535F4AD3F84434C2F870359E
:10B4B000FFF75CFE0346002B05D05B4B1B685B4A25
:10B4C00003F04F031360FFF797FE0346002B0DD0E8
:10B4D0004FF08043D3F8003403F00103002B05D074
:10B4E0004FF080436FF00102C3F80024FFF7CAFE5B
:10B4F0000346002B05D04E4B1B684D4A43F4806336
:10B5000013604C4BD3F888304A4A43F47003C2F8B6
:10B510008830BFF34F8F00BFBFF36F8F00BF4FF076
:10B520001023D3F80C3203F00103012B25D1424B39
:10B530000122C3F8042500BF3F4BD3F80034002B91
:10B54000FAD04FF01023D3F80C324FF0102223F032
:10B550000103C2F80C3200BF374BD3F80034002B84
:10B56000FAD0354B0022C3F8042500BF324BD3F884
:10B570000034002BFAD0FFF7F3FB4FF01023D3F881
:10B580000032002B05DB4FF01023D3F80432002BE0
:10B590002BDA294B0122C3F8042500BF264BD3F830
:10B5A0000034002BFAD04FF010231522C3F80022EC
:10B5B00000BF214BD3F80034002BFAD04FF01023FA
:10B5C0001522C3F8042200BF1B4BD3F80034002B14
:10B5D000FAD0194B0022C3F8042500BF164BD3F84C
:10B5E0000034002BFAD0FFF7BBFBFFF77DFE00BF56
:10B5F00080BD00BF240300104035014074C00740E7
:10B600000DF0ADBA440200103C050040F0ED00E042
:10B61000A0050040105600408856004018560040D3
:10B620001456004000C0004058020010E40E0040D4
:10B630003C17004000ED00E000E0014080B483B022
:10B6400000AF0346FB7197F90730002B12DBFB7943
:10B6500003F01F020A4997F907305B09012000FA3D
:10B6600002F2203341F82320BFF34F8F00BFBFF316
:10B670006F8F00BF00BF0C37BD465DF8047B70477D
:10B6800000E100E080B400AF064BD3F80034002B9B
:10B6900014BF01230023DBB21846BD465DF8047BCE
:10B6A000704700BF0000014080B500AF05F07CF896
:10B6B000034683F00103DBB2002B03D109497B2051
:10B6C00009F0F2F9FFF7DEFF034683F00103DBB276
:10B6D000002B04D000F06AFB034B00229A7000BFDD
:10B6E00080BD00BF9C8403001836002080B582B066
:10B6F00000AF00237B60184B1B78002B02D0852302
:10B700007B601CE0144B00229A60134B00225A60AD
:10B71000114B00221A61104B0022DA600F4800F032
:10B7200005FB786005F040F8034683F00103DBB2C7
:10B73000002B01D000F024FB074B01221A70FFF709
:10B74000A1FF0346002B02D0034B01229A707B68B5
:10B7500018460837BD4680BD1836002039B80200AB
:10B7600080B485B000AF78607B681B68FB60FB68C5
:10B77000002B03D0FB681A687B681A60FB681846C8
:10B780001437BD465DF8047B7047000080B582B079
:10B7900000AF154B1B78002B04D1144940F2171051
:10B7A00009F082F9104BDB68002B04D10F494FF4EC
:10B7B0008C7009F079F90023FB71FB1D1846FCF72A
:10B7C00067FE094BDB68013B074AD360064BDB6829
:10B7D000002B01D1FFF768FFFB791846FCF76EFEDE
:10B7E00000BF0837BD4680BD183600209C8403008A
:10B7F00080B584B000AF0346FB71FB79002B02D10A
:10B800000B4BFB6001E00B4BFB60F868FFF7A8FFF8
:10B81000B860BB68002B05D0BB685B68FA7910463E
:10B820009847F2E700BF00BF1037BD4680BD00BF9C
:10B83000203600202836002080B582B000AF0346B5
:10B84000FB71FB79002B05D1094B01225A700020B6
:10B85000FFF7CEFFFB79012B05D1054B01229A7032
:10B860000120FFF7C5FF00BF0837BD4680BD00BF00
:10B870001836002080B582B000AF786039607B68F0
:10B88000002B05D1044B01225A700020FFF7B0FFB6
:10B8900000BF0837BD4680BD1836002080B584B093
:10B8A00000AF03463960FB71FB79032B27D0032BD4
:10B8B00033DC002B02D0012B04D02EE00020FFF758
:10B8C000BDFE2BE00023FB7307F10F031846FCF7C6
:10B8D000DFFD144B1B7883F00103DBB2002B01D09A
:10B8E000FFF704FF0F4BDB6801330E4AD3600D4BAB
:10B8F00001229A70FB7B1846FCF7E0FD0EE0094B35
:10B900001B78002B04D1084940F2522009F0CCF8F2
:10B9100000F036FAFFF73AFF00E000BF00BF103733
:10B92000BD4680BD183600209C84030080B588B0D9
:10B9300000AF786039603B68FB617B681B783B73C4
:10B940007B685B683B617B689B68DBB23B757B68AF
:10B95000DB68BB61074AFB6952F823300649FA6984
:10B9600051F8221007F10C021046984700BF20370B
:10B97000BD4680BD2C3600203036002080B588B012
:10B9800000AF786039603B68FB617B681B783B7374
:10B990007B685B683B617B689B68DBB23B757B685F
:10B9A000DB68BB61074AFB6952F823300649FA6934
:10B9B00051F8221007F10C021046984700BF2037BB
:10B9C000BD4680BD2C36002030360020B0B58EB08C
:10B9D00000AFF860B9607A60FB681B783B63294967
:10B9E0003B6B7A6841F82320BB681A6926493B6B98
:10B9F00041F82320BB685B7F1946244A3B6B134404
:10BA00000A461A70BB6807F110041D460FCD0FC41B
:10BA100095E80F0084E80F003B6B3B6200237B63DB
:10BA2000FB681B781A46194B9B5C002B0ED0FB68F9
:10BA3000181D7B68002B01D0154A00E0002207F199
:10BA40001003194602F0EAFC786315E0FB681B78E6
:10BA50001A460E4B9B5C002B0ED1FB6803F10C00C9
:10BA60007B68002B01D00B4A00E0002207F1100395
:10BA7000194601F0E7FD78637B6B18463837BD4601
:10BA8000B0BD00BF2C36002030360020A44E002070
:10BA90002DB902007DB9020080B483B000AF034627
:10BAA000FB7197F90730002B0BDBFB7903F01F02CA
:10BAB000074997F907305B09012000FA02F241F8C3
:10BAC000232000BF0C37BD465DF8047B704700BFE4
:10BAD00000E100E080B483B000AF03463960FB7141
