:020000022000DC
:1060000000000120BD620200E5620200BD45030000
:10601000E9620200EB620200ED6202000000000093
:10602000000000000000000000000000EF6202001D
:10603000F162020000000000F3620200F56202005B
:10604000A9080300F762020035040300F7620200AA
:10605000F7620200F762020041040300B906030080
:10606000F7620200F7620200F7620200F7620200C4
:10607000F762020009040300F7620200F7620200FF
:10608000F7620200F1450300F7620200F7620200C6
:10609000F7620200F7620200D9030300F762020010
:1060A000F7620200F7620200F7620200F762020084
:1060B000F7620200F762020000000000000000002A
:1060C000F7620200F7620200F7620200F762020064
:1060D000F7620200F7620200F762020000000000AF
:1060E00000000000000000000000000000000000B0
:1060F00000000000000000000000000000000000A0
:10610000000000000000000000000000000000008F
:10611000000000000000000000000000000000007F
:10612000000000000000000000000000000000006F
:10613000000000000000000000000000000000005F
:10614000000000000000000000000000000000004F
:10615000000000000000000000000000000000003F
:10616000000000000000000000000000000000002F
:10617000000000000000000000000000000000001F
:10618000000000000000000000000000000000000F
:1061900000000000000000000000000000000000FF
:1061A00000000000000000000000000000000000EF
:1061B00000000000000000000000000000000000DF
:1061C00000000000000000000000000000000000CF
:1061D00000000000000000000000000000000000BF
:1061E00000000000000000000000000000000000AF
:1061F000000000000000000000000000000000009F
:1062000010B5054C237833B9044B13B10448AFF3F0
:1062100000800123237010BDF82D00200000000035
:10622000A89B030008B5034B1BB103490348AFF318
:10623000008008BD00000000FC2D0020A89B03008A
:10624000A3F5803A704700BF174B002B08BF134BD4
:106250009D46FFF7F5FF00218B460F461348144A71
:10626000121A0FF0BFFC0E4B002B00D098470D4BBD
:10627000002B00D098470020002104000D000D489D
:10628000002802D00C48AFF300800FF06BFC200018
:1062900029000BF029F90FF051FC00BF00000800A5
:1062A000000000000000000000000120F82D002088
:1062B000303E002000000000000000000649074AB0
:1062C000074B9B1A03DD043BC858D050FBDC0AF097
:1062D00025FBFFF7B9FF00001C9D0300202D0020C7
:1062E000F82D0020FEE7FEE7FEE7FEE7FEE7FEE70B
:1062F000FEE7FEE7FEE7FEE770B50A4B0678456865
:1063000003EB810253F821105268D0E9024384B0B4
:1063100068468DF8006001958DF80840039390471A
:1063200004B070BD182E0020114910B4A1F594726C
:1063300005E052F83330984238BF21460CD28C1A0F
:10634000E30F03EBE4035B10914202EBC304F0D8CC
:1063500007485DF8044B704702D904F10802EEE7E4
:106360006068034B5DF8044B002808BF184670476F
:10637000988D03002DE9F04F1E46B5B04C884D783E
:106380000191F1880991019996F801C0029605944E
:106390007479D68891F805800C96CE88D18A1091B0
:1063A000029906950978558A03911178B2F802A0EE
:1063B0005B88577892F8059092F815E0089504915B
:1063C000557C0E96019E92F814B03178029E07918A
:1063D000117C0A9131790B9111790D9101994CEA57
:1063E000032C059B09790F911946069B43EA012668
:1063F000089B45EA0325099B44EA03240C9B49EAD0
:1064000003290E9B48EA0328109B4EEA032E039BA8
:1064100043EA0C230993049B47EA0A2743EA07212E
:10642000079F049147EA06210A9F0E4647EA052185
:106430000D9F0B9D089147EA092145EA0425069125
:106440000F9C099B2493069B0D9544EA08212995EE
:10645000049C029D2693019B2594089C95F809C0F5
:106460002F944BEA0E2B5C7AB5F80AE05D89537ED7
:106470000A93029BB2F80E900E912B91D9895789FD
:10648000B2F81A8093F80DA00C962A960391567ACA
:10649000CDF8C0B0CDF8149092F80D900199C9894B
:1064A0000B910199497B0F91D18B1191517F1291E1
:1064B000197A0291197B07910A9B019943EA0828EE
:1064C0004CEA0E2C137B91F808E0097B109146EA08
:1064D0000726117E177A0A93137F039A13934AEAC9
:1064E000022A059A0F9B49EA02290B9A43EA0223E2
:1064F000129A44EA05241546119A45EA0222029DA1
:1065000045EA0C2C6546CDF848C047EA062C41EA1E
:10651000082601960A9E0799CDF814C0674646EAF8
:1065200009294EEA042C109E2797644641EA0A2C5A
:106530006146CDF844C046EA032C139B019F2C947E
:1065400043EA022331970F94DDE926671C46329314
:10655000DDE92423CDF8A090CDE91423CDE9166719
:10656000DDE92823DDE92A672E95CDF8B4C0CDE911
:106570001823CDE91A67DDE92C23DDE92E67CDE983
:106580001C233391DDE93023CDF82CC0CDE91E6703
:10659000DDE93267DDF82480DDF834E00A90CDE9EA
:1065A0002023CDE922670291142726460E9A0C99E2
:1065B0000B980F9B089C0797C2460395F046049FD3
:1065C0000AEB0B0C3D4689EA7C670AEB070C049743
:1065D00067468E46A44683EAF754DDE90413DDF8E6
:1065E0001890069427460C198BEAF4440594039CF2
:1065F000029908957444614486EA7464029E83EAB1
:10660000716B08EB0501039D80EA71615E441046E1
:1066100080EAF6502B19019D019008EB010285EAF2
:10662000F252089E019D89EAF35301EB020986EAC2
:10663000F949E0180BEB05068EEAF0408CEAF646C5
:1066400002EB090E88EABE3805EB060E039D03EB4C
:10665000000C85EABC35BC46059F0395BC44029FEF
:1066600087EABE370297079F013F8AEABC3A07973D
:10667000A5D1AC463E9D0894C646D046B246002DF4
:1066800030D0DDE919671B9D1E9C0F441C991544F1
:106690001944239A029B1A44149B98440C9BFF1A9A
:1066A0000D9B7644F61A0E9BED1A129BA444ACEB9C
:1066B000030C0F9B1D9CC91A119BD21A0B9B2044E3
:1066C000C01A099BA8EB03080A9B1F615E605D610D
:1066D000C3F808C09961DA60D861C3F8008035B0AA
:1066E000BDE8F08FDDE91476049C169D2644069CD7
:1066F0002C440A9D47442F60A046059F179C6E605E
:106700002744199CC5F80880EF60A6442C461A9DC2
:10671000189EC4F814E06F181C9D1B992B441D9DF6
:10672000236228441E9D4E4405EB0C09089D2661FA
:10673000AC461F9DAC44209D8E1805EB0B0E019AB4
:10674000219D22992A449046029D239A51442A442D
:10675000C4E906766062C4E90A9CC4E90CE8C4E9AD
:106760000E1235B0BDE8F08F2DE9F04FADB0557980
:10677000B1F80280B2F802B04F7892F801A0039508
:106780000D78D388CC880095157C567D02934AEA13
:106790000B2A059447EA082B548991F80480177D49
:1067A00001951579B2F812E092F811C091F80590B0
:1067B000D38A07960994567A1478CDF818800897EA
:1067C0000495029F039D92F8088045EA0725059FDE
:1067D00049EA0729079F47EA0323099F46EA072654
:1067E000009F4CEA0E2C47EA0B2E019FCDF828E0C3
:1067F00047EA0C2C049FCDF82CC047EA0525069FDC
:10680000B1F80AB0039547EA092C089FDFF86092B7
:10681000CDF814C048EA062647EA032308930496F5
:106820000B9B0F968F4E0A9F179344EA0A24089BEE
:106830000C968D4E12970E954F7ACDF84CC018934A
:10684000B1F80EC011960D94CDF8589091F80DE066
:10685000B2F80EA092F80D800D7A167B0B7B47EAFA
:106860000B2B4EEA0C2148EA0A2843EA0123B2F82E
:106870001AC0577ED18B92F81CE0069345EA0B2B89
:1068800046EA0828567FCDF84080CDE914B3157E3E
:1068900046EA012147EA0C22DDE9106745EA0225B4
:1068A000DDE91423CDE92067DDE90E67CDE9242376
:1068B000DDE90C23CDE91E67DDE91667CDE91C2370
:1068C0001995DDE91223CDE92667DDE91867CDE9E1
:1068D00022234EEA012A654A1B92CDF868A0CDE931
:1068E0002867DDE91A6709905F48DFF878C10292EE
:1068F000CDE90009DDE90A20CDE92A67089B1426C5
:106900000796E6460EEB0307264688EA77640EEB09
:10691000040907460299DDF80C8008968BEAF950C5
:1069200094460390049A201801EB070983EAF04388
:106930000199049382EA79633246009EDDF814904F
:1069400001EB0C008AEA70603244069E01EB000BFA
:10695000009986EA7262029E114488EAFB5B85EA2E
:10696000F155B0462946089E0595984489EAF855A0
:1069700002EB010800EB0B098CEAF94C86EAF848B7
:10698000CDF818C0664601EB080C009981EABC31CD
:1069900003EB050A0091019987EAFA4A0BEB060717
:1069A00081EAB7370197DDE90371029E05EB0A0C16
:1069B0000F4486EABC310291079901398EEAB73E4D
:1069C00007919FD108931D9B1C9F1F9E0A921C44F8
:1069D000039BDDF814900199029AF44667449C46A3
:1069E0001E9B9C44099B86461F605C60C3F808C0E0
:1069F0000098219B049F209C1844099B3E44DE6024
:106A0000229B0A9E239F1E440096099E259B70612F
:106A100044443461249E2A9C06EB0B0C069E1E44C3
:106A20004F44B146269E3144279E089B7046304411
:106A3000804628982B9E0344299832442844009E7F
:106A4000099D5444C5E9077CAE61C5F82490A9624C
:106A5000C5F82C802B636863AC63EA632DB0BDE896
:106A6000F08F00BF657870616E6420337465206BB1
:106A7000322D62790B490C4A8B6812681A4112F068
:106A8000010F4FF0A04203F101034FF080600CBFF3
:106A9000C2F80C05C2F808050B2BC8BF00238B6099
:106AA000704700BF182E0020202D0020704700BF27
:106AB00062DF7047A3DF70479EDF70479DDF70473E
:106AC0009BDF70478FDF70478CDF70478BDF70472D
:106AD00076DF70473EDF70473CDF704733DF70473B
:106AE00031DF704770B5194DAC89EB899C4284B099
:106AF0001CD202461648ADF806108688ADF808404C
:106B00001B1B9E42C8BF9EB2124BADF80A601046D6
:106B1000042223440DEB02010393ADF80420FFF798
:106B2000C9FF08B93444AC8104B070BD002340F201
:106B30000512ADF8061001A9CDE90233EB81AB8156
:106B4000ADF80420FFF7B6FF04B070BD182E00208A
:106B5000202D0020282E0020A4DF70472DE9F04FC3
:106B6000FFB00B463F9040A93EA87CAE0024002514
:106B7000E0E902458642FBD11068299050682A90CE
:106B800090682B90D0682C9010692D9050692E90B1
:106B900090691B90D0692F90106A1C90506A3090B9
:106BA000906A1D90D06A3190106B1E90506B32909D
:106BB000906B1F90D06B3390106C2090506C349081
:106BC000906C2190D06C3590106D2290506D369065
:106BD000906D3790D06D3890106E3990506E3A901D
:106BE000906E2390D06E3B90106F2490506F3C902D
:106BF000906FD26F3E923D90DDE95CE85A9A189210
:106C00005B9A1992589A1692599A1792569A149218
:106C1000579A1592549A1392529A1292509A10922D
:106C2000519A11924E9A0E924F9A0F924C9A0C9240
:106C30004D9ADDF84CA1DDF854B10D924A9A0A92B2
:106C40004B9A0B92489A0892499A0992469A069250
:106C5000DDE94045479A0792449A0492459A059285
:106C6000CDE90045429A0292A3F1080C439ACDF86F
:106C7000948060AB03922893CDF868A0E04658F862
:106C8000083F2A98D8F8042003FB00F72998DDE98B
:106C9000009AA3FB004500FB02772C983D4403FBC0
:106CA00000F614EB09072B98269745EB0A0400FB26
:106CB00002662794A3FB00453544029E2D98039F4E
:106CC000A61900962E9E03FB06F600FB026645EB16
:106CD0000707A3FB00452F98019703FB00F71B98BC
:106CE00000FB027704983544309E14EB000C1C988E
:106CF0001B9CCDF808C003FB06F600FB0266059856
:106D000045EB00000390A3FB044506983D44319FEA
:106D100014EB000C1D981C9CCDF810C003FB07F76A
:106D200000FB0277079845EB0000A3FB04453544C0
:106D30000590329E089814EB000C1E981D9CCDF80F
:106D400018C003FB06F600FB0266099845EB00003D
:106D50000790A3FB04450A983D44339F14EB000CB5
:106D60001F981E9CCDF820C003FB07F700FB02779D
:106D70000B9845EB00000990A3FB04450C983544A3
:106D8000349E14EB000C20981F9CCDF828C003FB08
:106D900006F600FB02660D9845EB00000B90A3FB86
:106DA00004450E983D44359F14EB000C2198209C1F
:106DB000CDF830C003FB07F700FB02770F9845EBD7
:106DC00000000D90A3FB044510983544369E14EB4B
:106DD000000C2298CDF838C003FB06F600FB0266D3
:106DE000119845EB00000F90219C1A98A3FB0445D5
:106DF0003D44389F03FB07F9129FE719229C109727
:106E000045EB0000A3FB044535443A9E379F1190A3
:106E100003FB06FA139E3998A61945EB0B041A9446
:106E20003B9C129607FB0299A3FB07674F4403FBA9
:106E300004F9149C279D4D6034191394239C00FB86
:106E400002AC04FB0299A3FB0045269808603C981D
:106E5000DDE900AB654403FB00FC1598E1E902ABFA
:106E600047EB000B1698239F14EB000A2498CDF8EB
:106E700050A0A3FB07674F4400FB02CC8146179844
:106E800045EB000015901898A3FB094516EB000987
:106E9000CDF85890199847EB000017903E9F029844
:106EA0008860259803FB07F6654414EB0E0745EB55
:106EB00000003D9D19900398C86005FB026205988B
:106EC0004861A3FB0545049B07980B61069B8B61FA
:106ED000C861089B09980B6248620A9B0B988B62F9
:106EE000C8620C9B0D98189748630F6F0B630E9B3D
:106EF0008B63109B0B64119B0F984B641A9BC863A8
:106F0000CB641598139BC86517984866C1E9143B74
:106F1000486F189B8B6614EB070E199BCB661544C4
:106F200045EB0003C1E91CE32593289B129E8E6468
:106F30009942C1F858A0C1F860907FF4A0AEDDE995
:106F400062704FEA870C4FEA800E1CEB070C4EEA8A
:106F5000977E4EEB000E4FEA8E0E4EEA9C7E4FEA75
:106F60008C0CBCEB070CDDE964616EEB000E429803
:106F7000439F689BDDF8B0A11CEB0C0C4EEB0E0E92
:106F80001CEB00004EEB070E00908F00B000801944
:106F900047EA967741EB0707BF0047EA9077800002
:106FA000801BDDE966B267EB01074499459E001836
:106FB0007F41411802914FEA82004FEA8B0147EB73
:106FC000060640EA9B7011EB0B0142EB00000396B2
:106FD00080008E0040EA9170B6EB0B0160EB02007E
:106FE000469A699F491840EB00068A1804924FEAB6
:106FF0008702479F69994FEA830046EB070742EAF9
:107000009372C01841EB02029200810042EA907232
:10701000C81A699B6B9E059762EB03026A9B001876
:1070200042EB02019A00489BC31806934FEA86037D
:10703000499E7141DDE96E48DDE9705907916A9E0C
:107040006D9F921943EA96736B9E46EB03036A9E0B
:1070500091009B0043EA92738A1B6B9E63EB0603CD
:107060004A9E92185B4192196D9E08924FEA8602E1
:107070004B9E4FEA8A0143EB060642EA9A7211EBF5
:107080000A0142EB07039B008A0043EA9173B2EBCB
:107090000A0163EB07034C9F099649185B41CF191E
:1070A0004D990A974FEA84004FEA880243EB010C9E
:1070B00042EA9472001942EB08039B00820043EA03
:1070C0009073101B4E9A4F99CDF82CC063EB0803B8
:1070D00000185B41AE0010EB020C4FEA890242EA55
:1070E0009572CDF830C043EB010C761942EB0907DD
:1070F0003F99CDF834C0B300BF0047EA96771E46EB
:10710000C1F80CE0761B5099769CDDE9728267EB42
:107110000907B6197F4175180E95519D4FEA820AED
:107120004FEA880147EB05054AEA987A11EB080116
:107130000F954AEB02058E00AD00DDE97403529F06
:1071400045EA9175B6EB080165EB020549186D41FA
:1071500011EB070C5399CDF840C04FEA80064FEA77
:10716000830245EB010842EA9072361843EB0202B3
:10717000B1009200549D42EA96720E1A62EB03022D
:10718000B619524116EB050C779ECDF844C04FEA74
:107190008603559E4FEA840142EB0609779E599A71
:1071A000091943EA947343EB06008B00B3EB040C1C
:1071B0003F9B9E46009BCEF808304FEA8000779BAD
:1071C00040EA9170DDE9785760EB0300569B5799D0
:1071D0001CEB0C0C40411CEB030C4FEA850ECDF868
:1071E00000C04FEA870C40EB010B4CEA957C1EEB8C
:1071F000050E4CEB0701DDE97A464FEA8E00890067
:10720000589B41EA9E71B0EB050E61EB07011EEB46
:107210000E0E4941A0001EEB030E4FEA860341EB20
:10722000020C43EA9473001943EB060292008300B8
:10723000DDE97C1742EA90721C1B62EB06065A9A43
:107240005B9B2419764114EB020A4FEA87044FEA4C
:10725000810243EB0606521844EA917347EB03039D
:1072600094009B0043EA9273641ADDE9600563EBC6
:1072700007075C9B5D99419ACDF848A024197F418E
:10728000E31841EB07078400A900241841EA907134
:1072900045EB0101890041EA9471A400241A61EBD5
:1072A0000501409DDFF8F8A124194941641942EB1A
:1072B00001013F9AC2E9004102981061DDE95E01D7
:1072C000059CD461079C5462C2E91E01099C039885
:1072D0005061D46204980B9C546390610D9C069895
:1072E000D46357670F9C0A9F10620898C2F84C80BD
:1072F000C2F85490D66617635464C2F85CB0C2F802
:1073000064C090620C9890630E9810641198106598
:107310000098109F9065A2F1080512989764C2F832
:1073200060E0906613672E464FF000080295914684
:10733000F6E9022312F5803743F1000543460E2B90
:107340004FEA1744A3F10F0344EA054408F101088A
:10735000B3FA83F3D4BFC4464FF0000C4FEA254E76
:1073600014F1FF344FEA5313A3FB04124EF1FF3E16
:1073700003FB0E23CDE900120193DDE90001CA00F1
:107380000099C30042EA517201991B18C6E90075C1
:1073900041EB0202009909EBCC0C92004FEA830BFF
:1073A00042EA93721BEB01030199DCF8000041EB08
:1073B0000202DCF804101B1942EB0E02C31842EB68
:1073C0000101CCE90031D6E9003207EA0A07DF1BE8
:1073D00062EB0505B8F1100FC6E90075A8D1029D52
:1073E000DFF8BC80DDF8FC904FF0000CF5E90223DB
:1073F00012F5803643F1000463460E2B4FEA164225
:10740000A3F10F0342EA04420CF1010CB3FA83F337
:10741000D4BF674600274FEA244E12F1FF324FEAED
:107420005313A3FB02014EF1FF3E03FB0E13CDE904
:1074300000010193DDE900014FEAC10A0099C30090
:107440005B184AEA517A0199C5E900644AEB010ADE
:10745000009909EBC7074FEA8A0A4FEA830B4AEA09
:10746000937A1BEB0103019938684AEB010A7968AA
:107470009B184AEB0E0EC31841EB0E01C7E9003111
:10748000D5E9003206EA08069E1B62EB0404BCF153
:10749000100FC5E90064A9D17FB0BDE8F08F00BF2F
:1074A0000000FFFF2DE9F04FD04B4C78D3F8E0609F
:1074B000B3F8F4A093F8F69093F8F7E0D3E936C266
:1074C000ADF6C41DD3E939B70492D3F8EC2002928B
:1074D0000A7806961546D3F8F060CA780796002316
:1074E0001E46CDE9085616024A7900970023CDE9D9
:1074F0000A232402099B0A9A65194FF000088C7828
:107500000D9548EB03030E93434616EB04080E79E2
:10751000CDF83C804FF000054FEA02226B41002776
:1075200012EB06084FF0000242EB07061093CDF86D
:10753000448083960E9D0D9CCDF840470F9CCDF85E
:107540004847049CCB94069CCDF85467CDE9CC4BBE
:10755000029CCF94079CD094CC798E79CDF828C327
:107560000CF0F8028DF8282322029219009FCDF822
:107570004457CE97109D5A924FF000074FF00002EB
:107580000EF03F03CDF84C57CDF8508742EB07057E
:1075900091F80B804C7AADF844A343F0400391F886
:1075A00008A08DF846938DF847335B958F7A4FEAA4
:1075B00008254FF00008CDE90078240214EB0A04F6
:1075C000009F91F80D8012944FF0000B42EB0B06D8
:1075D0001446019A91F80CA01396EF1944EB020C93
:1075E000CE7BCDF854C04FEA0828224618EB0A0C8F
:1075F0004FF0000B91F80E804C7CCDF858C04FEA4C
:10760000062642EB0B0C91F810A0CDF870C14FF09C
:10761000000916EB080CCDF874C1CE7C91F81280ED
:10762000149742EB090C24024FF0000BCDF878C1FF
:1076300014EB0A0CCDF85CC04FEA062442EB0B0CAD
:107640004E7DCDF860C0002214EB080C4FF000090D
:107650000C7DCDF864C04FEA062642EB090C0025EC
:10766000CDF868C016EB040CCDF87CC142EB050CDC
:107670005B9D5A9ACDF880C1CDF85C57CDF858275C
:10768000139E129CCDF86047169CCDF87047199C4C
:10769000CDF88847CC7D91F81680159A149FCDF8C7
:1076A00064675D9E5E9DCDF86C27CDF86877179A6C
:1076B0005C9FCDF8786724025F9ECDF87477CDF893
:1076C0007C571A9F189DCDF88027CDF8906714EB52
:1076D00008024E7E91F818A0CDF88457CDF88C772B
:1076E000CDF894C76192CC7E91F81A80C9904FF082
:1076F00000024FF000094FEA062642EB09074FF05F
:10770000000B16EB0A064FEA042442EB0B051C960D
:1077100014EB08044E7F91F81CA01D944FF0000953
:10772000CC7F1B9794464FEA062642EB09021E9235
:10773000624616EB0A0C4FEA04268C7FCDF87CC01B
:107740004FF0000B42EB0B0C32196199CDF880C061
:10775000C2F30E0C1C9E6295CDF830C0CDF8981780
:107760004FF0000C1E99629D1D9C1B9FCDF808C216
:107770006246CDF8A0674FF0010CCDF8AC171F9E04
:107780002099CDF8A457CDF8A847CDF864C1CDF81D
:107790009C77CDF8B417CDF8B0670C9CCDF8B847FE
:1077A0000025FE24CDE98022CDE97E22CDE97C2290
:1077B000CDE97A22CDE97822CDE97622CDE974228D
:1077C000CDE97222CDE97022CDE94422CDE94222F1
:1077D000CDE94022CDE93E22CDF8BC2746926F92FA
:1077E000CDE93C22CDE9392202E000BF182E00206D
:1077F000CDE95722CDE93622CDE95422CDE9342214
:10780000CDE95222CDE96C22CDE95022CDE94E22BC
:10781000CDE94C22CDE930223B9238926E925692BD
:107820009B9233926B9232926A92CDE94A22CDE9D1
:107830006822CDE94822CDE90722CDE92C22CDE905
:107840006422CDE92A22CDE92722CDE92522CDE9FE
:107850002322CDE904452F9267920A9247922E92F5
:107860006692009206922992639291462192CDF8F7
:1078700088C09246049A0D990E9C219E02F0070240
:1078800043FA02F242F3000B599B229A584683EACC
:107890000107C117CDE902013B9824998AEA020C3D
:1078A000239A054656403C98259A65400F9C07EA66
:1078B0000B0783EA070E0CEA0B0C604089EA02040E
:1078C000039ACDF838E28AEA0C0E1540CDF818E29A
:1078D00032408E4626993D9B599200EA0B00109A41
:1078E00085908EEA010A3E9811995A4004EA0B03EA
:1078F000849380EA010327982999599C80EA010E14
:107900003B9981EA05082199CDF83C820E4686997B
:10791000664087960E468E9958467618B3964FEA7B
:10792000E071859E3C9880EA06088498CDF84082F4
:1079300089EA00083F98CDF820828046839802EAC1
:10794000010203EA0B060AEA0101409B3C9688EA21
:10795000000A28980EEA0B0E8046CDF884E0639862
:107960009E465A9B88EA000964988EEA03082A9B7F
:1079700083EA000E87988F9B40EB03043D9BB494F1
:107980001E46249B039C3E98564091961E46889B1B
:107990004E4089961E46909BF618B5963C9E09EA85
:1079A00004090AEA040ACDF8909080EA0609CDF8A5
:1079B000F4A0CDF848922798219B039E80EA030902
:1079C0004198CDF8289281465B98659B89EA000A28
:1079D0002B9880EA03094298129B08EA0B08CDF81D
:1079E000F88080EA030800983F9B0EEA0B0ECDF862
:1079F0009CE086462C988EEA000E89980446919861
:107A00004441B6941C463D9B24985C40289B93942B
:107A10001C468A9B444020461C46929BE418409B8F
:107A2000B79409EA0609CDF8A09099463E9B89EAE9
:107A300003092A9BCDF850929946279B0AEA060A29
:107A400089EA0309CDF8FCA0CDF82C92439BB090B5
:107A50009946139B89EA030A069B99462D9B89EA5E
:107A60000309449B0EEA0B0ECDF8A8E09E46149B3A
:107A700008EA0B08CDF800818EEA0308079B9E46B2
:107A80002E9B8EEA030E939B40EB0306419B40988E
:107A9000B8961C463F9B5C402B9B95941C46289BAC
:107AA0005C408B9B8C941C46949BE418B994DDE954
:107AB0000234429B0AEA040ACDF804A183EA000AD0
:107AC000009B2A98CDF858A283EA000A4598CDF881
:107AD00034A2824615988AEA000A0898169B064640
:107AE000669886EA0006469808EA0B08CDF80881F1
:107AF0000EEA0B0880EA030E0A98439B09EA040980
:107B0000744686462F988EEA000E419883EA00005C
:107B100097900398069B0AEA000A504683EA0903F5
:107B2000B246039E4393449BA4900AEA060ACDF80A
:107B3000ACA09A46429B8AEA030A079BCDF860A252
:107B400083EA080A459BCDF810A10EEA0B0E764693
:107B500083EA000E089BCDF864E29E462B9B9C9620
:107B60008EEA030E469BCDF814E104EA0B0A83EA81
:107B70000A0E0A9BCDF868E283EA060ECDF894A2BD
:107B8000CDF818E18C9B9598039C679E43EB000E03
:107B90006F9B5C98CDF8E8E283EA000E0EEA040ED3
:107BA000704683EA000E8D9BA69070469E46969B7B
:107BB000039C1EEB030E479BCDF8ECE283EA060E16
:107BC0000EEA040ECDF874E25D9C689E83EA0E0E08
:107BD000709BCDF81CE183EA040E0EEA0B0ECDF883
:107BE0009CE283EA0E0E489B744683EA060E0EEA78
:107BF0000B0ECDF8ECE03B9E83EA060E439BCDF8DE
:107C000020E19E46979B719E4EEB030E5E9BCDF846
:107C1000F0E286EA030E039B0EEA030E734686EA41
:107C2000030EA893449BCDF8BCE19E46989B499EC9
:107C30001EEB030E699BCDF8F4E286EA030E039B6C
:107C40000EEA030E734686EA030E9E93729E179BFE
:107C5000CDF824E186EA030E0EEA0B0E734686EA9F
:107C6000030EA9934A9E309BCDF8C0E186EA030E2D
:107C70000EEA0B0E734686EA030E9F93459BCDF8E2
:107C800028E19E46999B739E4EEB030E189BCDF800
:107C9000F8E286EA030E039B0EEA030E734686EAB9
:107CA000030EAA93469BCDF8C4E19E469A9B4B9E39
:107CB0001EEB030E319BCDF8FCE286EA030E039B1C
:107CC0000EEA030E734686EA030ECDF82CE1749E8D
:107CD000A093199BB19086EA030E0EEA0B0E734631
:107CE00086EA030EAB934C9E329BCDF8C8E186EA40
:107CF000030E0EEA0B0E734686EA030E479ECDF87E
:107D000030E146EB000E759E1A98CDF800E386EA46
:107D1000000E0398B2940EEA000E704686EA000E3A
:107D2000489ECDF8CCE116EB040E4D9C6A9ECDF832
:107D300004E384EA060E039EA1930EEA060E229B3C
:107D4000AC90764684EA060E5F98769CA29683EA0B
:107D50000C0CCDF800C084EA000C0CEA0B0C634656
:107D600084EA030CAD930D9B4E9CCDF8D0C183EA01
:107D7000070C339FCDF834C184EA070707EA0B0CE0
:107D8000CDF88CC2239F0E9B0F9884EA0C0C599C53
:107D9000CDF888C087EA040C499CCDF818C0A446E9
:107DA0006F9C779F4CEB040C4A9CCDF808C383EA88
:107DB000050CCDF838C1A446709C259D849B1CEB16
:107DC000040C609CCDF80CC385EA030C039DCDF830
:107DD0001CC087EA040404EA050C644687EA040C24
:107DE0006B9DAE94CDF8D4C14F9C039F844685987B
:107DF0008CEA000C84EA0500CDF864C100EA070CA7
:107E0000CDF810C2619F84EA0C0C789CCDF88CC030
:107E100084EA070000EA0B0C654684EA050C8595A8
:107E2000CDF8D8C1269B509C109D83EA010C6C991B
:107E3000CDF820C084EA010101EA0B0CCDF8E0C1C5
:107E400084EA0C0C3C9BCDF898C085EA020C119A90
:107E50004B99CDF83CC182EA030CCDF8F0C08C46BA
:107E60007199299A839D4CEB010CCDF810C394466F
:107E7000219A4C998CEA020CCDF828C08C46729954
:107E80001B9A1CEB010C7999CDF814C381EA02030B
:107E9000039A03EA020C624681EA020CAF923D9A11
:107EA0005199CDF8DCC185EA020C6D9ACDF8F4C089
:107EB00081EA0203039A03EA020CCDF8E4C181EAE5
:107EC0000C0CCDF884C07A991C9C639D249A3E9F2B
:107ED000CDF80CE281EA040485EA020C04EA0B0303
:107EE0005A9DCDF890C081EA030C349ACDF88CC12C
:107EF00085EA070C529F7A9387EA0203649DCDF8C6
:107F0000F8C003EA0B0CCDF868C187EA0C0C644694
:107F1000AC46279D739F5B9A22998CEA050C3F9D86
:107F2000CDF834C04EEB070CCDF818C382EA050C2F
:107F3000CDF8FCC08C467499659A289D1CEB010C09
:107F4000CDF81CC3DDE9020182EA050C7B9A629D33
:107F5000CDF894C082EA050A0AEA010A82EA0A0C0C
:107F6000CDF848C1129A409F139D82EA070C539F97
:107F7000359ACDF800C187EA020303EA010C2C9A76
:107F8000CDF86CC187EA0C0C2A9FCDF89CC082EA20
:107F9000070C7C9F1D9A3699CDF838C087EA0200FD
:107FA00000EA0B0387EA030C549F7B9387EA0103E3
:107FB000604603EA0B0C419A614687EA010CCDF852
:107FC000A0C085EA020C2D9D239ACDF804C185EA54
:107FD000090C759D149FCDF83CC042EB050C429AEC
:107FE000CDF8F0C187EA020C269ACDF8B4C09446C9
:107FF000769A2E9F64911CEB020CCDF820C387EA81
:10800000080CCDF840C07D9F1E9A379D1F9987EAC6
:108010000209DDE9022309EA030987EA090C559FF1
:10802000A49ACDF84CC187EA050808EA0308159D13
:1080300087EA080CCDF8A4C085EA020C7E9D2B9A35
:10804000CDF8B8C085EA010303EA0B0185EA010C0B
:10805000669DCDF850C185EA020C569A389DCDF840
:1080600044C082EA050606EA0B0C169FCDF894C1BF
:1080700082EA0C0CA59ACDF8A8C087EA020C2F9FC3
:108080009C9ACDF808C187EA020C219ACDF848C025
:108090009446779A209D4CEB020C7F9ACDF898C1BC
:1080A00082EA0507039D2F4082EA070CCDF854C1F0
:1080B0005C9AA69D579E5C9482EA050C639A9D9DEE
:1080C000CDF8BCC014EB020C679ACDF8F4C182EA7B
:1080D000050C9B9D6E9ACDF84CC085EA0203039A6D
:1080E00003EA020E85EA0E0CA79A5D9DCDF8ACC09E
:1080F00085EA020C809D0C9ACDF840C185EA020306
:1081000003EA0B0285EA020C689DCDF858C1AC4623
:108110003B9D8CEA050C399DCDF850C086EA0503DD
:1081200003EA0B0586EA050C5E9ECDF8B0C0B446A6
:10813000A89E8CEA060C279ECDF8ECC0B446529E51
:108140004CEB060C699ECDF878C1B4469E9E5D90BE
:108150008CEA060C289ECDF854C016EB000C179E36
:10816000CDF89CC1B446A99E8198039B039C8CEAE0
:10817000060C829ECDF844C180EA060606EA030397
:10818000309E80EA030CCDF85CC1B4469F9E58989F
:108190008CEA060C3A9ECDF858C080EA060606EA3C
:1081A000040C80EA0C0618980446AA9884EA000495
:1081B0002998309404465398444131985894044681
:1081C000A09844402A981794044654982418199863
:1081D00068940446AB9884EA0004319432980446CB
:1081E000A19884EA00042B981894044655984441B9
:1081F0002C9869940446569824181A987E9404463C
:10820000AC9884EA00046A9832940446A29884EAFE
:1082100000045798199404468E9846EB04046A9417
:1082200004468698241A8F987F940446879864EBB6
:1082300000049098809404468898241A9198819418
:108240000446899864EB00049298869404468A98C0
:10825000241A879493980446B09864EB0004949889
:10826000889404468B98241A9598899404468C988F
:1082700064EB000496988A9404468D98241A979883
:108280008B940446439864EB000498984394044606
:108290004498241A999844940446459864EB000441
:1082A0009A98459404464698241AB19846940446F0
:1082B000479864EB0004B298479404464898241AFF
:1082C0006F9848940446499864EB00044994709868
:1082D00004464A98241A71984A9404464B9864EBD1
:1082E000000472984B9404464C98241A73984C944A
:1082F0000446839864EB000474986F9404462298B3
:10830000241A759870940446239864EB00047698B8
:10831000719404462698241A7798729404462198FA
:1083200064EB00046398739404465C98241A529892
:108330005C940446279864EB00045D9852940446CC
:108340002898241A5D9453980446299864EB0004F5
:108350005498539404462A98201A549055980446E9
:108360002B9864EB00002B90569804462C98201A0A
:108370002C90579860EB06005590009E4D98301851
:108380005690069E4E98464157965998079E30182B
:10839000089E639030464F9E70410A9E749030460E
:1083A0003C9E8019249E759030463D9E704176908B
:1083B0000D9E30463E9E8019259E779030463F9E0A
:1083C00070410E9E83903446409EA4190F9E8C945B
:1083D0003046419E7041109E8D9034462D9E5F9890
:1083E000A4198E940446AD98119E84EA000026904C
:1083F00033980446A39884EA00001A902E9846EB1E
:1084000000003390129E4298341860985F9404469E
:10841000AE9884EA00046B9827940446849884EA12
:1084200000002190139E2F9846EB00046198609401
:1084300004468598149E60402890509834186C9893
:10844000619404467898159E84EA000022903B9837
:1084500046EB00041B986B940446AF98169E604050
:108460002990519834186D986C940446799884EA50
:1084700000001B907A9C1C9884EA0004179806461A
:10848000309846EB00006D90349806465A9870403C
:108490001C9018980646319830183490629880EAFB
:1084A0000A002A9019980646329846EB00005A9026
:1084B000359806465B98704023901A980646269891
:1084C000301835907B9E1D9886EA00063046219E26
:1084D000B246279E4AEB06065B96369EB246649EDF
:1084E0008AEA060A229ECDF874A0B246289E1AEBAC
:1084F000060A1E9ECDF8D8A086EA09091B9EB24640
:10850000299E4AEB060A379ECDF888A186EA08081C
:108510001C9E16EB040ACDF8DCA01F9E81EA060122
:108520001E9138998A4665998AEA010623998A46F6
:108530002A994AEB010A1D99CDF8E0A011EB000A37
:108540002099CDF890A187EA01076E9981EA0E0E75
:108550000C9982EA010239990C9285EA01051E996B
:1085600048EB090ACDF880A016EB010A8299CDF8F4
:10857000E4A083EA01033A991F934EEB070A81EACC
:108580000C0CCDF8E8A015EB020A0099CDF894A1E7
:108590004CEB030A4D9BCDF8B8A1B3EB010A4E9BFF
:1085A0000699CDF834A163EB010A599B0799CDF8E0
:1085B00038A1B3EB010ACDF864A14F9B08993F9A0B
:1085C00063EB010A3C9B0A99CDF83CA1B3EB010A8D
:1085D00024993D9BCDF8F0A063EB010A3E9BCDF8BA
:1085E00090A09A460D9BBAEB030A259BCDF8F4A008
:1085F00062EB030A409ACDF894A092460E9ABAEB29
:10860000020A419ACDF8F8A092460F9A6AEB020A44
:108610002D9ACDF8FCA09246109ABAEB020A2E9A37
:10862000CDF8B4A09246119A6AEB020A429ACDF8AC
:10863000B8A09246129ABAEB020A2F9ACDF800A17E
:108640009246139A6AEB020ACDF8BCA0509A924661
:10865000149ABAEB020A3B9ACDF804A19246159AF5
:108660006AEB020A519ACDF8ECA09246169ABAEB40
:10867000020A309ACDF808A19246179A6AEB020ACC
:10868000319ACDF8C0A09246189ABAEB020A329AF3
:10869000CDF8C4A09246199A6AEB020A269ACDF840
:1086A000C8A092461A9ABAEB020A279ACDF898A067
:1086B0009246219A6AEB020A289ACDF89CA092462B
:1086C000229ABAEB020A299ACDF8A0A092461B9AE8
:1086D0006AEB020A1C9ACDF8A4A0A41A239A924627
:1086E0002A9ACDF8E43462EB0A0A1D9A0D9BCDF864
:1086F000E034801A0F9B2A90CDF8EC341E980E9B24
:10870000CDF8E834119BCDF8F43469EB0809109BDF
:10871000CDF8F034801B139B1E900C981F9ACDF857
:10872000FC34129BCDF8F83467EB0E07159BCDF89F
:108730000435401B62EB0C02149B0C900DF5A960F4
:10874000CDF84424CDF8DC1402460146CDF80035BE
:108750000A98179BCDF8D804CDF80C35169BCDF8A8
:108760000835199BCDF81435189BCDF81035219B91
:10877000CDF81C351A9BCDF818351B9BCDF8243548
:10878000229BCDF82035239BCDF82C35CDF83865CC
:108790001C9B009ECDF84055069DCDF82835CDF8A0
:1087A000CC541D9B089DCDF8C864079ECDF83CE5D0
:1087B000CDF844C5CDF83485CDF83035CDF8D45456
:1087C000CDF8D064B89BCDF85C35BA9BCDF8643554
:1087D000BC9BCDF86C35BE9BCDF87435C09BCDF8F5
:1087E0007C35C29BCDF88435C49BCDF88C35C69BB7
:1087F000CDF894357C9BCDF89C35669BCDF8A4359F
:108800005E9BCDF8AC35589BCDF8B435699BB39ED3
:10881000B69DCDF8BC356A9BCDF84865CDF854556A
:10882000CDF8C4357E9BB79DCDF85855B99DCDF890
:108830006055BB9DB59ECDF8C035CDF868557F9B82
:10884000C19DCDF85065D293BD9E689BCDF88055F3
:10885000C39DCDF8B835CDF87065679BBF9ECDF848
:108860008855C59DCDF8B035CDF878657D9BC89EFF
:10887000CDF89055C79DCDF8A065CDF89855CDF8A9
:10888000A835B49B869DD595889DD7958A9DD99509
:10889000439DDB95459DDD95479DDF95499DE19580
:1088A0004B9DE3956F9DE595719DE795739DE995CA
:1088B000529DEB95539DCDF84C35ED95809B2B9DAE
:1088C000D393EF95559D819BD493879BD693899B9A
:1088D000D8938B9BDA93449BDC93469BDE93489B17
:1088E000E0934A9BE2934C9BE493709BE693729BCC
:1088F000E8935C9BEA935D9BEC93549BEE932C9BDB
:10890000F195F093569BCDF84834639BCDF85034E5
:10891000749BCDF85434759BCDF85834769BCDF8C4
:108920005C34779BCDF86034839BCDF864348C9BAA
:10893000CDF868348D9BCDF86C348E9BCDF87034B7
:10894000339BCDF874345F9BCDF87834609BCDF8C1
:108950007C34619B579ECDF880346B9BCDF84C6482
:10896000CDF884346C9BCDF888346D9BCDF88C3475
:10897000349BCDF890345A9BCDF89434359BCDF888
:108980009834389BCDF8AC34649BCDF8B034209B40
:108990005B9ECDF8B434399BCDF89C64CDF8B834E7
:1089A000369E3A9BCDF8A064CDF8BC34629E659BA0
:1089B000CDF8A464CDF8C034379E6E9BCDF8A86482
:1089C000CDF8C4344E9DF395249DF795259DF995DA
:1089D0003F9DFB952E9DFD952F9DFF953B9D4D9BAE
:1089E000CDF80454309DF293CDF80C54599B329D30
:1089F000F493CDF814544F9B279DF593CDF81C5458
:108A00003C9B299DCDF82454CDF82CA4CDF834946A
:108A1000CDF83C74F6933D9BF8933E9BFA932D9BC7
:108A2000FC93409BFE93419BCDF80034429BCDF8D4
:108A30000834319BCDF81034269BCDF81834289B90
:108A4000CDF820342A9BCDF830341E9BCDF8383435
:108A50000DF599600C9BCDF84034CDF82844FEF715
:108A60007DF8D2AA11460DF5B960FEF777F8D2AAC3
:108A700010460DF58961FEF771F80DF5A962F2A9AE
:108A80000DF58960FEF76AF8D59DDDF85474D29B28
:108A9000DDF84814D49ADDF8500406950897D69D61
:108AA000DDF85874D39CDDF84C6400920790D79A97
:108AB000DDF85C040A950D97DDF86054D89F0C92A0
:108AC00013EB010ED99A0E900F97DDF86404DA9F2C
:108AD0001195DDF86854109244EB060C1397159528
:108AE0001290DB9833933494009B079CDDF86C74F0
:108AF000DC9DDD9A14901697089817951F190A9D0A
:108B00000D9B1892069A0E9C369642EB0006ED18C5
:108B10000C980F9A119B359140EB0404D018109AD1
:108B2000129BCDF848E542EB0301159B139ACDF853
:108B30004CC5D218149BCDF850759846CDF85465A5
:108B4000169BCDF85855DE9ECDF860053046DDF811
:108B50007864CDF85C453446DF9ECDF8682535460F
:108B6000DDF87C64DDF88474CDF864153246E09E4F
:108B70001A9748EB0303CDF86C353346DDF8806473
:108B8000DDF888741D973146E19E1996E29EDDF866
:108B90008C741B96E39E1C961E97E49EDDF89074E1
:108BA0001F962197E59EDDF89474DDF874E4229712
:108BB0002096E69E2396E79E2496179EDDF89874ED
:108BC0002597B046DDF89C74DDF870642697189FF1
:108BD000379018EB060A47EB0E0910EB040845EB3B
:108BE00002073895DDE919505E18454139941D9802
:108BF0001B9C3A9224181C9A1E983B9342EB00004F
:108C0000219B1F9A3C91D118229B209ACDF870A5E8
:108C10005A41239BCDF874959C46CDF87885259BC9
:108C2000CDF87C75CDF88455CDF88845EA9DDDF802
:108C3000A844DDF8A07429952B94EB9DDDF8AC4495
:108C4000CDF88C051CEB0303DDF8B00428972A95BA
:108C5000E99FEC9D2C94ED9CCDF88065CDF8942592
:108C6000E89EDDF8B824CDF898352797EE9BDDF81F
:108C7000A4742D952F90DDF8B4542E94CDF8901552
:108C8000DDE9EF40DDF8C0143191F1993091DDF864
:108C9000C414329124998C4626994CEB010C2899E6
:108CA000CDF8F4C016EB010C2799CDF8F8C041EBD4
:108CB000070C2999CDF8FCC08C462B991CEB010CB4
:108CC0002A99CDF800C18C462C994CEB010C2D99BA
:108CD000CDF804C18C462F991CEB010C2E99CDF8D0
:108CE00008C141EB050CDDF8BC14CDF80CC113EB49
:108CF000020CCDF810C144EB010C3199CDF814C130
:108D000010EB010C3099CDF818C18C4632994CEB20
:108D1000010CCDF81CC133998C463599BCEB010C84
:108D20003499CDF8CCC08C4636996CEB010C009987
:108D3000CDF8D0C08C460799BCEB010C0699CDF854
:108D400000C08C4608996CEB010C0A99CDF818C04C
:108D50008C460D99BCEB010C0C99CDF81CC08C46CF
:108D60000E996CEB010C0F99CDF820C08C4611992F
:108D7000BCEB010C1099CDF828C08C4612996CEB15
:108D8000010C1399CDF830C08C461599BCEB010C41
:108D90001499CDF834C08C4616996CEB010C1799D8
:108DA000CDF838C08C46DDF87014BCEB01010F9192
:108DB000189961EB0E0E379988463999B8EB01087E
:108DC0003899CDF8408088463A9968EB010A3B997A
:108DD00088463C99B8EB01081999CDF8448088463B
:108DE0001A9968EB01091B9988461D99B8EB01088F
:108DF0001C99CDF8488088461E9968EB01081F9998
:108E00008C462199BCEB0101139120998C46229943
:108E10006CEB010C2399CDF850C08C462599BCEB26
:108E2000010C2499CDF854C08C4626996CEB010CAA
:108E30002899CDF858C0711A1791279961EB070747
:108E400029998C462B993D9ECDF89C65BCEB010C75
:108E50002A99CDF860C08C462C993E9ECDF8A0652D
:108E60006CEB010C2D99CDF864C08C462F993F9E78
:108E7000CDF8A465BCEB010C2E99409ECDF8A865F9
:108E800061EB0505419E3199CDF8AC659B1ADDF883
:108E9000BC24429ECDF8B06564EB0204439E329A36
:108EA000CDF8B465401A3099449ECDF8B86561EBB1
:108EB0000202459ECDF868C01B901C92CDF8BC659F
:108EC000469ECDF8C065479ECDF8C465339ED296C8
:108ED000349ED396069ED596089ED7960C9ED9961C
:108EE0000E9EDB96149EE596E997169E199FED95CA
:108EF000EF941C9D009CCDF874E3CDF87CA3CDF8D5
:108F00008493E796EB97F195CDF88C83D494079CE6
:108F1000D6940A9CD8940D9CDA94109CDE94119CF3
:108F2000E094129CE294139C189EE494D2AA159C9F
:108F30000F9DE6941146179CEA96F2A81A9EEE93AE
:108F40001B9BDC95E894EC96F093FDF707FEDDF8AB
:108F5000C865DDF8C824DDF8D874DDF8D044DDF844
:108F6000D4541697DDF8E474DDF8CC15DDF8CC04A4
:108F700047921494921BDDF8DC4415951997DDF89F
:108F8000E054DDF8E87417941646DDF8EC441895C3
:108F90001B97DDF8F054DDF8F474DDF8D035489017
:108FA0001C9460EB0100DDF8E0451E951F97DDF88D
:108FB000DC55DDF8D8751292DDF8D425CDF848647B
:108FC000149913900646CB1ACDF84C641599169E49
:108FD000DDF8E405009361EB020EF71B179EDDF848
:108FE000E815DDF8EC25009BCDF8503466EB05095B
:108FF000189D0697B5EB040A199CCDF8587464EBDC
:1090000000051B981C9C1A95411A64EB02004191C3
:10901000CDF86814DDF8F814DDF8F8251D90CDF8CA
:109020006454CDF86C04DDF8F455DDF8F005CDF8A6
:1090300054E4CDF85C94CDF860A42191DDF8FC15E2
:10904000DDF8FC442294DDF80445DDF80065259444
:10905000DDF8184524962D94DDF808651E9C2696AB
:10906000DDF810652996201ADDF81C652E96064657
:10907000CDF870641F9EDDF80C75279766EB05032D
:10908000219DDDF81475DDF80046DDF804C6DDF835
:109090000C662A97AD1A229A429062EB0102DDF823
:1090A0000806209323950792DDF81016249FCDF82B
:1090B00074343B1B259C089364EB0C03269C279F70
:1090C0000A93201A67EB0603299EDDF814562A9F9F
:1090D000DDF818262D9C0C93711A67EB05031E46CC
:1090E0002C93A31A079A239D089F0A9CCDF87C24F1
:1090F0000C9A28902B914493CDF87854CDF8807435
:10910000CDF88444CDF88804CDF88C24CDF89014A3
:10911000DDF81C26CDF89464CDF89834DDF82C15D4
:109120003391DDF834153591DDF83C153891DDF8D3
:1091300044153B912E99DDF82075DDF82046DDF8C9
:109140002405DDF82855309061EB02021346DDF866
:1091500024C63295CDF89C34DDF8305534953B1B50
:10916000309CDDF83855379564EB0C04DDF840553C
:10917000DDF83016DDF82806DDF82C6649973A95BB
:109180002F92DDF83456DDF8382631930D94329C59
:10919000349FCDF8A034201A0E903398DDF8444661
:1091A00060EB06067B1A35990F9661EB0507379D34
:1091B000DDF83C663899DDF840064A93AA1A3A9DD4
:1091C000369761EB060C3B99CDF840C02D1A61EB48
:1091D000040C0E980D9C0F9E10993992CDF8B03466
:1091E000CDF8B474CDF8B8243C95CDF844C0CDF892
:1091F000A444CDF8A804CDF8AC64CDF8BC14CDF8E7
:10920000C054CDF8C4C4009B069F0DF5C862002170
:109210000020E2E902010DF5E7618A42F7D10093EF
:10922000DDF858363E933C9B06974DF64137A3FB3D
:109230000745DDF8C016399F119BDDF8C466DDF8DF
:109240005026DDF8D0C6DDF8D486DDF8540679184E
:109250004DF6413707FB0355109B43EB06060919F2
:1092600045911299009B46EB05048A181399469480
:10927000A3FB074507FB0E5541EB000012194FEA0F
:109280008C014FEA880445EB000044EA9C7411EB22
:109290000C0144EB0804A40044EA91748900B1EB8A
:1092A0000C0C64EB08081CEB0C0C48EB080812EBE8
:1092B0000C0240EB08003D903E98DDF8D846DDF802
:1092C000DC56DDF85C1600921E18069BBC46A3FB1C
:1092D00007780CFB09884EEB0101A200F6194FEA52
:1092E000850348EB010143EA9473121945EB03032C
:1092F00090009B0043EA9273041B63EB050524195D
:109300006D41341941EB050EDDF8E036DDF86006FD
:10931000DDF864263E94CDF8FCE0DDF8E4460699DD
:109320000F181A98AAFB0C560CFB006149EB0202BD
:10933000781941EB02029D00A100ED1841EA9371FA
:1093400044EB0101AE00890041EA9571F31A61EB2B
:109350000404DB18419FDDF86856DDF8E866DDF8A7
:109360006C16644110EB030ECDF818E0DDF8EC0646
:1093700042EB040E1D9A1A9CCDF800E1A7FB0C8964
:109380001AEB05050CFB029944EB0101B20015EB49
:1093900008054FEA800349EB010143EA96739219ED
:1093A00040EB030394009B0043EA9273A61B63EB1C
:1093B0000000DDF87026DDF8F046DDF87436B619E9
:1093C000404115EB060ECDF868E041EB000EBA18EF
:1093D000429F2098DDF8F456CDF804E1A7FB0C89F4
:1093E0000CFB00991D984FEA850140EB030312EB3B
:1093F00008024FEA840049EB030341EA9471001923
:1094000045EB01018600890041EA9071341B61EB54
:109410000505DDF87806DDF8F866DDF87C16241918
:109420006D4112EB040ECDF874E043EB050E3818D5
:10943000239FDDF8FC46079D209ACDF808E1A7FBA5
:109440000C890CFB059942EB0101A30010EB08000D
:109450004FEA860249EB010143EA9673921944EB05
:10946000030395009B0043EA9273AE1B63EB040475
:10947000B619644110EB060EDDF80057DDF88026C2
:10948000DDF88436CDF880E041EB040E089C0A98A4
:10949000DDF80467CDF88CE0A4FB0C890CFB009987
:1094A0000798BA1840EB0303B10012EB08024FEA29
:1094B000850049EB030341EA9571401946EB010130
:1094C0008400890041EA9071651B61EB06066D1905
:1094D0007641DDF88846DDF80877DDF80C17DDF811
:1094E0008C0612EB050E089A289DCDF81CE043EB84
:1094F000060E14190C9ACDF80CE1A5FB0C890CFB97
:1095000002990A9ADDF8946642EB00008B0014EB96
:1095100008044FEA870249EB000043EA9773D21927
:1095200041EB030395009B0043EA9273EF1B63EB4F
:109530000101FF19494114EB070EDDF89036CDF813
:1095400020E040EB010E28982B99DDF81057DDF84C
:1095500014470C9A2C9FCDF828E0A1FB0C89C01869
:109560000CFB079942EB0606A30010EB08004FEA3C
:10957000850249EB060643EA9573521944EB03034F
:1095800091009B0043EA92734D1B63EB04046D1939
:10959000644110EB050EDDF898162B98CDF830E0FD
:1095A00046EB040EDDF81837DDF81C77DDF89C2655
:1095B000CDF8A0E0449E44182F98A6FB0C890CFB24
:1095C00000992C9840EB020214EB080442EB0905C9
:1095D0009800BA00C11842EA937247EB0202880071
:1095E000920042EA9172C31A62EB0707DB187F41CF
:1095F00014EB030E319CDDF8A026DDF82017DDF812
:109600002437DDF8A406CDF8ACE0A4FB0C8945EBCB
:10961000070E2F9C0D9DCDF8B0E0B2180CFB0599FC
:1096200044EB00009D0012EB08024FEA810449EB75
:10963000000045EA9175641843EB0505A600AD00EE
:10964000711A45EA947565EB030549186D4112EBF3
:10965000010EDDF8A846CDF8BCE040EB050E3198D0
:10966000DDF82867DDF82C770D9DDDF8AC360F9A14
:10967000CDF810E104190E98A0FB0C01E6460CFB96
:10968000021145EB030C24184FEA86054FEA8703C5
:109690004CEB010C43EA9673AD1947EB0303AA00A8
:1096A0009B0043EA9573951B63EB07036D195B41C0
:1096B0006419DDF8B0060D940E9C4A9DDDF8306704
:1096C000DDF83477DDF8B4164CEB030C2018369C2B
:1096D000A5FB0E9A0EFB04AA0F9C4FEA860244EBF0
:1096E000010110EB09004FEA87044AEB010144EA4B
:1096F0009674931947EB04049A00A400961B44EA5D
:109700009374DDF8B826DDF8BC36DDF83897DDF85F
:109710003CA764EB0704B619399F6441801941EBFB
:109720000404A918109AA7FB0E670EFB0277369A5D
:10973000754642EB03084FEA890E89194FEA8A02FF
:1097400048EB070842EA99721EEB090E42EB0A0247
:109750004FEA8E03920042EA9E72B3EB09093C9EE7
:10976000DDF8C83662EB0A0A19EB09094AEB0A0A66
:1097700011EB090148EB0A08DDF8CC26DDF8489624
:10978000DDF84CA6F318119E46EB020E4FEA8E024E
:109790009E00F61842EA937242EB0E029200B70066
:1097A00042EA9672129EFB1AA6FB0567139D62EBB6
:1097B0000E024DF6413E0EFB0577469DF195DB18F6
:1097C0003D9DD5955241409DD99516EB0909419D86
:1097D000DB9547EB0A0A13EB0903429D3F9FDD959A
:1097E00042EB0A02CDE9D232239D009AD492D79758
:1097F000DF95439DED943E9CD694069CD8941D9C89
:10980000DC94209CE195DE940A9D079CE395E0940E
:10981000289D0C9CE595E4942C9D2B9C1A9E089FFA
:10982000E795E694449D2F9CCDF8BC830DF5507EC2
:10983000E995CDF8ACC3DA96E297E8940D9CEE91E9
:109840004599EA9473467246EC90F0914FF0000807
:10985000F2E9020110F5803741F1000641460E2978
:109860004FEA1740A1F10F0140EA064008F1010854
:10987000B1FA81F1D4BFC4464FF0000C4FEA264E36
:1098800010F1FF304FEA5111A1FB00454EF1FF3EB0
:1098900001FB0E51CDE900450191DDE90045E100F4
:1098A000009C4FEAC509091949EA5479019C019DB8
:1098B000C2E9007649EB0409D2AC04EBCC0C009C65
:1098C0004FEA89094FEA810A49EA91791AEB0401C2
:1098D000DCF8004049EB0509DCF80450091849EBB5
:1098E0000E0E611845EB0E05CCE90015D2E900100B
:1098F0003F0C3F04CF1B60EB0606B8F1100FC2E926
:109900000076A5D14FF0000EF3E90201724610F582
:10991000803641F10005340C0E2AA2F10F0244EA10
:1099200005440EF1010EB2FA82F24FEA2541D4BF8E
:10993000F4464FF0000C520914F1FF3441F1FF38A6
:10994000A2FB040102FB0812CDE900010192DDE94E
:10995000009A51464A46CF00D20012EB090247EA6C
:10996000597741EB07074FEA8209BF00C3E9006559
:1099700047EA9277D2A94A46DDE9009A01EBCC0C7E
:1099800012EB0902DCF80000514647EB0101DCF85C
:109990000470121941EB0801821847EB0101CCE970
:1099A0000021D3E90021360C3604961B61EB050536
:1099B000BEF1100FC3E90065A6D1DDE9D9430793D5
:1099C000DB9B0893DC9B0A93DD9B0C93DE9B0D9342
:1099D000DF9B0E93E09B0F93E19B1093479B9C466C
:1099E000D29BDDE9D37013EB0C030093489B47EB4C
:1099F00003031F46149BDDE9D561C018159B46EB98
:109A000003031E46169BDDE9D752C918179B45EB89
:109A100003031D46189BD2180692199B1B9A44EB10
:109A200003031C46079B13EB020C089B1C9A43EB99
:109A3000020E0A9B1E9A13EB02080C9B1F9A43EB23
:109A400002090D9B219A13EB020A0E9A229B42EB0C
:109A500003030F9A07931346249A9A180892109BAF
:109A6000259A43EB0202009BCDE9D237069BCDE954
:109A7000DACECDE9D834CDE9D406CDE9D615CDE995
:109A8000DC89079BDF93089BCDF878A3CDE9E03212
:109A9000DDE9E9420092EB9A0692EC9A0792ED9A80
:109AA0000892EE9A0A92EF9A0C92F09A0D92DDE9E2
:109AB000E237F19A0E92269A9B18279ADDE9E4067E
:109AC00047EB02021746299ADDE9E61510EB020C76
:109AD0002A9A2D9846EB020216462E9A11EB000E9A
:109AE00045EB020249991546E89A12EB0108309AB3
:109AF000329944EB02021446009A12EB0109069ACD
:109B0000339942EB010A079A349951180091359A1A
:109B1000089941EB02020A990692084637994118C2
:109B200007910C98389940EB01010D980891024675
:109B30003A9810180A900E9A3B9842EB0000CDE933
:109B4000E4C6CDE9E2370C90CDE9E6E5CDE9E8845D
:109B5000069B009CEC940DF58961079CED93089B96
:109B6000EE9408460A9CEF93D2AA0C9BF193CDE9A0
:109B7000EA9AF094FCF7F2FF0DF5B9620DF59961E0
:109B8000D2A8FCF7EBFF0DF5E862F2A90DF599609C
:109B9000FCF7E4FF0DF5A9621146F2A8FCF7DEFF21
:109BA000D79DF49BD599DDF850C3F59CD69AF698CD
:109BB0000795D99DDDF848A3DDF8C893D89F069294
:109BC0000890CDE91014F79E0C970F932F464C4048
:109BD0008CEA03050899069BF8980A968AEA090216
:109BE0001290009283EA0100079A0A9BF99EDDF821
:109BF0004C83DDF8CCE3139682EA03010C9A129BA6
:109C000014975A40139B7B40009F07EA0B0700976D
:109C1000039F88EA0E063E4088EA06088EEA060E92
:109C200005EA0B050F9ECDF8EC808CEA050CCDF80B
:109C3000F0C086EA050C109DCDF83CC03C4085EA9A
:109C4000040C119DCDF8F4C0394085EA040C3B406A
:109C5000069C009FCDF840C000EA0B008AEA070A84
:109C600084EA000C009F089C079DCDF8F8C089EAA3
:109C7000070984EA000C0C9F0A9E1298CDF844C094
:109C800002EA0B0285EA010C149DCDF8FCC087EABC
:109C9000020C71404240CDF800C185EA030CCDF8BA
:109CA00064A1CDF83490CDF838E083915A92CDF884
:109CB00004C1139E109C11980F9DF594F6903E9C44
:109CC0003F98F49573403D9D3C9ED694D790409C20
:109CD0004198DDF870C3CDF848A3CDF8C893DDF8FE
:109CE00068A3DDF8E893CDF84C83CDF8CCE3DDF83C
:109CF0006C83DDF8ECE3D496D595F791D894F8927F
:109D0000D9905B93F993FC9BDF9DDD99FD9CDE9AD6
:109D1000FE980795E19DE09F06920890CDE9151405
:109D2000FF9E0C9714932F464C408CEA030508992C
:109D3000069BDDF800040A968AEA09020092179051
:109D4000079ADDF80464189683EA01000A9B1997C4
:109D500082EA0301179B0C9A5A40189B7B40009F94
:109D600007EA0B070097039F88EA0E063E4088EA41
:109D700006088EEA060E05EA0B05149ECDF80C8146
:109D80008CEA050CCDF810C186EA050C159DCDF8BE
:109D900050C03C4085EA040C169DCDF814C13940F2
:109DA00085EA040C3B40069C009FCDF854C000EAB5
:109DB0000B008AEA070A84EA000C009F089C079DB2
:109DC0000A9ECDF818C189EA070984EA000C0C9FA5
:109DD0001798CDF858C002EA0B0285EA010C7140D1
:109DE000199D189ECDF8BCC187EA020CCDF8C0C100
:109DF000424085EA030C7340CDF808A1CDF84890A5
:109E0000CDF84CE05C915D92CDF8C4C15E93CDF885
:109E100068A3CDF8E893CDF86C831698159CFE9056
:109E20006F98149DFD94DF90469C7198449EFC951C
:109E3000DE94459D709CCDF80024E190DDF814245B
:109E4000E698DDF810A4DDF88893DDF80884CDF8F5
:109E5000ECE3DC96DDF88CE3DD95FF91CDF804347E
:109E6000E599DDF80C3400920690E094DDF8184492
:109E7000E79D0795E99D18931B958EEA0305E49BE2
:109E80000894DDF820441C9483EA0A04009BE898B7
:109E9000DDF81C64069A0C901A9181EA0300089977
:109EA0000A96079BDDF824741D9751400A9A1B9F60
:109EB0005A400C9B9C461C9B8CEA0303BC461D9F8E
:109EC00089EA08068CEA070C039F06EA0B063D4068
:109ED00089EA060988EA0608189ECDF8C8918EEA34
:109EE000050ECDF8CCE186EA050ECDF85C80CDF804
:109EF00060E0E49D0A9ECDF8889304EA0B0485EAAD
:109F0000040ECDF8D0E18AEA040E1A9CCDF864E084
:109F1000384084EA000E009CCDF8D4E184EA000EBB
:109F20000698079DCDF868E001EA0B0180EA010E72
:109F30003A400C98089CCDF8D8E10CEA070C85EA69
:109F4000020E1B9FCDF8DCE103EA0B0380EA030E4F
:109F50006140CDF8E0E11C9C189DCDF80C5487EAD7
:109F60000C0E1D9F749D5F917240634087EA0C0C3C
:109F7000739E199C60926193CDF8E4E1CDF86CC0BA
:109F8000CDF80884E396E495CDF810441A98779CB0
:109F9000CDF814047698E690E7947898799CCDF8FB
:109FA0001C24DDF83424759EEF9FE890CDF8203412
:109FB000EE98DDF83034E9940092DDF83844DDF8AD
:109FC0003C24DDF8A883DDF828E4E596CDF81814E4
:109FD000DDF82C64ED99CDF824C40894DDF8ACC309
:109FE00007970A920690F098DDF844241D93239277
:109FF0001A46EC9B0C9083EA0200009BF19FDDF86F
:10A000004044069A21971E9181EA0309079F0A9B03
:10A010000899229451405F400C9A229B5A40219B00
:10A020001D46239B88EA0E046B40039D8CEA060ABA
:10A0300004EA0B040AEA050A09EA05092F408EEA38
:10A04000040E2B4088EA0405EC9C7A9500EA0B008C
:10A050008CEA0A0CCDF8ECC184EA000C1D9CCDF80A
:10A06000F0C184EA000C1E98CDF874C080EA090C97
:10A070000098CDF8F4C186EA0A0680EA090CCDF80A
:10A0800070E06296CDF878C00698089C7A9DEA95B3
:10A0900001EA0B0180EA010CCDF8F8C184EA010C59
:10A0A0000799CDF87CC081EA070C0A990C98229C8C
:10A0B000CDF8FCC102EA0B0281EA070CCDF880C0A2
:10A0C00080EA020C219F1D98CDF800C284EA020CA0
:10A0D000239A7B9CCDF830041E987C9DCDF830C02F
:10A0E000EB9487EA030C7D9CCDF8340453407E98B2
:10A0F000CDF804C28293CDF828E4CDF82C64EC9519
:10A10000ED94EE901F99209F0C9ADDF8D804CDF8BD
:10A110003C74CDF84024809F819ADDF85C54DDF8D2
:10A12000DC64CDF83814F0977F99DDF86074F19213
:10A130000790DDF85824DDF8E004DDF850C4DDF8C0
:10A1400048A4DDF8C894DDF84C84DDF8CCE4DDF8F3
:10A15000D444EF91CDF84434DDF85414DDF8D03414
:10A160000092069508960A972B90DDF86454259383
:10A170002F46249126948CEA03054C40009B0799B6
:10A18000DDF8E4642C968AEA0902219283EA010050
:10A19000069A089B2E9782EA03012B9B0A9A5A4043
:10A1A0002C9B7B40219F07EA0B072197039F88EA9E
:10A1B0000E063E403C4039403B40219F2D9388EAAB
:10A1C00006088EEA060E259ECDF8848005EA0B056A
:10A1D00089EA0709CDF888908CEA050986EA050C1A
:10A1E000249DCDF894C085EA040C269DCDF890C03E
:10A1F00085EA040C009CCDF898C000EA0B0084EAC4
:10A20000000C079CCDF89CC084EA000CCDF88CE0D3
:10A21000CDF8A4C0069D089E2B982D9B269CCDF8BA
:10A22000D4448AEA070A0A9F279CCDF84C8485EA21
:10A23000010C02EA0B0271402E9D2C9ECDF8A0C0AD
:10A2400087EA020C42402998229FCDF8A8C0CDF899
:10A25000D80485EA030C2898259D63917340249EB9
:10A260006492CDF8ACC06593CDF8C874CDF8CCE459
:10A27000CDF85464CDF85844CDF85C04CDF8DC1426
:10A28000CDF848A4CDF85094CDF8D0542A9D2B9801
:10A29000DDF8E814DDF8F864DDF87C74CDF860547E
:10A2A000CDF8E024DDF87854DDF87424CDF86404AA
:10A2B000CDF8E434DDF8F404DDF8683408920A904F
:10A2C000DDF8FC24DDF880042F953196DDF800558B
:10A2D000DDF884643097DDF80475DDF86C84DDF812
:10A2E000ECE4DDF8F04432923390359534963697AD
:10A2F000009383EA01070791DDF870340A992E94E0
:10A3000083EA0405089B2F9A31981C464C40309BE9
:10A31000329950405940339A359B5A40349B07EA52
:10A320000B079C46369B0697039F88EA0E068CEA2D
:10A3300003033E403C4039403B40009FBC46069FE3
:10A340008CEA070C079FCDF800C0BC46069F8CEA3C
:10A35000070CCDF8B0C088EA060CCDF818C08EEA1C
:10A36000060CDDF87064CDF8B4C005EA0B0586EA8A
:10A37000050C2E9ECDF81CC086EA050C089DCDF874
:10A38000B8C085EA040C0A9DCDF820C06C402F9D12
:10A39000669400EA0B0085EA000CCDF828C0319ED7
:10A3A000309F359DCDF8F44486EA000C3298CDF804
:10A3B000BCC087EA010C41403398349E369FCDF8EB
:10A3C0001CC102EA0B0280EA020CCDF820C16A40EF
:10A3D00086EA030C2E9D2D9ECDF8F0547B40009F05
:10A3E000089DCDF868742C9F2F98CDF8E874CDF8AF
:10A3F000EC64069F079ECDF874540A9D679168929D
:10A40000CDF824C16993CDF86C74CDF87064CDF8A3
:10A410007854CDF8F8044798499ECDF87C044898C4
:10A42000DDF89854CDF88004CDF80025DDF814054A
:10A43000DDF89424CDF88464DDF81865DDF89C74AB
:10A44000CDF8FC14CDF80435DDF80815DDF88834B6
:10A4500033923490DDF81C25DDF8A004359537964D
:10A46000DDF82055DDF8A464DDF88C84DDF80CE51A
:10A47000DDF810453892399051953A963697DDF8C7
:10A4800024755297319383EA0107DDF890343291B5
:10A4900083EA0405339B34994D941C46359A369BC8
:10A4A00037984C40389950405940399A519B5A40FE
:10A4B0003A9B07EA0B079C46529B3097039F88EA1A
:10A4C0000E068CEA03033E403C4039403B40319F3E
:10A4D000BC46309F8CEA070C329FCDF828C1BC46A1
:10A4E000309F8CEA070CCDF8C0C088EA060CCDF886
:10A4F0002CC18EEA060CDDF89064CDF8C4C005EAE4
:10A500000B0586EA050C4D9ECDF830C186EA050C98
:10A51000339DCDF8C8C085EA040CCDF834C1349D14
:10A52000379E369F6C40359D6A9400EA0B0085EAA1
:10A53000000CCDF838C186EA000C3898CDF8CCC0B4
:10A5400087EA010C414039983A9E529F519DCDF8BF
:10A550003CC102EA0B0280EA020CCDF840C186EA57
:10A56000030C7B404A9F319ECDF888746A40309F2F
:10A57000329DCDF80875CDF80C654B9F4C9ECDF8FB
:10A5800010554D9D6B916C92CDF844C16D93CDF8F3
:10A590008C74CDF89064CDF89454CDF81445CDF872
:10A5A0002025DDF8AC243592DDF83C25339838922F
:10A5B000DDF8C024CDF8180539924F98DDF8402514
:10A5C000DDF828854E9D519ECDF89C04CDF82435AC
:10A5D0005098DDF8A8345792DDF8C424DDF82CE556
:10A5E000DDF8B0C4DDF83075DDF83445CDF89854A9
:10A5F000CDF81C15DDF8B454CDF8A004CDF8A46452
:10A60000DDF8B804DDF838653A92DDF84425589253
:10A61000349383EA0802049B13F1FF31359B0491C4
:10A62000039983EA0E0303EA010305993693349BE9
:10A6300041F1FF3102EA0B02059119465140359B69
:10A64000529188EA020134911946369B5940369B53
:10A6500053918EEA03018CEA07023591039902EACD
:10A660000B0285EA040808EA01088CEA0201549109
:10A6700087EA02013691389A589F84EA0801DDF88A
:10A68000BC44379180EA0603039903EA0B0384EA8A
:10A69000020E0EEA010E5E4080EA030185EA08051B
:10A6A0003A98399B579C5595389656910399389E00
:10A6B000CDF8386580EA070C83EA04050CEA010C42
:10A6C000DDF8BC1405EA0B0581EA0E0182EA0E02F0
:10A6D00083EA050E529BCDF8A834349BCDF828357B
:10A6E000539BCDF85CE1CDF8AC3484EA050E359B84
:10A6F000559D379C579ECDF8E4E0CDF82C3580EA87
:10A700000C0E549B56989B9187EA0C0C369F6E92C8
:10A71000CDF8B034CDF8B804CDF8BC14CDF83C2554
:10A72000CDF860E1CDF8E8C0CDF83075CDF8B4547F
:10A73000CDF83445CDF8C064399C5898CDF84045E3
:10A74000DDE90412531C08BFB1F1FF3FCDF8C4048A
:10A75000CDF844C506D0CB0843EA4273CAAAD35CFD
:10A76000FDF788B80D9BCDF8C0380E9BCDF8C438E6
:10A77000229BCDF84039239BCDF844393C9BCDF842
:10A78000C8373D9BCDF8CC370F9BCDF8C838109B10
:10A79000599ACDF8CC38259BCDF8C027CDF848394B
:10A7A0003B9A269B2499CDF8C427CDF84C39219AA1
:10A7B0003E9BCDF840A8CDF84428CDF84898CDF878
:10A7C0004C18CDF8D0373F9BCDF8D437119BCDF83E
:10A7D000D038839BCDF8D438299BCDF85039639B72
:10A7E000CDF85439409BCDF8D837419BCDF8DC37B4
:10A7F0005A9BCDF8D8385B9BCDF8DC38649BCDF8FC
:10A800005839659B2798289D2A9E2B9FCDF85C3947
:10A81000429BCDF85008CDF85458CDF85868CDF883
:10A820005C78CDF8E037439BCDF8E437009BCDF85A
:10A830006038069BCDF86438129BCDF8E038139B46
:10A84000CDF8E4382C9BCDF860392D9BCDF86439D8
:10A85000449BCDF8E837459BCDF8EC37079BCDF806
:10A860006838089BCDF86C38149BCDF8E838159BF8
:10A87000CDF8EC382E9BCDF86839669BCDF86C3955
:10A88000469BCDF8F0376F9BCDF8F4370A9BCDF897
:10A890007038479BCDF87438169BCDF8F0385C9B28
:10A8A000CDF8F4382F9BCDF87039679BCDF874390B
:10A8B000709BCDF8F837719BCDF8FC37489BCDF8ED
:10A8C0007838499BCDF87C385D9BCDF8F8385E9B95
:10A8D000CDF8FC38689BCDF87839699BCDF87C3988
:10A8E000729BCDF80038739BCDF804384A9BCDF8A5
:10A8F00080384B9BCDF88438179BCDF80039189BD6
:10A90000CDF80439309BCDF88039319BCDF88439AE
:10A91000749BCDF80838759BCDF80C384C9BCDF85E
:10A9200088384D9BCDF88C38199BCDF808391A9B87
:10A93000CDF80C39329BCDF888396A9BCDF88C392B
:10A94000769BCDF81038779BCDF814384E9BCDF818
:10A9500090384F9BCDF894385F9BCDF81039609BB1
:10A96000CDF81439339BCDF890396B9BCDF89439E1
:10A97000789BCDF81838799BCDF81C38509BCDF8D2
:10A980009838519BCDF89C38619BCDF818391B9BAA
:10A99000CDF81C396C9BCDF898396D9BCDF89C395E
:10A9A0007A9BCDF820387B9BCDF82438529BCDF88C
:10A9B000A038539BCDF8A4381C9BCDF82039629B5E
:10A9C000CDF82439349BCDF8A039359BCDF8A43986
:10A9D0007C9BCDF828387D9BCDF82C38549BCDF846
:10A9E000A838559BCDF8AC381D9BCDF828391E9B57
:10A9F000CDF82C39369BCDF8A839379BCDF8AC393A
:10AA00007E9BCDF830387F9BCDF83438569BCDF8FF
:10AA1000B0389B9BCDF8B4381F9BCDF83039209BC4
:10AA2000CDF83439389BCDF8B0396E9BCDF8B439B8
:10AA3000809BCDF83838819BCDF83C38579BCDF8BA
:10AA4000B838589BCDF8BC380C9BCDF83839829B70
:10AA5000CDF83C39399BCDF8B8393A9BCDF8BC39A3
:10AA6000CDF848A6CDF84C26CDF85096009BCDF8F1
:10AA70006836069BCDF86C36079BCDF87036089B80
:10AA8000CDF874360A9BCDF87836479BCDF87C36E6
:10AA9000489BCDF88036499BCDF884364A9BCDF84B
:10AAA00088364B9BCDF88C364C9BCDF890364D9B21
:10AAB000CDF894364E9BCDF898364F9BCDF8541672
:10AAC000CDF85806CDF85C56CDF86066CDF86476C2
:10AAD000CDF89C36509BCDF8A036519BCDF8A436CE
:10AAE000529BCDF8A836539BCDF8AC36549BCDF88D
:10AAF000B036559BCDF8B436569BCDF8B8369B9BF7
:10AB0000CDF8BC36579BCDF8C036589BCDF8C4362F
:10AB1000FD2400E0013C0DF5C96211461046FCF72A
:10AB20001DF80DF5C961022C0DF504620846F1D03F
:10AB3000042CEFD0FCF712F8002CEBD10DF5C96313
:10AB4000D3E900010DF5CA63D3E900670DF504628E
:10AB50000DF5CB63C2E90001D3E900010DF648030E
:10AB6000C3E900670DF5CC63D3E900670DF5056314
:10AB7000C3E900010DF5CD63D3E900010DF65803DB
:10AB8000C3E900670DF5CE63D3E900670DF50663F1
:10AB9000C3E900010DF5CF63D3E900010DF66803A9
:10ABA000C3E900670DF5D063D3E900670DF50763CE
:10ABB000C3E900010DF5D163D3E900010DF6780377
:10ABC000C3E900670DF5D263D3E900670DF50863AB
:10ABD000C3E900010DF5D363D3E900010DF6880345
:10ABE000C3E900670DF5D463D3E900670DF5096388
:10ABF000C3E900010DF5D563D3E900010DF6980313
:10AC0000C3E900670DF5D663D3E900670DF50A6364
:10AC1000C3E900010DF5D763D3E900010DF6A803E0
:10AC2000C3E900670DF5D863D3E900670DF50B6341
:10AC3000C3E900010DF5F8610DF6B803C3E900673B
:10AC40000846FBF78BFF0DF5F863D3E900230DF5FC
:10AC5000F961D1E900010DF5FA65D5E900670DF557
:10AC6000C965C5E900230DF5CA65C5E900010DF503
:10AC7000CB65C5E900670DF5FB63D3E900230DF54E
:10AC8000FC61D1E900010DF5FD65D5E900670DF521
:10AC9000CC65C5E900230DF5CD65C5E900010DF5CD
:10ACA000CE65C5E900670DF5FE63D3E900230DF518
:10ACB000FF61D1E900010DF50065D5E900670DF5EB
:10ACC000CF65C5E900230DF5D065C5E900010DF597
:10ACD000D165C5E900670DF60803D3E900230DF53A
:10ACE0000161D1E900010DF61805D5E900670DF500
:10ACF000D265C5E900230DF5D365C5E900010DF561
:10AD0000D465C5E900670DF50263D3E900230DF5AD
:10AD100003650DF62801D5E90067D1E900010DF5BD
:10AD2000D565C5E900230DF63803D3E900230DF5F9
:10AD3000D665C5E900010DF5D761C1E900670DF5DC
:10AD4000D861C1E900230DF5C867BC46A146A046FD
:10AD5000FCE9022312F5803443F100064B460E2B2A
:10AD60004FEA1442A3F10F0342EA0642B3FA83F317
:10AD7000CCBF002501254FEA264E12F1FF324FEAE3
:10AD80005313A3FB02014EF1FF3E03FB0E13CDE96B
:10AD900000010193DDE900014FEAC10A0099C300F7
:10ADA0005B184AEA517A019909F101094AEB010A53
:10ADB00009FB05F50DF5C961CCE9004601EBC505B8
:10ADC000009928684FEA8A0A4FEA830B4AEA937A85
:10ADD0001BEB010301994AEB010A69689B184AEBD6
:10ADE0000E0EC31841EB0E01C5E90031DCE900325B
:10ADF000240C24041C1B62EB0606B9F1100FCCE9ED
:10AE00000046A5D10DF5C8614FF0000EC1460D46B4
:10AE1000F5E9022312F5803443F1000673460E2B48
:10AE20004FEA1442A3F10F0342EA06420EF1010E6B
:10AE3000B3FA83F3D4BFF4464FF0000C4FEA264830
:10AE400012F1FF324FEA5313A3FB020148F1FF381E
:10AE500003FB0813CDE900010193DDE900014FEA8E
:10AE6000C10A0099C3005B184AEA517A01994AEB7A
:10AE7000010A0DF5C961C5E9004601EBCC0C00994A
:10AE8000DCF800004FEA8A0A4FEA830B4AEA937A19
:10AE90001BEB010301994AEB010ADCF804109B1833
:10AEA0004AEB0808C31841EB0801CCE90031D5E9A9
:10AEB0000032240C24041C1B62EB0606BEF1100FAA
:10AEC000C5E90046A4D14C46DFF8EC93A646F7E965
:10AED000022312F5803443F1000673460E2B4FEA2D
:10AEE0001445A3F10F0345EA06450EF1010EB3FA2E
:10AEF00083F3D4BFF4464FF0000C321415F1FF3544
:10AF00004FEA5313A3FB050142F1FF3203FB021387
:10AF1000CDE900010193DDE900AB53464FEACB08D0
:10AF2000DB0013EB0A0348EA5A7848EB0B084FEAB8
:10AF3000830A4FEA8808C7E900460DF5C96148EA67
:10AF400093785346DDE900AB01EBCC0C13EB0A031D
:10AF5000DCF80000DCF8041048EB0B085B1948EB48
:10AF60000202C31841EB0202CCE90032D7E90032F9
:10AF700004EA09041C1B62EB0606BEF1100FC7E9C8
:10AF80000046A4D1DDF84896C84AC94BDDF850E622
:10AF9000DDF858C6DDF86076DDF86866DDF888B65D
:10AFA00019EB020ACAF300481EEB0302B2EB0808D1
:10AFB000C8F300411CEB0302501AC0F30041FA1819
:10AFC000541A0D90F118DDF870061094C4F3004285
:10AFD0008A1ADDF878460C92C118C2F30042049038
:10AFE000891ADDF8800600900791C1F30042E1184C
:10AFF0008D1A00991795C918C5F300428D1ADDF80E
:10B0000090060E951BEB0301C5F300428D1A0A90C2
:10B01000C118C5F30042DDF8980619958D1A1190F4
:10B02000C118C5F30042DDF8A0060F958D1A1290E5
:10B03000C118C5F30042DDF8A8061B958D1A0290D1
:10B04000C118C5F30042DDF8B0061C958D1AC5F392
:10B050000042C1181D9506908D1ADDF8B80620959E
:10B06000C5F30042CDE91302DDF8C4260892C118E9
:10B07000149ADDF8C00614908D1A01468D481E956D
:10B0800009180898C5F3004240F1FF35881A4FEAC5
:10B0900010421FFA8AFA02F1010242F30002BDF8DF
:10B0A00034101F908AEA090A0AEA020A1FFA88F88D
:10B0B0008AEA090A88EA0E0881EA0C094FF00001C1
:10B0C00065EB010508EA02087849229588EA0E0E28
:10B0D00070461AEB010E754609EA020EC5F30048E8
:10B0E00010EB03098EEA0C0C25906046B9EB080CB6
:10B0F000BDF8401010956546BDF830C016958CEA35
:10B10000060C0CEA020C794010EB03081140C5F361
:10B11000004E8CEA060581EA07090C90BDF81C1068
:10B1200004980795B8EB0E07079D159719EB030ECA
:10B13000C7F30047BDF85C60BEEB070C414011400F
:10B14000CDF85CC0CCF3004715EB030C81EA000E90
:10B15000BCEB070C66401EEB0307CCF30045164022
:10B160000098BDF83810CDF860C066407C1B04968E
:10B170002646CDF838E0C6F30045BDF864401A967F
:10B180004140049E114081EA000EF618BDF83C10C3
:10B190007746B6EB050E0A9ECDF864E084EA0B0410
:10B1A0007140FD181440CEF30040114084EA0B0BAF
:10B1B0000F972C1A119FBDF86C001B9481EA060EA4
:10B1C0001BEB03057646C4F30044BDF870101196DE
:10B1D000B5EB040E7840F518129ECDF870E01040E3
:10B1E0004740CEF300447140BDF874002197B5EBA1
:10B1F000040E1140FD18029FCDF874E0CEF3004418
:10B2000081EA060E78407746BDF880100A97B5EBC4
:10B21000040EFD18069F069ECDF848E07940029F77
:10B22000104078400290CEF30044139FBDF87800A0
:10B23000B5EB040E029DCDF878E01140CEF300444A
:10B24000ED1881EA060E784076461040B5EB040E04
:10B25000CDF84CE02096CEF3004180EA070E14981A
:10B260001F9CF518691A44400E46229D08991F96A6
:10B2700014404FEAE2786040069017461EEB030345
:10B28000C6F3004240464D400540981A069A094BC5
:10B290004D40D318C0F3004245F1FF319A1ABDF872
:10B2A000403027911946BDF8543007E01300FFFFE6
:10B2B0000100FFFF0180FFFF0000FFFF1E46BDF8F9
:10B2C00060300893BDF864301C46BDF870301093B0
:10B2D00081EA0A01BDF84830CDE900788846314658
:10B2E0000C9E1F46BDF84C30149381EA0606DDE93A
:10B2F000073181EA030112912146049C81EA04018D
:10B3000013911099029C81EA0B0115913946219FF6
:10B3100081EA07011991149981EA04011C91DDF871
:10B32000BC162391DDF84C162291DDF85C162491B1
:10B33000DDF86C162691DDF87C1628914FEA124C48
:10B34000BDF858100CF1010C4CF300038C46BDF80D
:10B350005C100891BDF868101491BDF86C1017913D
:10B36000BDF874101891BDF878101A91BDF87C10D2
:10B370000C46414601EA03018846129906EA030693
:10B3800010960E46139906EA030612960E46159974
:10B3900001EA03011B91199901EA03011D911C990E
:10B3A00001EA03011F91259906EA030616968CEA25
:10B3B00001060D96089E86EA090C149ECDF84CC035
:10B3C000B4460E9E8CEA060C179ECDF854C0B446C7
:10B3D0000F9E8CEA060C189ECDF864C0B446119EF0
:10B3E0008CEA060C1A9ECDF870C0B4460A9E8CEA10
:10B3F000060CCDF878C0A446209C279E8CEA040C4D
:10B40000CDF880C0B4464FF000066CEB060C109EE1
:10B41000CDF884C088EA0A0CCDF820C0B4460C9E52
:10B42000DDF88CA6DDF8AC868CEA060CDDF89C66AF
:10B430000C96129ECDF85CC0B446079E8CEA060CB2
:10B44000169ECDF860C0B446049E8CEA060CCDF87A
:10B4500068C01B9E86EA0B0C1D9ECDF840C080B2D2
:10B4600086EA070C80EA0E001F9ECDF848C01840FF
:10B4700080EA0E0EB4460698029EDDF894762A976E
:10B480008CEA060C82EA0006239ACDF850C0944656
:10B49000019ADDF8540623902CEA020B229ADDF87B
:10B4A000640625909446019ADDF8740627902CEAEC
:10B4B000020C249ACDF888C09446019ADDF88406DF
:10B4C00029902CEA020C269ACDF81CC09446019AC9
:10B4D0002CEA020C289ACDF874C09446019A2CEA02
:10B4E000020CCDF86CC0019A0C98DDF8A47620EA25
:10B4F000020C2AEA020A2198CDF858C028EA02086C
:10B500000D9A219780EA050C02EA0300139ACDF800
:10B510007CC01A400292199A159F02EA030C1C9AE9
:10B520001A4004921E9A1A401392209A1A401592B9
:10B5300080EA01020C92029A0E981F4082EA0909E1
:10B54000DDF8B426CDF83490D91787EA00092092A7
:10B550001846229A0F9FCDF83890CDE902011E407F
:10B560002BEA010B039B22EA010207998CEA070CE4
:10B57000CDF83CC021EA030CCDF81CC01D990A9FF0
:10B5800021EA030C1B99CDF864C08C46DDE9020169
:10B590002CEA010CCDF86CC02AEA010CDDE9029A14
:10B5A0001699119BCDF870C021EA0A0C0499CDF8C8
:10B5B00074C028EA0A0CCDF878C081EA030C13990C
:10B5C000CDF844C081EA070C1599089BCDF84CC012
:10B5D00081EA04080699CDF8548086EA0109CDF87D
:10B5E00058904FF000094C466EF30704019E0494F6
:10B5F000239C1F994FEA1E2040EA0B6024EA060BA9
:10B60000259CCDF890B08A4626460399019C0AEA0B
:10B61000010A26EA04064FEA13281799CDF87CA000
:10B6200048EA0268189A2396279C2646019C26EA37
:10B6300004062296299C019E24EA060417942A9C5B
:10B6400024EA06041894219C24EA06042194209CF0
:10B65000CE4624EA060463F307091A9B0094079C6C
:10B660001E0A4FEA112A0696774676464AEA046A87
:10B6700061F3070E109C19994FEA122B4BEA016BEC
:10B68000240A129907943C4662F30707069A090AAE
:10B690000891944631461B9A63F30706079B4CEAD0
:10B6A00002629C461C9B0692149A4CEA036C109B07
:10B6B000CDF81CC0120A0A92224663F30704089BC5
:10B6C0009C461D9B4CEA036CCDF820C0129B63F393
:10B6D00007010A9B9C461E9B4CEA036C149BCDF809
:10B6E00028C063F307021F9B5D40049B1B9560F31A
:10B6F0000F2304930C9B169D180A249B9C46039BC6
:10B700002CEA030C239BCDF840C09C46039B68F3B6
:10B710000F292CEA030C9846229BCDF848C023EA57
:10B72000080C179BCDF850C023EA080C189BCDF8E5
:10B730005CC023EA080C219BCDF860C023EA080C0A
:10B74000009BCDF864C023EA080C0D9BCDF868C0BF
:10B750001B0A00930E9B4FEA1328069B63F30F26E8
:10B760000F9B6BF30F274FEA132B079B63F30F24F9
:10B77000119B1B0A0293089B63F30F21139B1B0A67
:10B7800006930A9B63F30F22159B6AF30F2E4FEA71
:10B79000132A1B9B2D0A45EA0365169B9C46049BB6
:10B7A0006CF317430493109B40EA03600C9B63F314
:10B7B00017490D9B63F3174E129B9C46009B43EA6F
:10B7C0000C6300930E9B63F31747149B48EA0368CE
:10B7D0000F9B63F31746179B4BEA036B119B63F3B5
:10B7E0001744029B9C46189B4CEA036C139BCDF8B4
:10B7F00008C063F31741069B9C46199B4CEA036CF7
:10B80000159BCDF818C063F317421A9B4AEA036AE6
:10B81000049B9C46009B63F31F6E029B63F31F64B3
:10B82000069B65F31F6C63F31F61C99BCDF810C0C5
:10B8300060F31F69654668F31F676BF31F666AF361
:10B840001F620020C3F80090DD61C3F804E09F6030
:10B85000DE601C6159619A610DF6C41DBDE8F08F70
:10B860002DE9F04FDBB00025649E649C96F805C07E
:10B87000B77996F80180247896F802E0CDF8E0E0F8
:10B88000CDE93BC7649F249597F803A097F80490EF
:10B890002695CDE93648289597F807802A952C9566
:10B8A0002E95309532952595279529952B952D9593
:10B8B0002F953195CDE93355CDE900230AF00F03DB
:10B8C00097F80BC0399309F0FC02649B3A92649A92
:10B8D000DB7B0D900CF00F0C907A0491CDF804C135
:10B8E000517A92F80DC0927B97F808E03F7B46951D
:10B8F00003F00F03CDE943C24593DDE9002308F0CF
:10B900000F080EF0FC0E07F0FC071343CDE93F10C3
:10B91000CDF8F480CDF8F8E0429700F006832E468B
:10B92000AE46DDE9000100232293049B2196002905
:10B930001A78199608BF0228CDE91B65CDE91D6567
:10B94000CDE91F65CDE91365CDE91565CDE917652D
:10B950001C461A951292C0F043845B78139300F052
:10B9600045840029A378149308BF032800F043847A
:10B970000029E378159308BF042800F05C840029AF
:10B980002379169308BF052800F0618400296379A4
:10B99000179308BF062800F054840029A379189350
:10B9A00008BF072800F06C840029E379199308BFC9
:10B9B000082800F05F840029237A1A9308BF092819
:10B9C00000F052840029637A1B9308BF0A2800F014
:10B9D00044840029A37A1C9308BF0B2800F01F841D
:10B9E0000029E37A1D9308BF0C2800F01384002976
:10B9F000237B1E9308BF0D2800F007840029637B7A
:10BA00001F9308BF0E2800F0FB830029A37B20931F
:10BA100008BF0F2800F00984E37B21934FF0100842
:10BA20004FF00009C44612A9012341F82C30139BA2
:10BA30000293169B0793179B0893189B0993199BD6
:10BA4000249F259C0A93029B149905911C44BB18C2
:10BA500004EB1322159926980393059B069118442D
:10BA60002799069B059200EB12201944289A079B00
:10BA7000299C069001EB1021D31803EB112A089B97
:10BA8000CDF820A0E31803EB1A2A0791CDF808A0FF
:10BA90002A9A099F1A982D9C1B999246BA44DDE96F
:10BAA0001C370997029F2C9A0AEB172A2B9FBB463B
:10BAB0000A9FBB442E9F0BEB1A2B104400EB1B205C
:10BAC0002F9A21443B44099F1E9C01EB102103EB5C
:10BAD00011233A441F9F0B9702EB1327309A0A97C2
