:020000021000EC
:10B00000004000201550020055500200CB320200D3
:10B010000000000000000000000000000000000030
:10B020000000000000000000000000005950020075
:10B0300000000000000000005B5002005D500200B4
:10B0400081E101005F500200A5CF01005F500200C6
:10B050005F500200000000007DE601005F5002002A
:10B060005F5002005F5002005F5002005F5002001C
:10B070005F500200ADB901005F5002005F50020056
:10B080005F5002007DDB01005F5002005F50020054
:10B09000CDDB01005F500200B94E02005F5002009C
:10B0A0005F5002005F50020000000000000000003E
:10B0B0000000000000000000000000000000000090
:10B0C00010B5064C2378002B07D1054B002B02D07E
:10B0D000044800E000BF0123237010BD942000202D
:10B0E0000000000048720200044B10B5002B03D092
:10B0F0000349044800E000BF10BDC0460000000046
:10B100009820002048720200164B002B00D1144BEF
:10B110009D46402292029A1A924600218B460F4683
:10B120001348144A121A00F065F80F4B002B00D098
:10B1300098470E4B002B00D09847002000210400B8
:10B140000D000D48002802D00C4800E000BF00F0C0
:10B150002DF82000290008F057FC00F011F8C04637
:10B160000000080000400020000000000000000077
:10B17000942000206C2C0020000000000000000043
:10B18000084B10B50400002B02D0002100E000BFE6
:10B19000054B1868836A002B00D09847200000F008
:10B1A00031F8C046000000009865020070B5002626
:10B1B0000C4D0D4C641BA410A64209D100260BF0C7
:10B1C000DFF90A4D0A4C641BA410A64205D170BDDC
:10B1D000B300EB5898470136EEE7B300EB589847B9
:10B1E0000136F2E78C2000208C2000208C200020EB
:10B1F0009020002003001218934200D1704719706C
:10B200000133F9E7FEE7C04690B585B000AF78603E
:10B21000012000F021FC0300FB60FB68002B0AD139
:10B2200001F08AF8040001F08FF801007B681A0031
:10B23000200000F005F8FB681800BD4605B090BD81
:10B2400080B584B000AFF860B9607A60BA68FB6816
:10B250001100180000F004F8C046BD4604B080BDDF
:10B2600080B582B000AF78603960054B7A685A616A
:10B27000034B3A689A61C046BD4602B080BDC046E5
:10B28000B0200020F0B589B002AFB9607A603B60B1
:10B290000F26BB19021C1A7000233B6100237B613F
:10B2A000074B5C697D68BA687969BB1918783B6897
:10B2B00000932B00A047C046BD4607B0F0BDC04676
:10B2C000B020002080B582B000AF02003960FB1DC5
:10B2D0001A703968FB1D187800230022FFF7D2FF8F
:10B2E000C046BD4602B080BD90B587B000AFB96022
:10B2F0007A600F243B19021C1A707B687B6114234F
:10B30000FA18B9683B1918780123FFF7BBFFC0464C
:10B31000BD4607B090BD90B587B000AFB9607A6008
:10B320003B600F243B19021C1A7010217B187A68AD
:10B330001A607B183A685A607A18B9683B1918780D
:10B340000223FFF79FFFC046BD4607B090BD80B502
:10B3500082B000AF7860396000231800BD4602B0AB
:10B3600080BD80B582B000AF786039607B689B6833
:10B370003A689A4202D23B68013300E00023180089
:10B38000BD4602B080BD80B582B000AF78607B68FA
:10B390001B685A687B681B681B689A4207D37B68E6
:10B3A0001B685A687B681B681B68D31A0AE07B68B5
:10B3B0009A687B681B681B68D21A7B681B685B688D
:10B3C000D31801331800BD4602B080BD80B582B0ED
:10B3D00000AF78607B681B685A687B6811001800B2
:10B3E000FFF7BFFF02007B681B681B68D31A5A4235
:10B3F0005341DBB21800BD4602B080BDB0B588B085
:10B4000000AF786039600023FB610F217B180022B8
:10B410001A707B18180002F015FD1B257C197B683B
:10B420001800FFF7D3FF030023707B191B7801225C
:10B430005340DBB2002B04D17B681B7C002B00D077
:10B4400073E07B681B685B687B617B681B685A687C
:10B450007B681C687B6811001800FFF782FF0300FF
:10B4600063601B23FB181B78002B0BD07B681B68C9
:10B470001A687B681C687B6811001800FFF771FF71
:10B48000030023607B68DB68022B10D002D8012BFD
:10B4900005D029E0042B13D0082B1AD024E07B68B8
:10B4A0005A687B69D3183A6812781A702CE07B6866
:10B4B0005A687B695B00D3183A6812881A8023E0C7
:10B4C0007B685A687B699B00D3183A6812681A60D7
:10B4D0001AE07B685A687B69DB00D2183B685C68BD
:10B4E0001B68136054600FE07B685B6819007B6821
:10B4F000DB687A695343CB1818007B68DA683B68CD
:10B50000190009F025FEC0467B681800FFF73BFFD5
:10B5100003003B617B681B689B683A699A4207D9C4
:10B520007B681B683A699A6002E00423FB6100E0D3
:10B53000C0460F23FB181B78180002F08FFCFB6934
:10B540001800BD4608B0B0BD80B588B000AFF86047
:10B55000B9607A60FB681B681A68FB681B685B68E7
:10B560009A4207D8FB681B685A68FB681B681B680F
:10B57000D31A06E0FB689A68FB681B681B68D31A3D
:10B580000133FB61FB685B681900FB681B681A6884
:10B59000FB68DB685343CB18BB617A68FB699A424E
:10B5A0001CD8FB68DB687A685A43B969BB68180025
:10B5B00009F0CEFDFB681B681A687B68D218FB682F
:10B5C0009B689A4205D8FB681B681A687B68D2188A
:10B5D00000E00022FB681B681A601FE0FB68DA6865
:10B5E000FB6953437B617A69B969BB68180009F04C
:10B5F000AFFD7A68FB69D31A3B61BA687B69D318DF
:10B600001800FB685968FB68DB683A6953431A0005
:10B6100009F09EFDFB681B683A691A60C046BD468A
:10B6200008B080BD80B586B000AFF860B9607A60C0
:10B6300000237B617B68002B01D100231FE01321D5
:10B640007B1800221A707B18180002F0FBFBFB68C5
:10B650001800FFF798FE02007B68934206D87A68CC
:10B66000B968FB681800FFF76FFF01E005237B61F5
:10B670001323FB181B78180002F0F0FB7B691800FD
:10B68000BD4606B080BD000080B582B000AF7860D6
:10B690000449C1239B007A68CA50C046BD4602B027
:10B6A00080BDC04600D0004080B582B000AF786059
:10B6B0000449C2239B007A68CA50C046BD4602B006
:10B6C00080BDC04600D0004080B582B000AF02000F
:10B6D000FB1D1A70064AC2239B00D358FA1D12782C
:10B6E00013405A1E9341DBB21800BD4602B080BD24
:10B6F00000D0004080B582B000AF0200FB1D1A7080
:10B70000FB1D1B78044A9446634401221A60C0461C
:10B71000BD4602B080BDC04600D0004080B582B0BA
:10B7200000AF0200BB1D1A80BB1D1B88044A944653
:10B73000634400221A60C046BD4602B080BDC046C8
:10B7400000D0004080B582B000AF0200BB1D1A805F
:10B75000BB1D1B88054A944663441B685A1E9341CF
:10B76000DBB21800BD4602B080BDC04600D000402C
:10B7700080B582B000AF7860074A80239B00D35821
:10B780007A68D24304491A4080239B00CA50C046BD
:10B79000BD4602B080BDC04600D0004080B500AFBD
:10B7A000034AA123DB00D358DBB21800BD4680BD9D
:10B7B00000D0004080B500AF054A064BD35804497D
:10B7C00001221343034A8B50C046BD4680BDC0468C
:10B7D00000D00040040500003ADF7047C046180062
:10B7E00080B500AF80235B001800FFF797FF0120B2
:10B7F000FFF74AFF0020FFF77DFFC046BD4680BD32
:10B8000080B500AF0120FFF74FFF0420FFF772FF64
:10B81000C046BD4680BD000080B500AF084B5B78D8
:10B82000002B01D0FFF7C6FF0120FFF7A1FF044B5B
:10B830009B7819000D2002F0A5FDC046BD4680BDD5
:10B84000CC20002080B584B000AF78601A4B1B7804
:10B85000002B01D085232BE07B68002B01D1174BF7
:10B860007B60154B012279689B180222180009F0B1
:10B870006FFC0F217B1800221A707B18180002F051
:10B88000E1FA09F087FA03001A0001235340DBB202
:10B89000002B03D0FFF7C0FFFFF7A2FF0F23FB1819
:10B8A0001B78180002F0DAFA034B01221A70002309
:10B8B0001800BD4604B080BDCC200020B065020059
:10B8C000B0B584B000AF78600A00FB1C1A7000238A
:10B8D000FB600A217B1800221A707B18180002F006
:10B8E000B1FA0B257C1909F055FA030023707B1976
:10B8F0001B7801225340DBB2002B0AD0FB1C1A78C4
:10B900007968154B1800FFF78DFE0300FB60FFF709
:10B9100067FF0A23FB181B78180002F09FFA0B231D
:10B92000FB181B78002B0ED0FB1C1A787B681100CB
:10B930001800FFF751FF0300FB60FB68074A9342C2
:10B9400001D10523FB60FB68022BC2D0FB68180005
:10B95000BD4604B0B0BDC0469C6502000720000093
:10B9600080B584B000AF7860396018E03B68202B68
:10B9700000D92023FB60FB68DAB27B681100180055
:10B98000FFF79EFF0300BB60BB68002BF3D13A6852
:10B99000FB68D31A3B607A68FB68D3187B603B680E
:10B9A000002BE3D1C046BD4604B080BD80B582B057
:10B9B00000AFFB1D00221A70FB1D180002F042FAB6
:10B9C00009F0E8F903001A0001235340DBB2002B11
:10B9D00024D080235B001800FFF7B4FE031E1DD0A7
:10B9E0000120FFF771FE031E18D080235B001800B2
:10B9F000FFF794FEFFF7D2FE03001A00BB1D1A707A
:10BA0000BA1D0B4B11001800FFF7F8FC084B18008B
:10BA1000FFF7DCFC031E01D0FFF7F2FEFB1D1B78D5
:10BA2000180002F01BFAC046BD4602B080BDC046F9
:10BA30009C65020080B582B000AF786039607B6899
:10BA40001B78012B02D1034B01221A70C046BD4660
:10BA500002B080BD02220020B0B58CB000AF020061
:10BA6000FB1D1A70254B1B78002B07D0244B1B782D
:10BA7000FA1D12789A4201D100233AE00C217B187A
:10BA8000204A31CA31C331CA31C311CA11C37B182C
:10BA900000221A757B1804221A607B1805225A604E
:10BAA0007B181922DA607B181A229A607B18164AD2
:10BAB0009A61164B180000F0DDFFFB1D1B78002B70
:10BAC00001D0002300E0124B0C22B9180F481A00D5
:10BAD00000F084FF0300FB62FB6A002B01D0FB6ACD
:10BAE00007E0064B01221A70054BFA1D12781A70F6
:10BAF00000231800BD460CB0B0BDC0460022002097
:10BB000001220020BC65020000502700141F002005
:10BB100035BA010090B583B000AFFB1D00221A704A
:10BB2000FC1D064B180001F0A9F803002370FB1D53
:10BB30001B781800BD4603B090BDC046141F0020FE
:10BB400080B584B000AF786039600F23FB18012204
:10BB50001A703A6879680D4B180009F0F9FA3B68D9
:10BB6000DAB20A490A4B180001F058F80300BB602A
:10BB7000BB68002B03D00F23FB1800221A700F2381
:10BB8000FB181B781800BD4604B080BD00210020C2
:10BB9000141F002080B584B000AF786039603B6826
:10BBA000002B04DA0F23FB1800221A7009E07B68CF
:10BBB0001A683B68D2187B681A600F23FB180122B1
:10BBC0001A700F23FB181B781800BD4604B080BD07
:10BBD00090B587B000AFF860B9607A6000233B6130
:10BBE0001723FB1801221A70FB68002B26D00423B0
:10BBF0003B613A691649BB68180009F0A9FA7B68ED
:10BC00001A683B69D2187B681A603B69BA68D01819
:10BC1000FB681B681C000F4A80235900230009F0B1
:10BC200053FD03003B611723FC183A697B68110040
:10BC30001800FFF7AFFF0300237002E07B680022CB
:10BC40001A601723FB181B781800BD4607B090BD7B
:10BC5000B4650200DC650200F0B5CE46474680B50B
:10BC6000CFB006AFB9607A603B60B14B9022520012
:10BC70009446BC446344021C1A7000238E22520076
:10BC8000BA18136000233B611C23FF33FB18012209
:10BC90001A70FFF73FFF031E01D0002341E13B690B
:10BCA0001422BA18D1181023FA18BB681800FFF72D
:10BCB0008FFF03001A0001235340DBB2002B01D099
:10BCC00000232EE19C235B0008229446BC4463447D
:10BCD0001B68062B00D9E9E09C235B0008229446F0
:10BCE000BC4463441B689A00924BD3181B689F4660
:10BCF0007B68180009F01AFD03008E225200B91863
:10BD00000B60BB181A683B69D318FF2B00D9CFE032
:10BD10003B691422BA18D3188E225200BA1812683E
:10BD20007968180009F014FAC2E03B691422BA18C5
:10BD3000D0183B6980225200D11A3B681B687A6890
:10BD400009F0C2FC03008E225200BA181360B0E062
:10BD50003B691422BA18D0183B6980225200D11ACC
:10BD60003B681C683B6804331B687A6800932300B7
:10BD700009F0AAFC03008E225200BA18136098E062
:10BD80003B691422BA18D0183B6980225200D11A9C
:10BD90003B681D683B6804331A683B6808331B68BE
:10BDA0007C68019300922B00220009F08DFC0300B7
:10BDB0008E225200BA1813607BE03B691422BA1835
:10BDC000D0183B6980225200D41A3B681E683B6839
:10BDD00004331A683B68083319683B680C331B68E6
:10BDE0007D6802930191009233002A00210009F03E
:10BDF0006BFC03008E225200BA18136059E03B69B5
:10BE00001422BA18D4183B6980225200D51A3B6814
:10BE10001B689C463B6804331A683B680833196802
:10BE20003B680C3318683B6810331B687E680393CB
:10BE3000029001910092634632002900200009F02F
:10BE400043FC03008E225200BA18136031E03B69B4
:10BE50001422BA18D5183B6980225200D61A3B68C2
:10BE60001B6898463B6804331A683B6808331968B6
:10BE70003B680C3318683B6810331C683B6814330C
:10BE80001B6899467B689C464B460493039402903A
:10BE900001910092434662463100280009F014FCEB
:10BEA00003008E225200BA18136002E0C04600E080
:10BEB000C0461C25FF357C198E235B00FB181A68D1
:10BEC0001023FB1811001800FFF764FE0300237015
:10BED0003B6904338A225200BA1813607B191B781D
:10BEE000002B1DD08A235B00FB181A6880235B009F
:10BEF0009A4215D83B6914243A19D3180E490422E2
:10BF0000180009F025F98A235B00FB181B683B61C8
:10BF10003A693B1911001800FFF712FE030000E018
:10BF200000231800BD4649B00CBC90469946F0BDB0
:10BF3000EFFEFFFFE4650200B465020080B584B047
:10BF400000AF02003960FB1D1A700223FB6020E085
:10BF5000FB1D1A78FB689B001A411300DAB20B2014
:10BF60003B180F210A401A703B181B78092B05D982
:10BF70000B23FB181B783733DBB204E00B23FB18D1
:10BF80001B783033DBB2FA6801218A1A39688A18C3
:10BF90001370FB685A1EFA60002BD9D1C046BD460B
:10BFA00004B080BDB0B5D0B000AFB9607A603B607E
:10BFB000DF4BA02252009446BC446344021C1A701A
:10BFC00000233B613B6896225200BA181360A623F7
:10BFD0005B0008229446BC4463441A68AA235B00B1
:10BFE00008218C46BC4463441B68D318922252003B
:10BFF000BA181360BB68002B01D00A2300E00023AD
:10C0000090225200BA181360FFF784FD031E01D07E
:10C010003B6888E13B68002B35D13B691422BA1894
:10C02000D1181023FA18BB681800FFF7D1FD0300E0
:10C030001A0001235340DBB2002B01D03B6872E1B0
:10C040007B68180009F072FB03008E225200B918B9
:10C050000B60BB181B68C22B00D9C2238E2149007C
:10C060007A1813603B691422BA18D3180C007A1896
:10C0700012687968180009F06BF83A6921007B189A
:10C080001B68D3183B613B698C2149007A18136007
:10C090007B181A6890235B00FB181B68D318313398
:10C0A0008A2040003A18136014243A197B181B6840
:10C0B000D3189E225200BA1813603A193B181B6815
:10C0C000D3189C225200BA18136000239422520005
:10C0D000BA18136013E09E2252001100BB181B68AF
:10C0E00020221A700A00BB181B680133BA181360AB
:10C0F00094225200BB181B680133BA1813609423B2
:10C100005B00FB181A6890235B00FB181B689A42BF
:10C11000E1D3002398225200BA181360A3E09623BB
:10C120005B00FB181A6892235B00FB181B689A429D
:10C1300020D39E2149007B181B685A1C7818026086
:10C1400020221A707B181B685A1C78180260202263
:10C150001A707B181B685A1C79180A6020221A7002
:10C160009C2149007B181B685A1C79180A60202200
:10C170001A7071E096235B00FB181A68A6235B0017
:10C1800008218C46BC4463441B689A4211D2A42304
:10C190005B0008229446BC4463441A6896235B0003
:10C1A000FB181B68D2183823FF33FB1812781A705B
:10C1B00018E096235B00FB181A68A6235B00082191
:10C1C0008C46BC4463441B68D31AA8225200082141
:10C1D0008C46BC4462441268D2183823FF33FB18E3
:10C1E00012781A709E2464003B191A683825FF35AE
:10C1F0007B191B7811001800FFF7A0FE3B191B6884
:10C2000002333A1913603B191B685A1C39190A602A
:10C2100020221A7008F07CFF02007B191B78013382
:10C22000D3181B781A009723134004D03823FF3308
:10C23000FB18197800E02E219C2040003B181B6859
:10C240005A1C381802600A1C1A7096225200BB1839
:10C250001B680133BA18136098225200BB181B6880
:10C260000133BA18136098235B00FB181B680F2B6F
:10C2700000D854E79C2149007B181B685A1C781889
:10C2800002600D221A707B181B685A1C79180A600C
:10C290000A221A709E2149007B181B685A1C7918C3
:10C2A0000A6020221A703A6990235B00FB181B6811
:10C2B000D31843333B613B6914243A19D3181D4901
:10C2C0000422180008F044FF3B6904333B613A69DB
:10C2D0003B1911001800FFF733FC03001A0001237B
:10C2E0005340DBB2002B04D096235B00FB181B6885
:10C2F00019E0FFF70FFC031E04D096235B00FB1828
:10C300001B6810E000233B6196235B00FB181A6852
:10C3100092235B00FB181B689A4200D2B3E6962377
:10C320005B00FB181B681800BD4650B0B0BDC0468E
:10C33000CFFEFFFFB465020080B500AF014B1800CF
:10C34000BD4680BD59BC010080B500AF014B18004F
:10C35000BD4680BDA5BF010080B582B000AF020020
:10C36000FB1D1A70FB1D1B781A001F231340054983
:10C3700001229A40130080228B50C046BD4602B075
:10C3800080BDC04600E100E080B582B000AF7860BB
:10C390000A00BB1C1A80BB1C1B887A68D3180022B9
:10C3A0001A60C046BD4602B080BD80B582B000AF05
:10C3B00078600A00BB1C1A80BB1C1B887A68D318E3
:10C3C0001B685A1E9341DBB21800BD4602B080BD07
:10C3D00080B582B000AF786039607A68C1239B0075
:10C3E0003968D150C046BD4602B080BD80B582B02C
:10C3F00000AF786039607A68C1239B00D3583A68EF
:10C4000013405A1E9341DBB21800BD4602B080BDF6
:10C4100080B582B000AF786039607A68C2239B0033
:10C420003968D150C046BD4602B080BD80B584B0E9
:10C4300000AF78607A689023DB00D358FB607A689D
:10C440009023DB00F968D150FB681800BD4604B0AA
:10C4500080BD80B582B000AF78607A68A023DB0031
:10C460000421D150C046BD4602B080BD80B582B027
:10C4700000AF78607A68A023DB000021D150C0466D
:10C48000BD4602B080BD000080B584B000AFF8604A
:10C49000B9607A60FB6805497A685A50FB680449BC
:10C4A000BA685A50C046BD4604B080BD14050000AD
:10C4B0000C05000080B582B000AF786001235A42BD
:10C4C000012359427B681800FFF7DEFFC046BD46D6
:10C4D00002B080BD80B582B000AF78607B68034A4F
:10C4E0009B581800BD4602B080BDC0460C05000038
:10C4F00080B582B000AF78607B68034A9B58180013
:10C50000BD4602B080BDC0461405000080B582B0B3
:10C5100000AF78607A68A123DB00D3581800BD46CD
:10C5200002B080BD80B582B000AF78607A68A22387
:10C53000DB00D3581800BD4602B080BD80B584B082
:10C5400000AFF860B9607A60FA68A123DB00B968CF
:10C55000D150FA68A223DB007968D150C046BD46AD
:10C5600004B080BD80B582B000AF786001235A422C
:10C57000012359427B681800FFF7E0FFC046BD4623
:10C5800002B080BD80B582B000AF78607A68A32326
:10C59000DB00D358DBB21800BD4602B080BD0000FE
:10C5A00080B582B000AF78600A00FB1C1A70FB1CDB
:10C5B0001A787B6802495A50C046BD4602B080BD19
:10C5C0001C05000080B582B000AF78600A00FB1C3B
:10C5D0001A70FB1C1B787A68D31801221A60C046B7
:10C5E000BD4602B080BD000080B582B000AF78606B
:10C5F00008001100FB1C021C1A70BB1C0A1C1A70DC
:10C60000FA1CBB1C12781B781343DBB219007B6841
:10C61000024A9950C046BD4602B080BD6C0500007C
:10C6200080B582B000AF786039607B6803493A68B2
:10C630005A50C046BD4602B080BDC0462405000029
:10C6400080B582B000AF0200FB1D1A70FB1D1B7885
:10C650005BB21800FFF780FEC046BD4602B080BD49
:10C6600080B584B000AF78607B681A0B0F217B180F
:10C670001A707B181B785BB21800BD4604B080BDF1
:10C6800080B582B000AF7860A023DB051800BD46FE
:10C6900002B080BD90B585B000AF78600C0010008E
:10C6A0001900FB1C221C1A70BB1C021C1A707B1C7C
:10C6B0000A1C1A703B1D1800FFF7E2FF0300FB6025
:10C6C000FB1C1A78BB1C1B785B001A437B1C1B7875
:10C6D0009B001A432023FB181B781B021A431100EE
:10C6E0002423FB181B781B047A681943FB68C132AA
:10C6F000FF329200D150C046BD4605B090BD80B516
:10C7000084B002AF7860786800230193002300931F
:10C71000002301220121FFF7BDFFC046BD4602B044
:10C7200080BD80B584B002AF78600A00FB1C1A702F
:10C73000FB1C1A78786800230193002300931300F0
:10C7400000220021FFF7A6FFC046BD4602B080BD13
:10C7500080B584B002AF786078680023019300232D
:10C760000093002301220021FFF794FFC046BD463D
:10C7700002B080BD80B584B000AF78603B1D18006A
:10C78000FFF77EFF0300FB607B6801229A40FB6895
:10C790001100180000F004F8C046BD4604B080BD8A
:10C7A00080B582B000AF786039607A68A123DB0081
:10C7B0003968D150C046BD4602B080BD80B582B058
:10C7C00000AF786039603B681B68013309D03B6873
:10C7D0001B681800FFF7CEFF3B681B681800FFF7C7
:10C7E0008EFF3B685B68013305D03B685B680021C6
:10C7F0001800FFF796FF7B681A683B689B69190071
:10C800001000FFF70DFF7B6818683B68597D3B6897
:10C810001B7D1A00FFF7E8FE7B6818683B68196803
:10C820003B685B681A00FFF72FFE3B681B7D012BFE
:10C8300020D13B689B68013305D03B689B68002191
:10C840001800FFF76EFF3B68DB68013309D03B68D7
:10C85000DB681800FFF78EFF3B68DB681800FFF706
:10C860004EFF7B6818683B68D9683B689B681A0074
:10C87000FFF764FEC046BD4602B080BD80B582B001
:10C8800000AF78600A00FB1C1A707B681A688E2360
:10C890005B0019001000FFF777FD7B681A68A22380
:10C8A0005B0019001000FFF76FFD7B681B680B4AE7
:10C8B00011001800FFF78CFD7B681B681800FFF75C
:10C8C000CFFE03001A00FB1C1B781900100001F0BA
:10C8D00059FDC046BD4602B080BDC0468000020082
:10C8E00080B582B000AF78607B681B68084A110091
:10C8F0001800FFF78DFD7B681B681800FFF7B0FE7E
:10C9000003001800FFF79CFEC046BD4602B080BD84
:10C910008402020080B586B000AF78607B681B6837
:10C920001800FFF7D7FD03007B617B681B681800C8
:10C93000FFF7DEFD03003B617B681B681800FFF713
:10C94000E5FD0300FB607B681B681800FFF7EAFD4C
:10C950000300BB607B681B681800FFF7ABFD7B68BA
:10C960001B681800FFF7FEFD7B69013303D07B696C
:10C970001800FFF7EDFE3B69013303D03B69180057
:10C98000FFF7E6FEBB68013303D0BB681800FFF772
:10C99000DFFEFB68013303D0FB681800FFF7D8FE09
:10C9A000C046BD4606B080BD80B582B000AF78609D
:10C9B0007B681B681800FFF74CFDC046BD4602B0FF
:10C9C00080BD80B582B000AF78607B681B681800BE
:10C9D000FFF74CFDC046BD4602B080BD80B586B0B5
:10C9E00000AFF860B9607A60FB681B791A00130029
:10C9F000DB009B1A9B001E4A9B187B6100233B6156
:10CA00007B69DB7E002B03D008233B613B692BE075
:10CA1000BA68FB6811001800FFF7D0FE7B697A68DE
:10CA20005A60BB681A697B691A607B695B68002B76
:10CA300006D0BB681A7FFB6811001800FFF71EFFC5
:10CA4000FB681800FFF7B0FF7B690022DA757B698D
:10CA500000221A767B6900229A757B690122DA76B8
:10CA60007B6900229A763B691800BD4606B080BDFE
:10CA70000422002080B584B000AF78607B681B7909
:10CA80001A001300DB009B1A9B000E4A9B18FB60E8
:10CA90007B681800FFF795FFFB685B68002B03D0ED
:10CAA0007B681800FFF71CFF7B681800FFF732FF58
:10CAB000FB680022DA76FB6800225A60C046BD4659
:10CAC00004B080BD0422002080B584B000AF78603F
:10CAD00039608E235A007B6811001800FFF754FC60
:10CAE0003B689B683A68928A92B29A180F217B1829
:10CAF00012781A703B689B8A9BB201339AB23B68EA
:10CB00009A827B181A787B6811001800FFF748FD9D
:10CB1000C046BD4604B080BD80B584B000AF78602B
:10CB20007B681B791A001300DB009B1A9B003A4AB2
:10CB30009B18BB600023FB607B681A688E235B0038
:10CB400019001000FFF720FC7B681B680821180003
:10CB5000FFF738FD7B681B68BA6811001800FFF703
:10CB6000B3FFBB685B68002B50D124E0C0467B68F4
:10CB70001A688E235B0019001000FFF716FC0300F3
:10CB80001A0001235340DBB2002B06D0BB689B8AFE
:10CB90009AB280235B009A42E9D1BB689B8A9AB221
:10CBA00080235B009A4206D07B681B68BA6811003C
:10CBB0001800FFF789FFBB689B8A9AB2BB689B7D10
:10CBC0009BB29A42D2D3BB689B8A9AB280235B0005
:10CBD0009A4202D10F23FB6015E0C0467B681A68B9
:10CBE0008E235B0019001000FFF7DFFB03001A0023
:10CBF00001235340DBB2002BF0D17B681B680C2172
:10CC00001800FFF7DFFCBB6800229A75FB6818006C
:10CC1000BD4604B080BDC0460422002080B586B069
:10CC200000AFF860B960FB1D1A70FB681B791A0031
:10CC30001300DB009B1A9B000F4A9B187B61FB686B
:10CC4000180000F01BF8031E03D011233B613B6961
:10CC50000EE07B69FA1D12789A757B69BA689A6052
:10CC60007B6900229A82FB681800FFF755FF0300DA
:10CC70001800BD4606B080BD0422002080B582B0F9
:10CC800000AF78607B681B791900074A0B00DB0056
:10CC90005B1A9B00D31816331B785A1E9341DBB2E4
:10CCA0001800BD4602B080BD0422002090B583B0BC
:10CCB00000AF786039603B68DB7D002B0BD18423AB
:10CCC0005A007B6811001800FFF75EFB7B681800B4
:10CCD000FFF758FC19E084235A007B681100180004
:10CCE000FFF752FB3B68DB683A68527ED2B29C1871
:10CCF0007B681800FFF746FC030023703B685B7EEF
:10CD0000DBB20133DAB23B685A76BD4603B090BD60
:10CD100090B589B000AFF8607A600B243B190A1C0B
:10CD20001A7010203B1801221A703B183A19127819
:10CD30001A723B187A685A60FB685A68FB6819686F
:10CD40003B1818009047C046BD4609B090BD80B55D
:10CD500086B000AF78600A00FB1C1A7008203B18F0
:10CD600000221A703B18FA1C12781A727B689A68B3
:10CD70003B185A607B6800229A757B685A687B680A
:10CD800019683B1818009047C046BD4606B080BDE4
:10CD900090B589B000AF7860396080239A007B68D5
:10CDA00011001800FFF722FB031E45D092235A0002
:10CDB0007B6811001800FFF7F8FA031E3CD092239D
:10CDC0005A007B6811001800FFF7DEFA81239A00F1
:10CDD0007B6811001800FFF71BFB3B689B7E01225C
:10CDE0005340DBB2002B04D07B6804211800FFF70E
:10CDF000E9FB082004003B1802221A707B68180027
:10CE0000FFF714FB020020003B18DA603B68DA7D74
:10CE10003B181A723B68DA683B185A603B6800227C
:10CE2000DA753B6800221A763B685A683B681968D5
:10CE30003B18180090475DE07B6804211800FFF75D
:10CE4000D5FA031E56D084235A007B6811001800BF
:10CE5000FFF7ABFA031E4DD03A687B68110018004B
:10CE6000FFF724FF3B68DA7D3B685B7EDBB29A42CA
:10CE700040D13B681B7E002B1DD03B68DB68FB610B
:10CE80001B217B183A68527E1A703B681A7E3B68F9
:10CE9000DA753B681A693B68DA603B6800221A76EB
:10CEA0003B6800225A76FA697B1819783B681800AB
:10CEB000FFF72EFF1EE03B689B7E01225340DBB252
:10CEC000002B04D07B6804211800FFF77BFB812333
:10CED0009A007B6811001800FFF79AFA3B6800225D
:10CEE000DA753B685B7ED9B23B68DA683B6818004C
:10CEF000FFF70EFF8E235A007B6811001800FFF722
:10CF000054FA031E20D03B689B8A9AB23B689B7DF3
:10CF10009BB29A4206D23A687B6811001800FFF76C
:10CF2000D3FD11E08E235A007B6811001800FFF733
:10CF30002BFA3B689B7D002B06D03B689A7D3B68B3
:10CF400011001800FFF703FFA2235A007B681100AD
:10CF50001800FFF72AFA031E1FD0A2235A007B688D
:10CF600011001800FFF710FA3B689B7E002B04D0DD
:10CF70007B6800211800FFF725FB3B68DB7D002B59
:10CF80000BD03B680022DA753B685B7ED9B23B6808
:10CF9000DA683B681800FFF7BBFEC046BD4609B023
:10CFA00090BD000080B500AF044B054A1900100089
:10CFB000FFF7EEFEC046BD4680BDC04604220020FD
:10CFC0000020004080B586B000AF78600C217B184F
:10CFD00000221A807B1800225A607B187A689A60B7
:10CFE0007B1804481A00002100F016F8C046BD4620
:10CFF00006B080BD0140000080B500AFBFF34F8F89
:10D00000034B044ADA60BFF34F8FC046FDE7C046CA
:10D0100000ED00E00400FA0580B584B000AFF860D0
:10D02000B9607A60054B19000120FEF74BF9FFF754
:10D03000E3FFC046BD4604B080BDC04600660200A6
:10D0400080B582B000AF0200FB1D1A70FB1D1B787B
:10D050001A001F231A40044B012191400A001A6054
:10D06000C046BD4602B080BD00E100E080B582B0A0
:10D0700000AF0200FB1D1A70FB1D1B781A001F2356
:10D080001340054901229A40130080228B50C0466C
:10D09000BD4602B080BDC04600E100E080B582B070
:10D0A00000AF0200FB1D1A70FB1D1B781A001F2326
:10D0B0001340054901229A4080235B00CA50C046B4
:10D0C000BD4602B080BDC04600E100E080B582B040
:10D0D00000AF0200FB1D1A70FB1D1B781A001F23F6
:10D0E0001340054901229A40C0235B00CA50C04644
:10D0F000BD4602B080BDC04600E100E090B583B0FF
:10D1000000AF02003960FB1D1A70FB1D1B787F2BDE
:10D1100032D92F4AFB1D1B7819000F230B40083B07
:10D120009B0806339B00D31804331B68FA1D127842
:10D13000110003220A40D200FF2191400A00D2438D
:10D140001A4011003B689B01FF221A40FB1D1B780F
:10D15000180003230340DB009A401D48FB1D1B7889
:10D160001C000F232340083B9B080A4306339B0007
:10D17000C31804331A6027E0164AFB1D1B785BB204
:10D180009B08C0339B009B58FA1D127811000322A4
:10D190000A40D200FF2191400A00D2431A401100F8
:10D1A0003B689B01FF221A40FB1D1B7818000323DC
:10D1B0000340DB009A400748FB1D1B785BB29B08CD
:10D1C0000A43C0339B001A50C046BD4603B090BD11
:10D1D00000ED00E000E100E080B582B000AF7860D3
:10D1E0007B68032213405A425341DBB21800BD460C
:10D1F00002B080BD80B584B000AF78600D4BFB609D
:10D200007B68002B11D00C4B1A68F9687B68C0460C
:10D21000C046C046C046C046C046C046C0468A4218
:10D2200000D0C046013BF2D17B60C046BD4604B091
:10D2300080BDC0460024F4001C1F002080B582B0D1
:10D2400000AF78600649A123DB007A68CA50032149
:10D250001120FFF753FFC046BD4602B080BDC04657
:10D260000010014080B500AF0E49D1239B00802201
:10D270005202CA500B49C1239B0080225202CA505D
:10D280001120FFF723FF1120FFF7DAFE054B0122E3
:10D290001A602F20FFF7AEFF034B01221A70C04621
:10D2A000BD4680BD001001404022002080B500AF87
:10D2B0001120FFF7DBFE1049D2239B00802252028F
:10D2C000CA500D49C2239B0080225202CA500A4B09
:10D2D00001225A602F20FFF78DFF074B01229A6031
:10D2E000064B00221A602F20FFF784FF044B002218
:10D2F0001A70C046BD4680BD001001402C2200209F
:10D300004022002080B500AF024A034BD3581800DA
:10D31000BD4680BD001001400405000080B582B00C
:10D3200000AF786039607A683B68D31A1B021B0A29
:10D330001800BD4602B080BD80B582B000AF7860F5
:10D340000449A823DB007A68CA50C046BD4602B033
:10D3500080BDC0460010014080B586B000AF786047
:10D36000284B1B68002B03D1264B7A681A6045E0D6
:10D370007B681A68234B1B681B689A4210D8214BA4
:10D380001B6819687B681A681E4B1B688A1A1A602A
:10D390001C4B1A687B68DA611A4B7A681A602DE0B8
:10D3A0007B681B68FB60174B1B687B61154B1B6818
:10D3B0003B6109E03B691B68FA68D31AFB603B6973
:10D3C0007B613B69DB693B613B69002B04D03B69B6
:10D3D0001B68FA689A42EDD83B69002B05D03B697F
:10D3E0001A68FB68D21A3B691A607B68FA681A608F
:10D3F0007B683A69DA617B697A68DA61C046BD4662
:10D4000006B080BD2822002080B586B000AF7860CD
:10D41000224B1B687B617B693B6108E03A697B6852
:10D420009A4208D03B697B613B69DB693B613B69A0
:10D43000002BF3D100E0C0463B69002B29D07A696C
:10D440003B699A4211D1154B1B68DA69134B1A607C
:10D45000124B1B68002B08D1114B01229A60114B13
:10D4600000221A60104B01221A703B691B68FB6096
:10D470003B69DA697B69DA617B69DB693B613B693E
:10D48000002B07D03B691A68FB68D2183B691A6009
:10D4900000E0C046BD4606B080BDC0462822002040
:10D4A000001001402C2200204122002080B500AF56
:10D4B0001120FFF7F3FDC046BD4680BD80B500AF2B
:10D4C0001420FFF7EBFDC046BD4680BD80B584B09B
:10D4D00000AF7860104B1B68002B13D00E4B1A68FE
:10D4E0007B6858697B689B69190090470300FB6063
:10D4F000FB68BB60BB68002B0AD0BB681800FFF755
:10D5000061FD05E07B685A697B689B69180090475C
:10D51000C046BD4604B080BD3C22002080B584B02A
:10D5200000AF2C4B1B68002B50D000237B60FFF713
:10D53000E9FE0200284B1B6819001000FFF7EEFE01
:10D540000300BB60234B1B68FB601EE0FB681B688D
:10D55000BA689A421DD3FB681B68BA68D31ABB60CD
:10D56000FB681B687A68D3187B60FB683B60FB68CC
:10D57000DB69FB603B681B7C002B06D03B6800220C
:10D580001A743B681800FFF7A1FFFB68002BDDD180
:10D5900000E0C046114B1A78114B1B789A420CD10F
:10D5A0000F4B1B780133DAB20D4B1A700C4B1B7802
:10D5B000022B02D10A4B00221A70094B1B781A0069
:10D5C000084B92007968D150FFF778FFC046BD46FE
:10D5D00004B080BD282200202C2200203822002008
:10D5E000392200203022002080B582B000AF786060
:10D5F000184B1A78184B1B789A4223D0154B1B787E
:10D600000133DAB2134B1A70124B1B78022B02D182
:10D61000104B00221A700F4B1B781A000F4B920010
:10D62000D2587B681A607B681A680D4B1B68D21849
:10D630000B4B1A600A4B1B681B021A0A084B1A6034
:10D64000012303E07B6800221A6000231800BD4616
:10D6500002B080BD38220020392200203022002074
:10D660002C22002080B584B000AF0F23FB18284A7D
:10D6700012781A70274B1B68BB6036E0244B596840
:10D680000F203B181A7813005B009B18DB00CB18A7
:10D690007B603B181A783B1801321A701C4B9B7840
:10D6A0003A1812789A4203D10F23FB1800221A70FD
:10D6B0007B681B78022B02D0032B10D014E07B6810
:10D6C0005B681800FFF7A0FE0FE0124B1B683B6081
:10D6D0003B6800221A743B68DA690E4B1A600D4BE6
:10D6E0001B68002BF1D100E0C046094B5B780F228C
:10D6F000BA1812789A42C1D1064B1B68BA68D31A7D
:10D700005A1E9341DBB21800BD4604B080BDC0462E
:10D71000202200202822002080B588B000AFF860C9
:10D72000B9607A600023FB6138E0204B1B68BB6165
:10D73000BB691B68FA689A4206D2BB691A68FB6823
:10D74000D21ABB691A602DE0BB691B68FA68D31A4C
:10D75000FB60BB691B68FA69D318FB61BB690022D7
:10D760001A60124B1B687B61BB69DA690F4B1A6048
:10D77000BB69DB68002B11D0BA68FB69D3181B02A8
:10D780001A0ABB695A60BB69DA68BB699A607B6830
:10D790001A68BB69DA617B687A691A60034B1B6897
:10D7A000002BC2D1C046BD4608B080BD2822002053
:10D7B00080B586B000AF7860504B1B683B6187E056
:10D7C0007B68002B05D07B687B617B69DB697B60B4
:10D7D0003CE04B4B5A684A4B1B7819000B005B002E
:10D7E0005B18DB00D318FB60454B1B780133DAB2C2
:10D7F000434B1A70424B1A78414B9B789A4202D1A4
:10D800003F4B00221A70FB685B687B61FB681B78EA
:10D81000012B5DD17B691B7C002B00D058E0FB689D
:10D820009A687B695A60FB68DA687B699A60FB6872
:10D830001A697B69DA60FB685A697B699A61314BC6
:10D840001B78002B02D07B6900225A607B695A68E2
:10D850002D4B1B68D31A1B021B0A2C4A93420ED86D
:10D860007B695A68284B1B6819001000FFF756FDAA
:10D8700002007B699B68D2187B691A6018E0224B12
:10D880001A687B695B6819001000FFF747FD030009
:10D89000BB607B699B68BA689A4206D27B699A68CA
:10D8A000BB68D21A7B691A6002E07B6900221A60A9
:10D8B0007B6900225A607B6900229A607B690122A1
:10D8C0001A747B690022DA617B691800FFF744FD56
:10D8D0007B68002B00D073E7094B1A78084B5B7804
:10D8E0009A4200D06CE7054B1B683A69D31A5A1E5E
:10D8F0009341DBB21800BD4606B080BD282200204F
:10D9000020220020412200202C220020FEFF7F0048
:10D9100090B589B000AF78602B4B1B68002B4DD0C1
:10D92000294B1B681B68FB61FFF7ECFC0300BB6124
:10D93000264B1B687B617A69BB6911001800FFF7F1
:10D94000EDFC030003333B61214B1B780122534064
:10D95000DBB2002B01D0FFF785FCFA693B699342EB
:10D9600000D213007A69D3187B617B691B021B0A02
:10D970007B617B691800FFF7DFFCFFF7C3FC030046
:10D98000FB60BA69FB6811001800FFF7C7FC0300D1
:10D99000DC1CBA697B6911001800FFF7BFFC0300AB
:10D9A0009C420DD9FFF7AEFC03001800FFF7C4FC42
:10D9B0002F20FFF71FFCFFF779FD01E0FFF776FC52
:10D9C000C046BD4609B090BD282200202C22002070
:10D9D00040220020B0B586B000AF00237B601E4B14
:10D9E0001B683B611D4B1B68FB600B257C193B00D2
:10D9F0001800FFF7F9FD030023701723FC18FFF749
:10DA000031FE030023707B191B78002B09D03B6883
:10DA10003A1D39691800FFF77FFE1723FB18012212
:10DA20001A707B681800FFF7C3FE031E03D017238C
:10DA3000FB1801221A701723FB181B78002B03D048
:10DA4000FB681800FFF764FF054B00221A70C04600
:10DA5000BD4606B0B0BDC0462C22002028220020C2
:10DA60004122002080B582B000AF0200FB1D1A7079
:10DA7000034BFA1D12785A70C046BD4602B080BDF5
:10DA80002022002080B584B000AF7860164B5A7811
:10DA90000F217B1801321A70134B9B787A18127879
:10DAA0009A4203D10F23FB1800221A700E4B1B78E9
:10DAB0000F22BA1812789A4201D1002310E07B6835
:10DAC0000F22BA1812781A70074B5A68064B5B7807
:10DAD00019000B005B005B18DB00D318BB60BB6850
:10DAE0001800BD4604B080BD2022002080B588B05B
:10DAF00000AFF860B9607A603B600023FB611621DB
:10DB00007B1800221A707B18180000F09BF917236D
:10DB1000FB181800FFF7B6FF0300BB61BB69002BC1
:10DB200002D10423FB6119E0BB6901221A70BB69B1
:10DB3000FA685A60FFF7E6FB0200BB699A60BB69AE
:10DB4000BA68DA60BB697A681A61BB693A685A6177
:10DB50001723FB181B781800FFF784FF1623FB1808
:10DB60001B78180000F07AF9FB69002B01D1FFF750
:10DB7000A5FCFB691800BD4608B080BD80B500AFAC
:10DB8000114AA0235B000021D1500F4AA2235B0061
:10DB90000021D1500C4AA4235B000021D1500A4A35
:10DBA000A6235B000021D150074A80235B0000219F
:10DBB000D150054A82235B000021D150FFF7AEFC13
:10DBC000C046BD4680BDC0460010014080B500AFD4
:10DBD000FFF700FFC046BD4680BD000080B584B0A1
:10DBE00000AFF8607A603B600B23FB180A1C1A70C8
:10DBF0007B681800FFF7F0FA03001A000123534076
:10DC0000DBB2002B01D0072334E07B68002B01D16D
:10DC100007232FE0FFF74AFB184B3A681A60184BAE
:10DC200000221A70164B00225A70154B0B22BA189C
:10DC300012789A70124B7A685A60124B00221A605E
:10DC4000114B00221A70114B00221A701420FFF79A
:10DC50003DFA03211420FFF751FA1420FFF7F0F9E1
:10DC6000FB681800FFF7EAFAFFF74CFB0200084BCD
:10DC70001A6000231800BD4604B080BD3C2200207D
:10DC800020220020282200203822002039220020D3
:10DC90002C22002080B586B000AFF8607A600B239C
:10DCA000FB180A1C1A70154B5B68002B01D1082366
:10DCB0001FE07B68002B01D107231AE0FB68002BD3
:10DCC00001D1072315E0FB681B681B7C002B01D0EA
:10DCD00008230EE0FB681B687B617B6900221A74D5
:10DCE0007B690B22BA1812785A747B697A685A6178
:10DCF00000231800BD4606B080BDC046202200208B
:10DD000080B586B000AFF860B9607A60FB687B616F
:10DD1000144B5B68002B01D108231EE0FB68002B2D
:10DD200001D1082319E0BB68042B01D8072314E0B4
:10DD30007B695B69002B01D108230EE07B695B7C6A
:10DD4000012B01D1BB6800E000233B617B683A698D
:10DD5000B9687869FFF7CAFE03001800BD4606B02F
:10DD600080BDC0462022002080B582B000AFEFF316
:10DD700010833B603B687B6072B67B681800BD46D1
:10DD800002B080BD80B500AF62B6C046BD4680BD62
:10DD900080B584B000AF7860FFF7E6FF0300FB605A
:10DDA000114B5B68002B11D10F4B01225A600F4AB7
:10DDB0008023D3580E4A1A400B4B1A600B4A80231B
:10DDC0000B49D1507B6800221A7002E07B68012267
:10DDD0001A70FB68002B01D1FFF7D4FF0023180055
:10DDE000BD4604B080BDC046382B002000E100E0F5
:10DDF000FC06FFBC80B584B000AF0200FB1D1A70AA
:10DE00000E4B5B68002B13D0FB1D1B78002B0FD132
:10DE1000FFF7AAFF0300FB60094A084B1B68136069
:10DE2000064B00225A60FB68002B01D1FFF7AAFFC6
:10DE300000231800BD4604B080BDC046382B00202A
:10DE400000E100E080B582B000AF78607B68180028
:10DE5000FFF79EFFC046BD4602B080BD80B582B0D0
:10DE600000AF0200FB1D1A70FB1D1B781800FFF7A6
:10DE7000C1FFC046BD4602B080BD80B582B000AFD4
:10DE800078608023DA05C1239B007968D150C046B1
:10DE9000BD4602B080BD80B582B000AF78608023FF
:10DEA000DA05C2239B007968D150C046BD4602B056
:10DEB00080BD80B582B000AF0200FB1D1A70FB1D53
:10DEC0001B788022D2059446634401221A60C04622
:10DED000BD4602B080BD80B582B000AF0200BB1D60
:10DEE0001A80BB1D1B888022D20594466344002201
:10DEF0001A60C046BD4602B080BD80B582B000AF9A
:10DF00000200BB1D1A80BB1D1B888022D2059446CF
:10DF100063441B685A1E9341DBB21800BD4602B031
:10DF200080BD80B582B000AF0200FB1D1A70FB1DE2
:10DF30001B788022D20503211940A323DB00D15096
:10DF4000C046BD4602B080BD80B582B000AF0200C1
:10DF5000FB1D1A700B4AFB1D1B785BB25B099B0013
:10DF60009A58FB1D1B7819001F230B40DA40130041
:10DF7000012213405A1E9341DBB21800BD4602B085
:10DF800080BDC04600E100E080B500AF0020FFF793
:10DF9000DBFF03001A0001235340DBB2002B03D048
:10DFA0000321002000F0EEF9C046BD4680BD80B5DB
:10DFB00000AF82235B001800FFF78DFF0220FFF700
:10DFC0005CFF0820FFF775FFC046BD4680BD00001E
:10DFD00080B582B000AF00237B60144B1B78002B10
:10DFE00002D085237B601CE0104B00229A600F4B0F
:10DFF00000225A600D4B00221A610C4B0022DA609D
:10E00000FFF7C2FF06F0C6FE03001A0001235340CB
:10E01000DBB2002B02D00020FFF783FF034B01226D
:10E020001A707B681800BD4602B080BD44220020F3
:10E0300080B584B000AF786039607B681B68FB6096
:10E0400006E0FA683B689A420DD0FB681B68FB60EB
:10E05000FB68002BF5D17B681A683B681A607B6807
:10E060003A681A6000E0C046BD4604B080BD80B585
:10E0700084B000AF78607B681B68FB60FB68002B96
:10E0800003D0FB681A687B681A60FB681800BD46FD
:10E0900004B080BD90B585B000AF7860224B9B780E
:10E0A000DBB2002B19D07B68002B03D07B685B6848
:10E0B000012098470F243B1900221A703B191800C1
:10E0C000FFF7C0FE184BDB685A1C174BDA603B1990
:10E0D0001B781800FFF7C2FE21E00E217B180022FA
:10E0E0001A707B181800FFF7ADFE7B68002B05D077
:10E0F0007A680E4B11001800FFF79AFF0A4BDB6895
:10E10000002B01D1FFF753FF074BDB685A1C064B6E
:10E11000DA600E23FB181B781800FFF79FFEC0463D
:10E12000BD4605B090BDC0464422002054220020C8
:10E1300080B584B000AF0200FB1D1A70FB1D1B7878
:10E14000002B02D10C4BFB6001E00C4BFB60FB6829
:10E150001800FFF78CFF0300BB60BB68002B06D0E4
:10E16000BB685B68FA1D127810009847EFE7C0465D
:10E17000C046BD4604B080BD4C2200205422002081
:10E1800080B500AF80235B001800FFF7B6FE031ECA
:10E190000DD080235B001800FFF79DFE0120FFF7E4
:10E1A0007AFE0F4B01225A700020FFF7C1FF822335
:10E1B0005B001800FFF7A1FE031E0DD082235B0059
:10E1C0001800FFF788FE0220FFF765FE044B0122CE
:10E1D0009A700120FFF7ACFFC046BD4680BDC04627
:10E1E0004422002080B582B000AF78607B68002BAD
:10E1F00002D10020FFF79CFFC046BD4602B080BDA3
:10E2000080B582B000AFFB1D00221A70FB1D180004
:10E21000FFF718FE0C4B1B7801225340DBB2002B9A
:10E2200001D0FFF7D5FE084BDB685A1C064BDA60BD
:10E23000054B01229A70FB1D1B781800FFF70EFE9C
:10E24000C046BD4602B080BD4422002080B582B0E9
:10E2500000AF0200FB1D1A70FB1D1B781A001F2364
:10E260001A40044B012191400A001A60C046BD4685
:10E2700002B080BD00E100E080B582B000AF0200D6
:10E28000FB1D1A70FB1D1B781A001F231340054944
:10E2900001229A40C0235B00CA50C046BD4602B06E
:10E2A00080BDC04600E100E090B583B000AF020041
:10E2B0003960FB1D1A70FB1D1B787F2B32D92F4A4A
:10E2C000FB1D1B7819000F230B40083B9B080633EE
:10E2D0009B00D31804331B68FA1D12781100032227
:10E2E0000A40D200FF2191400A00D2431A40110097
:10E2F0003B689B01FF221A40FB1D1B78180003237B
:10E300000340DB009A401D48FB1D1B781C000F23B7
:10E310002340083B9B080A4306339B00C318043381
:10E320001A6027E0164AFB1D1B785BB29B08C033BE
:10E330009B009B58FA1D1278110003220A40D2005C
:10E34000FF2191400A00D2431A4011003B689B0113
:10E35000FF221A40FB1D1B78180003230340DB003B
:10E360009A400748FB1D1B785BB29B080A43C033E9
:10E370009B001A50C046BD4603B090BD00ED00E0C2
:10E3800000E100E080B582B000AF0200FB1D1A7012
:10E39000BB1D0A1C1A70BB1D1A78FB1D1B785BB2D3
:10E3A00011001800FFF780FFFB1D1B785BB21800FF
:10E3B000FFF762FFFB1D1B785BB21800FFF746FFFB
:10E3C000C046BD4602B080BD80B582B000AF02003D
:10E3D000BB1D1A80BB1D1B88180000F01DF8030030
:10E3E0001B68013B5A425341DBB21800BD4602B0E4
:10E3F00080BD80B582B000AF0200BB1D1A80BB1D7E
:10E400001B88180000F008F8030000221A60C046BC
:10E41000BD4602B080BD000080B582B000AF0200F2
:10E42000BB1D1A80BB1D1B88034A94466344180019
:10E43000BD4602B080BDC0460060004080B582B0DD
:10E4400000AF7860044AC1239B00D3587A68134018
:10E450001800BD4602B080BD0060004080B582B0AB
:10E4600000AF7860064A7B684533FF339B009B58BA
:10E470001B0A1F2213401800BD4602B080BDC046D3
:10E480000060004080B582B000AF7860064A7B68CB
:10E490004533FF339B009B581B0C03221340DBB218
:10E4A0001800BD4602B080BD0060004080B582B05B
:10E4B00000AF7860A023DB051800BD4602B080BD28
:10E4C00080B584B000AF78600A00FB1C1A703B1D59
:10E4D0001800FFF7EBFF0300FB607A68FB68C132AE
:10E4E000FF329200D3587A680D491940FB68C13257
:10E4F000FF329200D1507A68FB68C132FF3292003D
:10E50000D358FA1C1278120411007A681943FB6878
:10E51000C132FF329200D150C046BD4604B080BD2A
:10E52000FFFFFCFF80B584B000AF78603B1D180092
:10E53000FFF7BCFF0300FB607A68FB68C132FF3263
:10E540009200D3581B0C03221340DBB21800BD46C7
:10E5500004B080BD80B582B000AF78607A68A22335
:10E56000DB00D3581800BD4602B080BD80B586B030
:10E5700000AFF860B9607A60A023DB053B61FB68FF
:10E580007B6113E07B699B0018229446BC44634482
:10E59000083B1B681800FFF7DDFF02007B681A606C
:10E5A0007B6804337B607B6901337B61FA68BB68FD
:10E5B000D3187A699A42E5D3C046BD4606B080BDFD
:10E5C00080B584B000AF786039603B68FB607B68E1
:10E5D000DB08BB607B68072213407B6001227B68FD
:10E5E0009A401300F968BA688A1812781340180024
:10E5F000BD4604B080BD80B584B000AF786039609E
:10E600003B68FB607B68DB08BB607B6807221340CC
:10E610007B60FA68BB68D3181B785AB201217B680B
:10E6200099400B005BB2134359B2FA68BB68D31828
:10E63000CAB21A70C046BD4604B080BD80B582B073
:10E6400000AF7860054A20217B68D3185B181B78DF
:10E650005BB21800BD4602B080BDC0465822002003
:10E6600080B582B000AF7860034B7A689200D358CF
:10E670001800BD4602B080BD5822002090B595B06C
:10E6800000AF0023FB640023FB604623FB188022BD
:10E6900052001A8001233B640023BB6423E046231D
:10E6A000FB181B881800FFF78FFE031E0FD03B6C72
:10E6B0001800FFF7C3FE031E09D04623FB181B8872
:10E6C0001800FFF796FEFA6C3B6C1343FB643B6C3F
:10E6D0005B003B644622BB18BA18128804321A80C9
:10E6E000BB6C0133BB64BB6C032BD8D9BE235B006E
:10E6F0001800FFF769FE031E10D0BE235B00180050
:10E70000FFF777FEFB6C802212061343FB640C2399
:10E71000FB181A0001210020FFF728FFFB6C0F22D5
:10E7200013402FD001233B640023BB6427E03B6CE4
:10E73000FA6C13401DD0BB6C1800FFF78FFE03006E
:10E740007B633323FC18BB6C1800FFF79BFE0300B0
:10E750002370BB6C1800FFF783FF0300FB62FB6AAA
:10E76000002B06D03323FB1819787A6BFB6A100054
:10E7700098473B6C5B003B64BB6C0133BB64BB6C78
:10E78000032BD4D9FB6C002B00DB1DE13B23FB18D2
:10E7900000221A700023BB600023FB630CE0FB6BBC
:10E7A0009B0050229446BC4463444C3B012252429D
:10E7B0001A60FB6B0133FB63FB6B002BEFD03B2339
:10E7C000FB1800221A700023BB6491E0804A4021AC
:10E7D000BB6CD3185B1800229A562B217B181A7039
:10E7E0007B181B78C02293437B62794A4021BB6C23
:10E7F000D3185B181B785BB2013300D175E03A1D6A
:10E800007B6A11001800FFF7DBFE031E00D16CE0ED
:10E810002323FB182B22BA18127892091A707B6AEC
:10E820001800FFF70BFF03001800FFF719FF0300A4
:10E83000FB61FB69002B04D12323FB181B78032BFE
:10E8400053D12323FB181B78032B06D10823FA1876
:10E850007B6A11001800FFF7CEFE1B23FC187B6AB1
:10E860001800FFF75FFE030023700C23FA187B6A81
:10E8700011001800FFF7A4FE03007B617B69002BE9
:10E8800004D01B23FB181B78022B07D07B69002BBD
:10E890002BD11B23FB181B78032B26D12323FB181A
:10E8A0001B78032B17D11B23FB181B78022B01D1DC
:10E8B000032200E0022213217B181A707B181A78B9
:10E8C0007B6A11001800FFF7FBFD3B22BB18BA184A
:10E8D000127801321A70FB69002B06D02323FB1833
:10E8E00019787A6AFB6910009847BB6C0133BB64E6
:10E8F000BB6C032B00D869E73B23FB181B78002B6C
:10E900005CD03A23FB1801221A703B001A00012147
:10E910000020FFF72BFE0023FB6319E0FB6B9B003D
:10E9200050229446BC446344503B1A68FB6B9B00E6
:10E9300050218C46BC446344443B1B689A4204D03B
:10E940003A23FB1800221A7005E0FB6B0133FB63CE
:10E95000FB6B002BE2D03A23FB181B78002B04D072
:10E960003B23FB1800221A7028E00023FB6322E0FF
:10E97000FB6B9B0050229446BC446344503B1A6896
:10E98000FB6B9B0050218C46BC446344443B1A60A3
:10E99000FB6B9B0050229446BC446344483B1A687E
:10E9A000FB6B9B0050218C46BC4463444C3B1A607B
:10E9B000FB6B0133FB63FB6B002BD9D03B23FB18B4
:10E9C0001B78002B00D0FAE6C046BD4615B090BDBE
:10E9D0005822002048DF7047C046180090B587B025
:10E9E00000AFF8607A600A23FB180A1C1A807B6863
:10E9F000002B02D07B681A8800E02F4A1423FB18F2
:10EA00001A801623FB1800221A8045E014203B18B8
:10EA10001B881B0A9BB2DBB21AB23B181B881B0275
:10EA20001BB213431AB23B181A8016243B191B88D9
:10EA3000FA68D3181B7899B23B183A1812884A40E2
:10EA40001A803B181B88DBB21B09DBB299B23B185A
:10EA50003A1812884A401A8001007B181B881B0351
:10EA60001AB27B1800201B5E53401AB27B181A8022
:10EA70007B181B885B011AB2FF235B0113401AB29B
:10EA80007B1800201B5E53401AB27B181A803B197A
:10EA90001A883B1901321A801623FA180A23FB1828
:10EAA00012881B889A42B1D31423FB181B881800C4
:10EAB000BD4607B090BDC046FFFF000080B582B0E4
:10EAC00000AF7860124A134B0221D150C046104A61
:10EAD0008023DB00D358002BF9D00D497A68A1239D
:10EAE000DB00CA50C0460A4A8023DB00D358002B03
:10EAF000F9D0074A074B0021D150C046044A802371
:10EB0000DB00D358002BF9D0C046BD4602B080BD13
:10EB100000E001400405000080B582B000AF7860DD
:10EB20003960124A124B0121D150C0460F4A80234E
:10EB3000DB00D358002BF9D07B683A681A60C046D6
:10EB40000A4A8023DB00D358002BF9D0074A084B30
:10EB50000021D150C046054A8023DB00D358002B4A
:10EB6000F9D0C046BD4602B080BDC04600E00140BD
:10EB70000405000080B582B000AF7860396001E024
:10EB8000FFF728FF144B1B78DBB2002BF8D1134A98
:10EB9000134B0121D150C046104A8023DB00D358CB
:10EBA000002BF9D07B683A681A60C0460B4A802374
:10EBB000DB00D358002BF9D0084A094B0021D15073
:10EBC000C046064A8023DB00D358002BF9D0C0464C
:10EBD000BD4602B080BDC046A022002000E001403A
:10EBE00004050000B0B588B000AF39601100FB1D0E
:10EBF000021C1A70BB1D0A1C1A7080235B051B695E
:10EC00009BB21A00FB1D1B7853437B617B69BB6180
:10EC1000BB1D1B789BB29B0099B212257C193B68E7
:10EC200000221800FFF7DAFE03002380BB691B688F
:10EC3000FB600A217B18FA681A807A187B191288FF
:10EC40001B889A4201D1002336E07B691800FFF748
:10EC500035FFBB690433BB61BB690433BB6100236F
:10EC6000FB610FE0FB699B003A68D3181A68BB6927
:10EC700011001800FFF750FFBB690433BB61FB694B
:10EC80000133FB61BB1D1B78FA699A42EADB7B69A1
:10EC90001A1DBB1D1B7819001000FFF76BFF122314
:10ECA000FB181B88064A1343FB60FA687B69110056
:10ECB0001800FFF75FFF00231800BD4608B0B0BD85
:10ECC0000000DE45B0B58CB000AFB9607A600F21AE
:10ECD0007B18021C1A7080235B051B699BB21A000B
:10ECE0007B181B785343FB62FB6ABB62BB6A1B68E1
:10ECF0007B627B6A1B0C1B043B623B6A1D4A93428E
:10ED000004D07B6800221A7005232EE0BB6A04330E
:10ED1000BB62BB6A1B68DAB27B681A70BB6A0433D9
:10ED2000BB627B681B789B00FB61FA69B96ABB68B0
:10ED3000180006F00DFA7B681B789BB29B0099B215
:10ED40001A257C19BB6800221800FFF747FE030054
:10ED500023807B191B88074A13437B617A697B6A8E
:10ED60009A4201D0052300E000231800BD460CB0F4
:10ED7000B0BDC0460000DE4580B582B000AF78600F
:10ED800039603B682022D31A7A68DA4113001800F0
:10ED9000BD4602B080BD80B584B000AF78607B68AE
:10EDA00003331B78FB60FB681B027A68023212781F
:10EDB0001343FB60FB681B027A680132127813432D
:10EDC000FB60FB681B027A68127813431800BD468B
:10EDD00004B080BD80B584B000AF78603960002396
:10EDE000FB600BE0FB687A68D3183A68D2B21A70FD
:10EDF0003B681B0A3B60FB680133FB60FB68032B2D
:10EE0000F0DDC046BD4604B080BD80B586B000AF21
:10EE1000F860B9607A6000233B6100237B6110E0F9
:10EE2000FA687B69D3181A78B9687B69CB181B78A4
:10EE30005340DBB21A003B6913433B617B690133EA
:10EE40007B617B687A699A42EAD33B69013B1B0A82
:10EE500001221340013B1800BD4606B080BD80B5BD
:10EE600082B000AF7860396039687B681022180082
:10EE7000FFF7CBFF03001800BD4602B080BD0000C5
:10EE8000F0B5BDB000AFF860B9607A603B600023B8
:10EE9000EC22BA18136049E0EC257B191B689B0033
:10EEA0001A003B6899187B191A6813009B009C187C
:10EEB0000800FFF770FF01006426BB19A200D150C3
:10EEC0007B191B689B001A007B689A187B191B68CA
:10EED0005C1C1000FFF75FFF0100BB19A200D150BE
:10EEE0007B191B689B001A00BB689A187B191B686A
:10EEF0009C1D1000FFF74FFF0100BB19A200D1506D
:10EF00007B191B689B0010337A68D2187B191B6829
:10EF10000B331C001000FFF73EFF0100BB19A200DD
:10EF2000D1507B191B6801337A191360EC23FB184D
:10EF30001B68032BB0DD0023EC22BA18136011E02C
:10EF40006423FB18EC203A1812689200D15824234D
:10EF5000FB183A1812689200D1503B181B68013315
:10EF60003A181360EC23FB181B680F2BE8DD002315
:10EF7000EC22BA181360CCE00023E822BA18136020
:10EF80009FE00023E422BA18136025E0E823FB1871
:10EF90001A6813009B009A18E423FB181B689B0057
:10EFA000D318C54A134004D5013B102252421343E3
:10EFB00001331A006423FB189200D1581423FB1864
:10EFC000E4221000BA1812689200D1500200BB1857
:10EFD0001B680133BA181360E423FB181B68032B6A
:10EFE000D4DD14243B191A683B19DB68D3180721B8
:10EFF0001800FFF7C1FE02003B195B685A403B193D
:10F000005A603B195A683B191B68D318092118002C
:10F01000FFF7B2FE02003B199B685A403B199A6009
:10F020003B199A683B195B68D3180D211800FFF74C
:10F03000A3FE02003B19DB685A403B19DA603B191A
:10F04000DA683B199B68D31812211800FFF794FE69
:10F0500002003B191B685A403B191A600023E42246
:10F06000BA18136022E0E8217B181B689A007B180D
:10F070001968E423FB181B68CB1890490B4004D592
:10F08000013B042149420B430133D2181423FB18DE
:10F09000E420391809688900C958A423FB18920094
:10F0A000D1503B181B6801333A181360E423FB1856
:10F0B0001B68032BD7DDE822BB181B680133BA1885
:10F0C0001360E823FB181B68032B00DC59E70023BF
:10F0D000E422BA18136011E0A423FB18E4203A18C4
:10F0E00012689200D1586423FB183A1812689200F3
:10F0F000D1503B181B6801333A181360E423FB1806
:10F100001B680F2BE8DDEC22BB181B680133BA1813
:10F110001360EC23FB181B68132B00DC2CE7842303
:10F120005B00FB181B68002B00D198E00023EC2249
:10F13000BA18136017E064243B19EC203A181268DF
:10F140009200D2582423FB18391809688900CB583B
:10F15000D1183B193A1812689200D1503B181B681D
:10F1600001333A181360EC23FB181B680F2BE2DD08
:10F170000023EC22BA1813603AE0EC243B191B6818
:10F180009B001A003B689B181800FFF704FE3B1910
:10F190001A6813009B009A1864257B199200D158B5
:10F1A0003B191A6813009B009A18091A7B199200E0
:10F1B000D150200004003B181B689B001A00BB685C
:10F1C0009B181800FFF7E7FD010020003B181B68A3
:10F1D0009A1D7B199200D3583A1812680632591AB0
:10F1E0007B199200D1503B181B6801333A18136009
:10F1F000EC23FB181B68032BBFDD0023EC22BA189D
:10F20000136026E0EC243B191B689B001A00FB6886
:10F2100098183B191A6813009B009A1864257B19EB
:10F220009200D3581900FFF7D5FD3B191B689B00CE
:10F230001033FA68D0183B191B689A1D7B1992008D
:10F24000D3581900FFF7C6FD3B191B6801333A1963
:10F250001360EC23FB181B68032BD3DD27E000238E
:10F26000EC22BA1813601DE0EC217B181B689B0090
:10F270001A00FB6898186423FB187A181268920029
:10F28000D2582423FB180C00791809688900CB5840
:10F29000D3181900FFF79EFD21007B181B6801336E
:10F2A0007A181360EC23FB181B680F2BDCDDC046BB
:10F2B000BD463DB0F0BDC0460F0000800300008099
:10F2C00090B587B002AFF860B9607A603B603C6887
:10F2D0007A68B968F868002300932300FFF7D0FD2F
:10F2E00000231800BD4605B090BD90B587B002AFB1
:10F2F000F860B9607A603B603C687A68B968F86821
:10F30000012300932300FFF7BBFD00231800BD4637
:10F3100005B090BDB0B59AB000AFF860B9603A6082
:10F320007B603B687A68134301D10023BAE0002375
:10F330003B6608E05023FA183B6ED31800221A707F
:10F340003B6E01333B663B6E0F2BF3D900233B66CC
:10F350000CE0BA6F3B6ED31819785023FA183B6E45
:10F36000D3180A1C1A703B6E01333B663B6E072BA9
:10F37000EFD957E04D4BFA6F50217918102038180B
:10F38000FFF79EFF00233B6619E0BB68002B05D00A
:10F39000BA683B6ED3181B785BB200E000231022E2
:10F3A000B9183A6E8A18127852B2534059B2FA68B4
:10F3B0003B6ED318CAB21A703B6E01333B663B6E8C
:10F3C0003F2BE2D901237B6608233B6615E05020E2
:10F3D0003A183B6ED3181B781A007B6E9B187B661D
:10F3E0007B6ED9B23A183B6ED3180A1C1A707B6E2A
:10F3F0001B0A7B663B6E01333B663B6E0F2BE6D9E7
:10F400003A687B6840204042C11712184B413A606D
:10F410007B60FB684033FB60BB68002B02D0BB689D
:10F420004033BB607B68002BA4D17B68002B02D1EA
:10F430003B683F2B9ED83B687A68134331D01B4B07
:10F44000FA6F5021791810203818FFF739FF002380
:10F450003B6619E0BB68002B05D0BA683B6ED31839
:10F460001B785BB200E000231022B9183A6E8A18AC
:10F47000127852B2534059B2FA683B6ED318CAB2EE
:10F480001A703B6E01333B663B6E1C0000231D006F
:10F490007B68AB42DED87B68AB4202D13B68A342BB
:10F4A000D8D800231800BD461AB0B0BDC06602000F
:10F4B00090B587B002AFF8603A607B603B687C68CB
:10F4C000F8687A6A01923A6A00921A0023000021D1
:10F4D000FFF720FF03001800BD4605B090BD0000F7
:10F4E000B0B58EB002AFF8603A607B600C4B7A6CBE
:10F4F000396C10257819FFF7F8FE3B6C10331A00B1
:10F500003B687C68F8687919019100921A00230021
:10F51000FFF7CEFF03001800BD460CB0B0BDC046DB
:10F52000C0660200F0B58FB002AFF860B9603A6013
:10F530007B600D4BFA6CB96C1026B819FFF7D5FE3D
:10F54000BB6C10331A003B687C68BD68F868B91959
:10F55000019100921A0023002900FFF7DBFE03004F
:10F560001800BD460DB0F0BDC066020080B584B085
:10F5700000AF786039600023BB600023FB601BE0B4
:10F58000FB689B007A68D3181A68FB689B0039688F
:10F59000CB181B68D318BA68D318BB60FB689B00F4
:10F5A0007A68D318BA68FF210A401A60BB681B0A40
:10F5B000BB60FB680133FB60FB68102BE0D9C046E1
:10F5C000BD4604B080BD0000F0B5C64600B5E0B051
:10F5D00000AF78613961BA60FB600023B822520045
:10F5E00008218C46BC446244136029E09C26082311
:10F5F000FB189B19B82040000822BA18121812688C
:10F6000092000021D1500823FB189B190822BA1838
:10F61000121812689200D158E02308229446BC4484
:10F6200063440822BA18121812689200D1500823B5
:10F63000FB181B181B6801330822BA181218136034
:10F64000B8235B0008229446BC4463441B68102B1B
:10F65000CCD90023B822520008218C46BC44624415
:10F66000136026E0C4235B000822944608229046DB
:10F67000B844C44463441A68B82040000823FB1807
:10F680001B181B68D3181B781900E0230822944626
:10F69000BC4463440822BA18121812689200D15070
:10F6A0000823FB181B181B6801330822BA1812180C
:10F6B0001360B8235B0008229446BC4463441B6873
:10F6C0000F2BCFD9E0210823FB185B18DB680F2232
:10F6D0001A400823FB185B18DA600823FB185B1834
:10F6E0001B69FC221A400823FB185B181A610823C7
:10F6F000FB185B18DB690F221A400823FB185B1804
:10F70000DA610823FB185B181B6AFC221A400823E5
:10F71000FB185B181A620823FB185B18DB6A0F22C0
:10F720001A400823FB185B18DA620823FB185B18E1
:10F730001B6BFC221A400823FB185B181A63082372
:10F74000FB185B18DB6B0F221A400823FB185B18B1
:10F75000DA6382E20023B822520008218C46BC44BE
:10F76000624413601EE0D14BBC2252009446082232
:10F770009046B844C4446344B822520010000821A3
:10F780008C46BC446244126892000021D1500200B1
:10F790000823FB189B181B68013308218C46BC44C6
:10F7A00062441360B8235B0008229446BC4463445F
:10F7B0001B68102BD7D90023B822520008218C4691
:10F7C000BC446244136021E03A69B8204000082339
:10F7D000FB181B181B68D3181B781900B34BBC22ED
:10F7E0005200944608229046B844C4446344082218
:10F7F000BA18121812689200D1500823FB181B186F
:10F800001B6801330822BA1812181360B8235B0072
:10F8100008229446BC4463441B680F2B12D8B823BB
:10F820005B0008229446BC4463441B681C00002310
:10F830001D00FB68AB42C7D8FB68AB4202D1BB6876
:10F84000A342C1D8994BBC2252009446082290464C
:10F85000B844C4446344B82040000822BA181218BF
:10F86000126892000121D1503A690823FB181B1835
:10F870001B68D3183B610823FB181B181B683B60EF
:10F8800000237B60BA68FB6838687968121A8B417C
:10F89000BA60FB6058230822BA18D2189C230821AA
:10F8A0008C46BC44634411001800FFF75FFE002340
:10F8B000BA22520008218C46BC4462441360A5E081
:10F8C00092235B0008229446BC446344BA2252004F
:10F8D00008218C46BC446244126892000021D15039
:10F8E0000023B822520008218C46BC4462441360B5
:10F8F00076E092235B0008229446BC446344BA2617
:10F9000076000822BA18921912689200D1589C23E6
:10F9100008229446BC446344B82252000820381898
:10F92000801802689200D058B82252000823FB18B1
:10F930009B181A680823FB189B191B689A4216D853
:10F94000BA235B0008229446BC4463441A68B82377
:10F950005B000826B446BC4463441B68D21AE0230B
:10F960000826B446BC4463449200D3581BE0BA2333
:10F970005B0008229446BC4463441A68B8235B00C9
:10F980000826B446BC4463441B68D31A11331A00DA
:10F99000E0230826B446BC4463449200D2581300C6
:10F9A0009B009B189B014343C91892235B000822CC
:10F9B0009446BC446344BA22520008208446BC44A6
:10F9C000624412689200D150B82252000823FB18FA
:10F9D0009B181B68013308218C46BC4462441360A9
:10F9E000B8235B0008229446BC4463441B68102B78
:10F9F00000D87EE7BA2252000823FB189B181B6828
:10FA0000013308218C46BC4462441360BA235B0076
:10FA100008229446BC4463441B68102B00D84FE76F
:10FA20000023BA22520008218C46BC446244136071
:10FA300021E092235B0008229446BC446344BA2030
:10FA400040000822BA18121812689200D1589C235C
:10FA500008229446BC4463440822BA18121812685B
:10FA60009200D1500823FB181B181B680133082291
:10FA7000BA1812181360BA235B0008229446BC44DB
:10FA800063441B68102BD4D90023B62252000821EE
:10FA90008C46BC44624413600023B8225200082103
:10FAA0008C46BC44624413603EE0C046E0FEFFFF6B
:10FAB0009C2308229446BC446344B826760008225E
:10FAC000BA18921912689200D358B6204000082242
:10FAD000BA1812181268D3180822BA18121813602C
:10FAE0000823FB181A181368FF22190011409C23E1
:10FAF00008229446BC4463440822BA18921912683A
:10FB00009200D1500823FB181B181B681B0A0822FF
:10FB1000BA18121813600823FB189B191B680133CD
:10FB20000822BA1892191360B8235B000822944681
:10FB3000BC4463441B680F2BBAD99C200823FB18D4
:10FB40001B181B6CB62149000822BA1852181268FB
:10FB5000D3180822BA18521813600823FB185B1830
:10FB60001B6803221A400823FB181B181A64082379
:10FB7000FB185B181B689A0813009B009B1808224F
:10FB8000BA18521813600023B822520008218C467C
:10FB9000BC44624413603BE09C2308229446BC446E
:10FBA0006344B82676000822BA18921912689200A7
:10FBB000D358B62040000822BA1812181268D31879
:10FBC0000822BA18121813600823FB181A181368B1
:10FBD000FF22190011409C2308229446BC44634430
:10FBE0000822BA18921912689200D1500823FB1803
:10FBF0001B181B681B0A0822BA1812181360082366
:10FC0000FB189B191B6801330822BA18921913605C
:10FC1000B8235B0008229446BC4463441B680F2B46
:10FC2000BAD99C200823FB181B181B6CB622520063
:10FC300011000826B446BC4462441268D3180A0076
:10FC40000821791889180B600823FB181B18082154
:10FC50008C46BC44624412681A64BB68FA68134359
:10FC600000D077E50023B822520008218C46BC441E
:10FC70006244136024E09C2308229446BC446344FD
:10FC8000B82040000822BA18121812689200D15801
:10FC90008C4BBC225200944608229046B844C4447F
:10FCA00063440822BA18121812689200D15008232F
:10FCB000FB181B181B6801330822BA1812181360AE
:10FCC000B8235B0008229446BC4463441B68102B95
:10FCD000D1D97D4A9C240823FB181B191100180058
:10FCE000FFF744FC0823FB181B191B6CDB095B4264
:10FCF000B422520008218C46BC44624413600023A5
:10FD0000B822520008218C46BC446244136042E091
:10FD10009C200823FB181B18B82464000822BA187A
:10FD2000121912689200D258664BBC2149008C46C9
:10FD300008218846B844C444634408217918091945
:10FD400009688900C95805000823FB181B180820FA
:10FD50003818001900688000C3584B40B42149008E
:10FD600008208446BC44614409680B405A40110095
:10FD700028000823FB181B180822BA181219126849
:10FD80009200D1500823FB181B191B68013308226D
:10FD9000BA1812191360B8235B0008229446BC44B9
:10FDA00063441B68102BB3D90023B82252000821EA
:10FDB0008C46BC44624413602BE0B820400008230A
:10FDC000FB181B181B681033C422520008218C46F4
:10FDD00008218846B844C44462441268D3181B788A
:10FDE00019003A4BBC225200944608229046B8446F
:10FDF000C44463440822BA18121812689200D15001
:10FE00000823FB181B181B6801330822BA181218A4
:10FE10001360B8235B0008229446BC4463441B680B
:10FE20000F2BCAD9294BBC22520094460822904677
:10FE3000B844C444634400221A6458230822BA1800
:10FE4000D2189C2308218C46BC446344110018003E
:10FE5000FFF78CFB0023B822520008218C46BC44DB
:10FE6000624413601DE09C2308229446BC44634412
:10FE7000B82040000822BA18121812689200D1580F
:10FE80007A690823FB181B181B68D318CAB21A70AA
:10FE90000823FB181B181B6801330822BA18121814
:10FEA0001360B8235B0008229446BC4463441B687B
:10FEB0000F2BD8D900231800BD4660B004BC904673
:10FEC000F0BDC0469CFEFFFFD0660200E0FEFFFFD3
:10FED000B0B58AB002AFF860B9603A607B603B6849
:10FEE0007C68B968102578193A6B00921A002300D3
:10FEF000FFF76AFB7A19FB6811001800FEF7AFFFE5
:10FF000003001800BD4608B0B0BDB0B588B002AF60
:10FF1000F860B9603A607B607B68002B08D17B6831
:10FF2000002B02D13B681F2B02D801235B422EE03D
:10FF30003B687C68B968F868FA6A0192BA6A00920C
:10FF40001A002300FFF7EEFAFB6810331800FB6875
:10FF500020331D003B687C6820214942CA175B188A
:10FF60005441FA6800921A0023002900FFF72CFB85
:10FF700000237B6107E07B69FA68D31800221A70BE
:10FF80007B6901337B617B690F2BF4DD0023180053
:10FF9000BD4606B0B0BDF0B591B002AFF860B96033
:10FFA0003A607B607B68002B08D17B68002B02D114
:10FFB0003B681F2B02D801235B423EE01426B9198F
:10FFC0007B6D01933B6D0093202200230800FFF717
:10FFD00087FABB6810331800BB6820331D003B68EC
:10FFE0007C6820214942CA175B185441BA19009213
:10FFF0001A0023002900FFF76BFF031E02D0012324
:020000022000DC
:100000005B421AE03B687C68B968F8687A6D0192D7
:100010003A6D00921A002300FFF784FA00237B63F5
:1000200007E07B6BFA68D31800221A707B6B0133F0
:100030007B637B6B1F2BF4DD00231800BD460FB0E4
:10004000F0BDF0B593B000AF786300237B64A3E00C
:100050007B6CDB007A6BD3185C681B687A6CD2000F
:10006000796B88188021490200225B185441036093
:1000700044607B6CDB007A6BD3185C681B682204DD
:10008000190C0A43BA632314FB637B6C591C7B6C09
:100090000E22DC0FD0179A4244412300DBB24B43BF
:1000A000DB007A6BD3185C681B68BB60FC60BB6BC1
:1000B000FC6B01214942CA171D0026006D185641EC
:1000C0003D607E60B96BFA6B01235B42DC17C91897
:1000D00062410B001400580FE5007D627D6A054304
:1000E0007D62DC003C623B6A7C6A5B185441980F7D
:1000F000A500FD61FD690543FD619C00BC61BB6914
:10010000FC695B185441180021007B6C0F3B5A427C
:100110005341DBB23B6100237B613A697B6904F0A8
:100120009FFF03000C003D687E68ED1866412C00BF
:1001300035007B6C5E1C786C0E21C20FCB178142A0
:100140005341DBB27343DA007B6B9A18B868F968E5
:100150000019694103000C00136054607B6CDB00E4
:100160007A6BD3185C681B68BA6B120CF96B0904C4
:10017000F962F96A1143F962BA6B1204BA627A6CD5
:10018000D200796B8A18B86AF96A1B1A8C4113601D
:1001900054607B6C01337B647B6C0F2B00DC57E776
:1001A000C046BD4613B0F0BDF0B591B000AF786267
:1001B0003962FA61FA6952423A63D2177A630021CE
:1001C0000022B963FA6356E0BA6BD200796A8A18E2
:1001D000116852680B001400BA6BD200396A8A1891
:1001E000116852683B607C604B403B617B685340C8
:1001F0007B613A6B3B697C6919000A40BA627A6B91
:1002000021000A40FA62BA6BD200796A8A18116832
:100210005268B86BC0007B6A9C466044BB6A9C46CF
:1002200063464B40BB60FB6A9C4663465340FB60A1
:10023000BB68FC6803604460BA6BD200396A8A18F4
:1002400011685268B86BC0003B6A9C466044BB6A48
:100250009C4663464B401D00FB6A9C4663465340E8
:100260001E0005604660B96BFA6B01230024C918B3
:100270006241B963FA63FA6B002A05DCFA6B002A63
:10028000A2D1BA6B0F2A9FD9C046BD4611B0F0BDAE
:10029000F0B5C64600B5D6B000AF78643964002327
:1002A0008A22520040218C46BC446244136023E001
:1002B0008A2464004023FB181B191B68DA003B6C7E
:1002C0009B1819685A68E74B8C2040004025AC46C3
:1002D000BC446044C0184023FB181B191B68DB009A
:1002E000C31819605A604023FB181B191B6801339F
:1002F0004022BA18121913608A235B0040229446E8
:10030000BC4463441B680F2BD2DD08244023FB1838
:100310001B191800FFF795FE4023FB181B19180046
:10032000FFF78FFE4023FB181B191800FFF789FE0B
:1003300000238822520040218C46BC446244136052
:1003400028E1C84B8C225200944640229046B84483
:10035000C444634419685A68C34B012464425B185F
:100360005441882240218C46BC446244136054604E
:1003700001238A22520040218C46BC44624413600F
:100380007DE0B84B8C22520040218C46BC44624434
:10039000D2188A24640025004023FB181B191B680F
:1003A000DB00D31819685A68B04B01246442C9189D
:1003B0006241080011002C004023FB181B191B6828
:1003C000013B882215004024A446BC446244DB0063
:1003D000D3185C681B6822041E0CBE63BE6B1643F8
:1003E000BE632314FB630123BA6B1340BB6100237C
:1003F000FA6B1340FB610A000100BB69FC69C91A72
:10040000A2412B001E0040203818C0188A24640026
:100410004023FB181D192B68DB00C31819605A60B4
:100420004023FB1819190B68013B320016004021CC
:100430008C46BC446244DB00D31819685A684023D8
:10044000FB1818190368581E0B041D0C3D6100238E
:10045000110019407961320040239C46BC4462443B
:10046000C300D31839697A6919605A604023FB18B0
:100470001B191B6801334022BA18121913608A2312
:100480005B0040229446BC4463441B680E2B00DC96
:1004900077E7744B8C225200944640229046B84431
:1004A000C4446344996FDA6F714B01246442C918E4
:1004B00062410800110088231E0040229446BC447B
:1004C00063445C6F1B6F22041D0C3D633D6B154341
:1004D0003D6322147A6301233C6B7D6B22001A403A
:1004E000BA6000232A001A40FA6003000C00B968C1
:1004F000FA685B1A944131004022BA185218936787
:10050000D4674023FB185B18DC6F9B6F2204180C28
:10051000B862B86A1043B8622314FB62BA6A012356
:10052000134086256D004022BA18521913604023EB
:10053000FB185B185C6F1B6F1A04120C3A600022E8
:10054000230013407B6008004023FB185B183968C8
:100550007A6819675A674023FB185B191A680123E8
:100560009A1A010040239C46BC4461440823402061
:100570008446BC4463441800FFF716FE88225200EC
:100580004023FB189B181B68013340218C46BC4458
:100590006244136088235B0040229446BC44634459
:1005A0001B68012B00DCCCE600238A22520040218C
:1005B0008C46BC446244136044E02A4B8C256D0099
:1005C0004022BA185219D2188A2040004023FB1842
:1005D0001B181B68DB00D3185C681B684022BA1824
:1005E00012181268520011007A6C5218DBB21370A4
:1005F0001C4B4022BA185219D2184023FB181B1862
:100600001B68DB00D3185C681B682206190A396274
:10061000396A1143396223127B624023FB181B188D
:100620001B685B0001337A6CD3182022BA18127849
:100630001A704023FB181B181B6801334022BA189C
:10064000121813608A235B0040229446BC44634422
:100650001B680F2BB1DDC046BD4656B004BC9046AA
:10066000F0BDC046F0FEFFFF1300FFFF0100FFFFDB
:100670000180FFFFF0B589B000AF786139610022D9
:10068000FA6122E0FA69520011003A6952181278B0
:10069000BA600022FA60FA695200013239698A1898
:1006A00012781500002216002A0E340214432B0281
:1006B000FA69D20079698818B968FA68C91862417C
:1006C00001604260FA690132FA61FA690F2AD9DDE4
:1006D0007B6978335C681B687A6978325904490C05
:1006E0003960002123000B407B603B687C6813600D
:1006F0005460C046BD4609B0F0BDB0B586B000AF8D
:10070000F860B9607A6000237B6116E07B69DB00EA
:10071000BA68D31819685A687B69DB007868C3180F
:100720005C681B687869C000FD6828185B18544134
:10073000036044607B6901337B617B690F2BE5DDDE
:10074000C046BD4606B0B0BDB0B586B000AFF860DB
:10075000B9607A6000237B6118E07B69DB00BA68CE
:10076000D31819685A687B69DB007868C3185C681D
:100770001B687869C000FD682818C91AA2410B00DF
:100780001400036044607B6901337B617B690F2B3C
:10079000E3DDC046BD4606B0B0BD0000F0B5C646BC
:1007A00000B5CAB000AFF861B9617A6100230024D6
:1007B0008822520010218C46BC446244136054606D
:1007C00021E0BF4B8C22520010218C46BC44624475
:1007D000D2188821490010257B195B181B68DB00A3
:1007E000D218002300241360546008007B195B18A2
:1007F0005C681B68012100225B18544101007A19D2
:100800005218136054608A235B0010229446BC4443
:1008100063441B68002B11DC8A235B001022944682
:10082000BC4463441B68002BCBD188235B0010229F
:100830009446BC4463441B681E2BC2D90023002489
:100840008822520010218C46BC44624413605460DC
:100850009BE0002300248422520010218C46BC44DB
:1008600062441360546064E08820400010243B1907
:100870001B1819685A68842676003B199B195C6816
:100880001B685B1854418E4A8C2149008C4610210C
:100890008846B844C4446244DB00D3181C685D68D1
:1008A0001022BB181B181B68DB00BA69D318186824
:1008B00059681022BB189B191B68DB007A69D31892
:1008C0001A685B6804F0CCFB02000B00BA60FB60A6
:1008D000882040001022BB181B1818685968BB18E4
:1008E0009B191A685B688018594138607960BA684A
:1008F000FB6812196B411C00130071488C225200D6
:10090000944610218846B844C44460443A68D200F2
:1009100082181360546010221000BB189B195C6889
:100920001B68012100225B1854413A189219136088
:10093000546086235B0010229446BC4463441B68C9
:10094000002B13DC86235B0010229446BC446344D6
:100950001B68002B00D087E784235B00102294469D
:10096000BC4463441B680F2B00D87DE788204000FF
:1009700010257B191B185C681B68012100225B187D
:1009800054417A191218136054608A235B001022B4
:100990009446BC4463441B68002B13DC8A235B0031
:1009A00010229446BC4463441B68002B00D050E7DF
:1009B00088235B0010229446BC4463441B680F2BC1
:1009C00000D846E7002300248822520010218C46DC
:1009D000BC446244136054604CE0394B8C2252009A
:1009E000102178188018C218882676007B189B1969
:1009F0001B68DB00D3181C685D6808003B189B1956
:100A00001A685B681020002112184B412C498C2079
:100A10004000844610208046B844C444614413001A
:100A2000DB00CB18186859682622002304F018FB55
:100A300002000B00A4185D4123002C00204A8C21E9
:100A400049001025AC46BC446144891810203A186E
:100A500092191268D2008A18136054603B189B19CF
:100A60005C681B68012100225B1854413A189219F6
:100A7000136054608A235B0010229446BC44634494
:100A80001B68002B11DC8A235B0010229446BC44B7
:100A900063441B68002BA0D188235B00102294467E
:100AA000BC4463441B680E2B97D900230024882282
:100AB000520010218C46BC4462441360546028E00C
:100AC000F8FEFFFF8820400010243B191B181B680C
