:020000021000EC
:10B00000004000205559020095590200D544020025
:10B010000000000000000000000000000000000030
:10B02000000000000000000000000000995902002C
:10B0300000000000000000009B5902009D59020022
:10B040002DC901009F5902000DBE01009F59020049
:10B050009F59020000000000ADCA01009F59020084
:10B060009F5902009F5902009F5902009F590200F8
:10B070009F590200BDB501009F5902009F5902006F
:10B080009F590200E1BF01009F5902009F59020031
:10B09000BDC001009F590200895802009F5902005B
:10B0A0009F5902009F5902000000000000000000AC
:10B0B0000000000000000000000000000000000090
:10B0C00010B5064C2378002B07D1054B002B02D07E
:10B0D000044800E000BF0123237010BD281F00209A
:10B0E00000000000A47A0200044B10B5002B03D02E
:10B0F0000349044800E000BF10BDC0460000000046
:10B100002C1F0020A47A0200402292029A1A924632
:10B110007047C046174B002B00D1134B9D46FFF7DD
:10B12000F3FF00218B460F461348144A121A00F011
:10B1300065F80E4B002B00D098470D4B002B00D02C
:10B1400098470020002104000D000D48002802D07F
:10B150000C4800E000BF00F02DF82000290009F0A5
:10B160001DFA00F011F8C0460000080000000000C1
:10B170000000000000400020281F0020102B0020AD
:10B180000000000000000000084B10B50400002B78
:10B1900002D0002100E000BF054B1868836A002B35
:10B1A00000D09847200000F031F8C04600000000B1
:10B1B000A46F020070B500260C4D0D4C641BA4104A
:10B1C000A64209D100260BF0E1FE0A4D0A4C641B91
:10B1D000A410A64205D170BDB300EB5898470136C4
:10B1E000EEE7B300EB5898470136F2E7201F002046
:10B1F000201F0020201F0020241F00200300821891
:10B20000934200D1704719700133F9E7FEE7C04659
:10B2100070B5012000F0FAFB041E01D0200070BDC3
:10B2200000F038FC050000F039FC024B5D619861CC
:10B23000F4E7C046441F0020002310B582B00093FD
:10B24000034B0A005C6900210023A04702B010BD37
:10B25000441F0020012310B584B00093044B0392D7
:10B260005C690A0003AB0021A04704B010BDC046D2
:10B27000441F002010B584B0039302230093044BB5
:10B2800002925C690A0002AB0021A04704B010BD25
:10B29000441F00200020704703688068596800221E
:10B2A000814200D24A1C1868801A43425841C0B2F9
:10B2B0007047C04670B582B06A4604000023D01DB6
:10B2C000D3710D0001F08CFA2368A1685868002240
:10B2D000814200D9421C1968914237D05A60E26815
:10B2E000042A42D0042A19D8012A48D0022A4FD170
:10B2F0002B88626840008352226851681368994223
:10B300001BD3CB1A91680024994200D293606B46FC
:10B31000D87901F085FA200002B070BD082A37D133
:10B320002A686B686168C0008C46604402604360B4
:10B330002268516813689942E3D2A0680024013062
:10B340004118CB1A91689942E1D2DFE7217C0029AC
:10B350002BD15A602168A6680B685A1CB3429B41E6
:10B360001A400A60E268042ABCD12B686268800037
:10B3700083502268516813689942DED3C1E72B7865
:10B38000626813542268516813689942D5D3B8E7AC
:10B39000636850439C46290060440AF057FB2268CA
:10B3A000516813689942C8D3ABE70424AFE7C0469D
:10B3B000F0B5CE46474680B505000E00140083B0B8
:10B3C000002A05D1200003B0C0BCB946B046F0BD8C
:10B3D0006A460023D01DD37101F002FA2A6853682F
:10B3E0001768BB4208D3DB1B9C4229D905246B4656
:10B3F000D87901F015FAE5E7AA680132904643448E
:10B40000DB1B9C42F2D8E8686B6801009C467943DC
:10B41000D21B6144944219D9504302008146300046
:10B420000AF014FB43463000EA68E419E41A624368
:10B43000696848440AF00AFB2B681C600024D6E7C0
:10B4400039006B68E8689C46414361440200300063
:10B4500062430AF0FBFA2A68A96813689C46002335
:10B460006444A1425B415B421C4014600024BEE77F
:10B470003ADF704770B51F4C0100237882B0002B73
:10B4800036D1002832D00222601C0AF0DFFA6A4668
:10B490000023D01DD37101F0A3F90AF089F9002827
:10B4A00008D06B46D87901F0BBF901230020237046
:10B4B00002B070BD6378002B05D00F490F4A0130F0
:10B4C0008B5803438B50802201260B4D9200AB58C2
:10B4D0000D20B343AB50A17801F0AAFA0022084B2B
:10B4E0001A60C1239B00EE502E60DAE70549CAE7D7
:10B4F0008520DDE7901F002000D0004004050000FB
:10B5000000D10040A86F0200F0B557464E46DE4617
:10B510004546E0B585B002AB07000191DE1D00296C
:10B520003DD0224B9B46019B9946202B01D92023DD
:10B5300099464B46DBB29A461D4B98460BE0307855
:10B5400001F06EF951463800FFF792FF04004045C4
:10B55000F2D0022C1BD100233000337001F040F9EF
:10B560000AF026F9051EEAD14A4639005846FFF787
:10B570001FFFC12101220F4B89001D600E4B0400EB
:10B580005A501A60307801F04BF9022CE3D0002CAD
:10B59000D2D14A46019B4F449B1A0193C3D105B0B7
:10B5A000F0BCBB46B246A946A046F0BDAC6F020057
:10B5B0000720000000D1004000D00040F0B583B06B
:10B5C0006A460023901D937101F00AF90AF0F0F821
:10B5D00000280AD1124B1A68002A06D0C22601257B
:10B5E000104CB600A259154205D16B46987901F06E
:10B5F00017F903B0F0BD1860A1236A460A4FDB00BB
:10B60000E358D11D38000B70FFF754FE3800FFF7E8
:10B6100043FE0028E9D0054BA5511D60E5E7C04673
:10B6200000D1004000D00040AC6F020004D00040C8
:10B630000378012B01D1014A13707047951F002038
:10B64000F0B5DE4657464E464546E0B50E001C00B6
:10B65000731E9E4173420A261E406A4BC5B01800F5
:10B660000F0015009B4600F0C3FB002800D0BFE090
:10B67000002C00D186E0644B0027039304AB9A466C
:10B68000A146519AB846944620244F464F9B6344A6
:10B6900000934346F5182900404631315044514447
:10B6A000002E10D004704470022E0BD08470C47031
:10B6B000047144718471C471082E03D004720A2E7F
:10B6C00000D144728019102399460A00884603006D
:10B6D00089440195029007E01C705C709C701470A6
:10B6E000013203334A4526D00099B942F4D94F9923
:10B6F000B94200D878E04E99CD5D290937319F2DA8
:10B7000000D80739372019700F21844629408C440E
:10B710006046092901D830310800587068203B493B
:10B720009C70495D814300D12E251570013201378F
:10B7300003334A45D8D141460D23019D0B7402982D
:10B74000033B4B742633C45428004330042203992E
:10B75000473550440AF07AF92A0051462C480AF03D
:10B7600075F958462A49EAB200F0C2FA8046002824
:10B7700030D0B946484645B0F0BCBB46B246A946B3
:10B78000A046F0BD002F35D004AA92461E4B0422DD
:10B790001900504603930AF059F980213B681D4A6D
:10B7A000490005A80AF03EFC002399460028E1DB89
:10B7B000031D9846D146C14428000AF067FC0700E3
:10B7C000C22800D9C2273A00290048460AF03EF9AB
:10B7D000474455E7584600F00BFB0028C9D1009BB1
:10B7E000BB4200D955E7C4E75098791A455C84E715
:10B7F000A146BFE70023984604AB9A469946024B00
:10B800000393D9E7141F0020207002000E79020074
:10B81000981F0020C06F0200F0B54746CE4680B5A5
:10B82000744FC7B038000E0090461D004E9C00F0CB
:10B83000DFFA002838D1002E16D006AB04221800FB
:10B840006D4999460AF002F9802133686B4A490034
:10B8500007A80AF0E7FB002826DB061D062C1ED8E9
:10B86000674BA4001B599F46062C00D9BBE0654BD3
:10B87000A1005B589F4680210024490006A82A6940
:10B880002B680392EA680292AA6801926A680092A1
:10B8900042460AF0C7FB0600002E05DB361980235E
:10B8A000341D5B009C425CD9002047B0C0BCB94647
:10B8B000B046F0BD80210024490006A8EA682B6844
:10B8C0000292AA6801926A68009242460AF0AAFBB4
:10B8D0000600E1E780210024490006A8AA682B6839
:10B8E00001926A68009242460AF09CFB0600D3E788
:10B8F00080210024490006A86A682B68009242460D
:10B900000AF090FB0600C7E780210024490006A842
:10B9100042462B680AF086FB0600BDE78021002422
:10B92000490006A86A692B6804922A690392EA68AA
:10B930000292AA6801926A68009242460AF072FB7B
:10B940000600A9E7340040460AF0A0FB03190600F0
:10B95000FF2BA1D806AB3200414618190AF076F841
:10B960009AE706AB99463000E5B2484404222249E2
:10B970000AF06CF8244E2200494630000AF066F8BE
:10B980002A003100380000F0B3F943425841C0B2F8
:10B990008BE780214B46490034009819891B9DE7AD
:10B9A00080214B46490034009819891B86E7802185
:10B9B0004B46490034009819891B60E780214B46AB
:10B9C000490034009819891BA2E780214B464900A1
:10B9D00034009819891B8FE780214B4649003400B9
:10B9E0009819891B9EE7042506AB994618002C0080
:10B9F000BCE7C046141F002020700200C06F020088
:10BA0000C86F0200E46F0200981F0020F0B51B4EC3
:10BA10000500337889B0002B03D0194B1B78834283
:10BA200029D06C462200174B83CB83C283CB83C2C1
:10BA300003CB03C200230422237505230092019344
:10BA40001A221923104F02920393104B3800A3615E
:10BA500000F0CEF80022002D0BD02100380000F0BD
:10BA600021F8002803D101233370054B1D7009B064
:10BA7000F0BD074AF1E70020F9E7C046941F002017
:10BA8000931F002000700200141F002000502700A8
:10BA900031B601000048704719B8010000487047EE
:10BAA00041B60100F8B5CE46474680B507794A4D04
:10BAB000FE00F31B9B00EB18DB7E04009146002B7D
:10BAC00000D087E00B685A1C0DD001209840A122BD
:10BAD0000300A020D200C005835003220B68C133AD
:10BAE000FF339B001A504B685A1C06D0A02000223E
:10BAF000C133FF339B00C0051A5020688A69374B59
:10BB0000C250087D4B7D22680343354813500A68B4
:10BB10002368944633484A681A50624632481A509D
:10BB20000B7D012B2FD04A46F31B9B00E818426087
:10BB30000A69EA504B46002B12D08E22002320685F
:10BB40005200097F8350206828328350C123206827
:10BB5000264A9B00C2502368180B40B200F068FFD1
:10BB6000A02304212268DB00D15000230020F61B13
:10BB7000B600AD192B76EB820133FF336B83C0BC6B
:10BB8000B946B046F8BD8B685A1C06D0A0200022EA
:10BB9000C133FF339B00C0051A50CB685A1C0ED02E
:10BBA00001209840A1220300A020D200C0058350AC
:10BBB0000322CB68C133FF339B001A50CB688A68DD
:10BBC00020689446A122D2008350A2236246DB0063
:10BBD000C250A8E70820D2E79820002024050000E2
:10BBE0006C050000140500000C0500008000020038
:10BBF000F0B54546DE4657464E46E0B5037900228D
:10BC00009C46A0230168DB00CA5063466246334964
:10BC1000DB0088469A1A92004244526883B0002A98
:10BC20000DD0C2222E4C016892008C500124026873
:10BC30002C4DD203D20E9440220080242A51026857
:10BC4000294C01271659A246284C7F42A346155974
:10BC50000C3CA146145959460194A224E400A04684
:10BC6000145957505146575049460268575041465B
:10BC70005750721C06D0A0220220C136FF36B600F3
:10BC8000D205B0506A1C06D0A0220220C135FF3573
:10BC9000AD00D205A850621C06D0A0220220C134FB
:10BCA000FF34A400D205A050019A511C06D0A02058
:10BCB0000224C132FF329200C005145062469B1A22
:10BCC000064A9B00944600226344DA765A6003B029
:10BCD000F0BCBB46B246A946A046F0BD9820002065
:10BCE0008402020000E100E00C05000014050000E1
:10BCF000F0B54546DE4657464E46E0B504000079AD
:10BD0000394DC3001B1A9B00EB18987D002828D1E1
:10BD100099608E219A7501229882236849002679BC
:10BD2000585023689A60236858509C46F3009B46FD
:10BD30009B1B9B00EB189A686746904640469A8A80
:10BD4000805C9A8A013292B29A82284AB8505A6824
:10BD50000020002A07D0F0BCBB46B246A946A04648
:10BD6000F0BD1120F7E79A7D894694460130FF30F7
:10BD700019009A8A143162451ED2226802E0998A1B
:10BD8000814203D0494651580029F8D0998A81420E
:10BD9000EED000214F46D1514746998A795C8A46B8
:10BDA0005746998A013189B2998210495750190032
:10BDB0009A8A14316245E0D380230A885B009A4254
:10BDC0000FD08E21226849005358002BFCD001234C
:10BDD0000020D3605B469E1B0023B600AD19AB75F7
:10BDE000B9E70F20F6E7C046982000201C050000A8
:10BDF0000279D3009B1A044A9B00D318987D431EF6
:10BE00009841C0B27047C04698200020C12330B589
:10BE10005E4A9B00D35885B09B0559D592235B00A1
:10BE2000D158002954D00021D1508121E533FF336E
:10BE30008900D150564B997E002901D101315160C2
:10BE4000022269460A7090215048C9004258425067
:10BE500069460392DA7D68460A72DA680192002226
:10BE6000DA751A760ACB98478E21484A490053580A
:10BE7000002B0FD0464B9C8A9D7DAC4262D20020A5
:10BE80005050998A9868405C998A013189B29982A8
:10BE9000404BD050A2233D4A5B00D158002915D019
:10BEA0000021D1503A4B997E002901D00121116027
:10BEB000DA7D002A0AD0002268460121DA755A7E0E
:10BEC00001700272DA680ACB0192984705B030BD62
:10BED000C1232E4A9B00D3585B07C5D58421490056
:10BEE0005358002BC0D02A4BD87D002838D00020D2
:10BEF0005050A320C000597E1258D86842545A7E30
:10BF0000D87D0132D2B25A765A7E8242ACD11A7EA4
:10BF1000002A2AD19A7E002A02D101211B4A5160AF
:10BF2000C222812019499200800088500022684670
:10BF30000121DA755A7E01700272DA680ACB019229
:10BF4000984791E700205050002DA3D06A4610700A
:10BF500015729A689875019268460ACB984799E7D6
:10BF60005050A321C9005258CEE7DA751A69D96832
:10BF7000DA6000226C46587E1A765A7601322072B8
:10BF8000019168460ACB227098476DE70020004077
:10BF9000982000201C050000002300B585B001AAF0
:10BFA0009060002103481380536000F005F805B04D
:10BFB00000BDC04601400000012010B50549FFF753
:10BFC0003BF9BFF34F8F044B044ADA60BFF34F8F46
:10BFD000C046FDE72870020000ED00E00400FA050D
:10BFE000A021F0B50023C6462B4A490000B55350A6
:10BFF0000431535004315350043153504C39535091
:10C0000004315350254B1B68002B36D024490025A2
:10C010005458244A00271268234EA41A2402240AE2
:10C0200003E04346002B19D043461A68A24215D8B4
:10C03000A41AAD18DA6990461A7C002AF1D05A6920
:10C0400099691F743368002B1AD010009847002894
:10C05000E7D0FFF7A1FF4346002BE5D11349144A6F
:10C060000B7812789A420ED0124A9B009D50802184
:10C070008023114A5B004903D15080BCB846F0BD13
:10C0800008009047CDE70132D3B2022B01D00B70EC
:10C09000EAE700230B70E7E700100140D4200020FE
:10C0A00004050000D0200020B4200020CD20002076
:10C0B000CC200020C420002000E100E0F0B5DE46E6
:10C0C00057464E464546E0B5C44BC54A9B46C54912
:10C0D0001B688DB0059309781378994200D16DE102
:10C0E0000133DBB2022B00D166E11370BE4A9B0024
:10C0F0009D585A460126059B5B191B021B0A00939B
:10C100001360BA4B9A461978B94B1B680193534692
:10C110005B780293994200D13AE253465B680098FB
:10C12000039353469B780B9000200693B14B002756
:10C130001A78844607920A920A000893019B049099
:10C1400050008018C0008146039C0132A046069C26
:10C15000D2B2141B601E8441484664422240039CB4
:10C16000C844205C022800D1EEE0032808D1002B4F
:10C1700006D060461874DB69002BFAD101200490C8
:10C1800002988242DCD1002F00D06AE1049A002A92
:10C1900008D0974A1360019A0193D01A421E904129
:10C1A000C2B204920024002E00D00CE10023A44669
:10C1B00098460593634600270198002B2DD06346CF
:10C1C000DD695C68AC469A68009D8B4E651B2D024C
:10C1D0002D0AB54251D80124AA181A605F609F60E9
:10C1E0001C74DF61002857D004680500944205D311
:10C1F00060E02E68964200D3C6E03400A946ED699F
:10C200000992121B002DF4D11A604A46DD61D361F8
:10C21000030018006346002BD1D1029B994200D144
:10C220001AE14B005B18069A0131C9B28A1A541EF2
:10C23000A241039EDB00F518F35C52421140012B32
:10C240003FD16B681E7C002E3BD1AC68B1465C6070
:10C25000EA689A602E69DE606D699D610125059529
:10C26000079D002DB0D04C460595009D624E651B84
:10C270002D025C602D0AB542ADD9009D2C1B240215
:10C28000240A94420CD2121B01241A605F609F6042
:10C290001C74DF610028A7D1012218009046B9E77D
:10C2A00001221F605F609F601A74DF610028F3D075
:10C2B00000220468A21A02600122D8619046180088
:10C2C000A8E7029B9942ACD1534619704346002B14
:10C2D00000D1BBE0464B1860019B984202D1049B01
:10C2E000002B27D0002800D11EE1444A03684448AF
:10C2F000444C8158009A25788A1A1202120A033295
:10C30000002D00D1B6E0934254D3009AA82494465D
:10C3100063443B481B021B0A384DE4000351425959
:10C320005B1A521A1202120A1B0203321B0A9A42A9
:10C3300000D9C5E00023089A13700DB0F0BCBB46CD
:10C34000B246A946A046F0BD404640688146002B53
:10C3500000D115E7834200D1DFE018000400C06976
:10C36000002800D10CE78145F8D10994A14515D0EA
:10C370000468C069A046099CE061002800D1FFE67E
:10C38000046844440460FBE6A619099C361B2E6031
:10C390001A604A46DD61D36103003AE7DB69002B8E
:10C3A00000D1A7E04846006801248046484604942E
:10C3B000C069E5E71300A8E7002396E6059B002582
:10C3C000002600939DE6019B002B00D1EDE00027A5
:10C3D00000220020B84689462BE0C046D02000202D
:10C3E000CC200020CD200020C4200020B820002038
:10C3F000D4200020C0200020FEFF7F0004050000A4
:10C4000000100140C12000204246D968ED1BC01930
:10C410001A60DF69002907D0DC611C00059A996069
:10C4200012181202120A5A60002F00D16EE0320078
:10C430003B001F68AF42E7D94946002A02D05C4A58
:10C44000019313607D1B1D600496AFE6049B019869
:10C45000002B00D16EE745E7059B002B00D033E7AA
:10C4600034E75C4608980A9A02700B98079220609D
:10C4700000908BE68025D1266D02B6008551403EA6
:10C480008551C02780264B4DB6027F00EE512E60AD
:10C49000012505604848494F06682F20C046C04620
:10C4A000C046C046C046C046C046C046BE4200D098
:10C4B000C0460138F2D12570934200D325E779E7D1
:10C4C00043593E4903513C4B1A682F23C046C0468E
:10C4D000C046C046C046C046C046C0468A4200D09C
:10C4E000C046013BF2D180238021324A5B008902A1
:10C4F000D1501FE70124324B01279C600024012307
:10C500000B94013404930A94002331E7284B4946E5
:10C510001F6000230496019348E6DB690990002B15
:10C52000E8D00124049423E780218023214A890252
:10C53000D1508023D2210125214A5B02890053502A
:10C54000403953501C4B556019682F231B4C1E005B
:10C55000C046C046C046C046C046C046C046C046AB
:10C56000A14200D0C046013EF2D195605A4610600B
:10C57000C046C046C046C046C046C046C046C0468B
:10C58000A14200D0C046013BF2D10E4B1870D1E65B
:10C5900053465B68039353469B7806930A4B089374
:10C5A0001B78079300230493FCE51C000496FDE52B
:10C5B000D420002000E100E01C1F00200024F40033
:10C5C00000100140C1200020C0200020F0B5DE4650
:10C5D00057464E4645460324E0B5070020009B46DB
:10C5E0001040224200D068E0002A00D165E0802699
:10C5F0008025334CB6026651D2238026314D760217
:10C600009B00EE50403BEE5001232F4E6B6099464D
:10C6100033682F269C462D4B98463300C046C046B3
:10C62000C046C046C046C046C046C046C44500D00D
:10C63000C046013BF2D14B46AB60C046C046C04647
:10C64000C046C046C046C046C046C44500D0C046ED
:10C65000013EF2D15B461E4E30701E4E3360002606
:10C660001D4B188099705A601C4B802218601C4B1F
:10C67000C5211E701B4B52031E70C023FF265B009A
:10C68000E25089006358B3433F3E33436350A123D4
:10C69000DB0022600439EF506358134A1A40C0236C
:10C6A0001B0213436350114BEA58114B1A60F0BC44
:10C6B000BB46B246A946A046F0BD0720F7E7C046F4
:10C6C00000E100E0001001401C1F00200024F400E5
:10C6D000C1200020B4200020B8200020D420002059
:10C6E000CC200020CD200020FF00FFFF040500002B
:10C6F000D0200020094B5B68002B0AD0002A0AD00A
:10C70000002808D00368187C002802D159745A61A7
:10C7100070470820FCE70720FAE7C046B820002051
:10C72000F0B5C64600B52A4D04006B680E00170030
:10C7300082B0002B40D000283ED0042940D9436964
:10C74000002B39D0437C012B38D0002398466A4611
:10C750000023D01DD37100F043F86978A8784A1CF3
:10C76000D2B2801A431E98412B7840420240934235
:10C7700028D04B005B186968DB008C466344002BB3
:10C7800020D001211348197013495C604158DE60C4
:10C79000996041465F6119616B46D8796A7000F013
:10C7A0003FF88023802100200C4A5B004903D150D0
:10C7B00002B080BCB846F0BD0820F9E78846C6E75D
:10C7C0000720F5E76B46D87900F02AF80420EFE758
:10C7D000B8200020001001400405000000E100E046
:10C7E000F0B5EFF3108172B60A4B5A68002A0DD1EA
:10C7F00001248025084E5C607459084F3C401C6041
:10C8000077510270002900D162B6F0BD0123037098
:10C81000F8E7C046D029002000E100E0FC06FFBC9C
:10C8200010B5084B5A68002A0BD0002809D1EFF345
:10C83000108272B604491C680C605860002A00D14E
:10C8400062B610BDD029002000E100E010B5124C06
:10C850002378002B1ED16360A3602361E3600F4B3C
:10C860001B68DB070DD508F0A3FF002803D00123C8
:10C870000020237010BD8022A323D205DB00D050FE
:10C88000F5E70321002000F0D3F808F091FF00281D
:10C89000EDD1F0E78520EDE7D820002000E100E0B1
:10C8A00030B51F4D0400AB7883B0DAB2002B13D043
:10C8B000002802D04368012098476A460023D01D13
:10C8C000D371FFF78DFFEB680133EB606B46D879CE
:10C8D000FFF7A6FF03B030BD6B46D81DDA71FFF736
:10C8E0007FFF002C0DD02A69002A08D0944208D07E
:10C8F000130001E09C4204D01B68002BFAD1226097
:10C900002C61EB68002BDED1064A02211360C123A3
:10C91000053AFF3A9B00D1500122034B1A60D2E73F
:10C92000D8200020040100400800004010B51A4B38
:10C930001A68002A14D0002280211A60C222012322
:10C94000164CC90592008B506370A368002B07D06A
:10C950001A6800205B68A2609847A368002BF7D193
:10C960000F4B1A68002A15D000221A608022C223B9
:10C9700002219B00D205D1500123084CA3702369EA
:10C98000002B07D01A6801205B6822619847236951
:10C99000002BF7D110BDC04600010040D820002078
:10C9A0000401004010B500280BD1064CA368002BF1
:10C9B00007D01A6800205B68A2609847A368002B24
:10C9C000F7D110BDD820002010B582B06A460023F0
:10C9D000D01DD371FFF704FF134C2378002B0AD02E
:10C9E000E3680133E3600123A3706B46D879FFF756
:10C9F00017FF02B010BD6360A3602361E3600B4BBF
:10CA00001B68DB070BD508F0D3FE002804D1802279
:10CA1000A323D205DB00D05001232370E0E70321DC
:10CA2000002000F005F8EEE7D820002000E100E04B
:10CA3000F0B500281EDB1B4B84089C460323C2B2C2
:10CA40001840FC331F00C026C000890187400B40FE
:10CA50008340A4006444B600A559BD432B43A351B1
:10CA60001F23C0211A401E3B93400E4A49005350D9
:10CA70001360F0BD0C4C0325A4460F23FF24034094
:10CA8000C2B228402500C000890185400C40844086
:10CA9000083B9B089B006344DE69AE433443DC6182
:10CAA000DEE7C04600E100E000ED00E0F0B54E46F4
:10CAB000DE46574645460021E0B5C84A87B0039197
:10CAC00013680026012B00D17DE1C54B1A68012AAD
:10CAD00000D16CE1C34B1A68012A00D15BE1C24B63
:10CAE0001A68012A0DD0C14B1A68012A00D183E1CE
:10CAF000002E1ED107B0F0BCBB46B246A946A046E8
:10CB0000F0BDC122BA499200895808220A42EAD0EF
:10CB100000211960B54B16431A68012A09D1196022
:10CB2000A022A223D205DB00D358039380231B0647
:10CB30001E43B04BA22798460323012500249946A3
:10CB4000FF0035420ED0AA4AA3009A18D059D159F5
:10CB50004246D358002B05D04A46090CC004114068
:10CB6000C00E984701346D00042CEAD1002EC1DAC2
:10CB70000023C026072504939E4C013B05934023C8
:10CB8000E1564B1C3ED0C9B20800B043C3089C46D6
:10CB90002A00012367460A40934005AAD25D13424A
:10CBA00030D08A09934622182032127852B292006D
:10CBB000A2589146002A00D197E15A46032A00D193
:10CBC00097E1A027FF05B84682009044E02247463F
:10CBD000D200BA5803AF9203910F6246BA5C134277
:10CBE0000DD002290ED15B46032B00D1B5E1002305
:10CBF00098464B46002B07D05946C84704E0032906
:10CC000000D18BE1002398464123E1564B1C38D0DC
:10CC1000C9B20800B043C3089C462A0001236746F6
:10CC20000A40934005AAD25D13422AD0221820322E
:10CC30001278890952B29200A25801919146002AB5
:10CC400000D15FE1032900D15FE1A027FF05BA46CB
:10CC500082009244E0225746D200BA5803AF9203B2
:10CC6000910F6246BA5C134200D10AE1022908D151
:10CC7000019B032B00D168E14B46002B01D00199A9
:10CC8000C8474223E1564B1C38D0C9B20800B04314
:10CC9000C3089C462A00012367460A40934005AA20
:10CCA000D25D13422AD0221820321278890952B25A
:10CCB0009200A25801919146002A00D109E103296E
:10CCC00000D109E1A027FF05BA4682009244E02284
:10CCD0005746D200BA5803AF9203910F6246BA5C2E
:10CCE000134200D1B1E0022908D1019B032B00D1EE
:10CCF0002FE14B46002B01D00199C8474323E15651
:10CD00004B1C37D0C9B20800B043C3089C462A0068
:10CD1000012367460A40934005AAD25D134229D0F9
:10CD2000221820321278890952B29200A258019139
:10CD30009146002A00D1C0E0032900D1C0E0A0271D
:10CD4000FF05BA4682009244E0225746D200BA5804
:10CD500003AF9203910F6246BA5C134258D0022986
:10CD600008D1019B032B00D1FBE04B46002B01D0E7
:10CD70000199C8474346002B00D1BBE6A022A2235D
:10CD8000D205DB00D358039A9A4200D1B2E603934E
:10CD9000049B0593F3E6C1221549920089580422A9
:10CDA0000A4200D19BE600211643196097E6C12292
:10CDB0000F499200895802220A4200D18AE60021D6
:10CDC0001643196086E6C1201E00094C80002058D9
:10CDD0000640034200D178E6116076E6006100402B
:10CDE00004610040086100400C6100407C6100402B
:10CDF00000600040F020002000221A60A022A22340
:10CE0000D205DB00D3580393002E00D1B0E68DE6A7
:10CE10000329AFD1019B032BA7D180239B029C4602
:10CE2000E0235246DB00D25850490A405146CA50CE
:10CE3000CA5861460A435146CA504B46002B9DD002
:10CE400043460133DBB2984692E7032900D055E709
:10CE5000019B032B00D04CE780239B029C46E023E0
:10CE60005246DB00D25841490A405146CA50CA587E
:10CE700061460A435146CA5043460133DBB29846E5
:10CE800037E7032900D0FCE6019B032B00D0F3E633
:10CE900080239B029C46E0235246DB00D258334954
:10CEA0000A405146CA50CA5861460A435146CA50C0
:10CEB00043460133DBB29846DEE6032900D059E74A
:10CEC000674604AAD75D1F43BA4667465146D15507
:10CED00035E7032900D011E7674604AAD75D1F4351
:10CEE000BA4667465146D155ECE65A46032A00D069
:10CEF00088E6674604AAD75D1F43B84667464146A1
:10CF0000D1555EE6032900D0BBE6674604AAD75D8B
:10CF10001F43BA4667465146D15596E65B46032BFA
:10CF200000D064E680239B029C46E0234246DB005F
:10CF3000D2580E490A404146CA50CA5861460A436F
:10CF40004146CA500123984653E6C0239B029C46A3
:10CF5000A1E7C0239B029C4681E7C0239B029C461D
:10CF6000E3E7C0239B029C465AE7C046FFFFFCFF55
:10CF700048DF7047802302215B051B690F4A1B04B1
:10CF80001B0C58430E4BD1508021C9005358002B25
:10CF9000FCD0A1238021DB00D050084AC90053589F
:10CFA000002BFCD00021064BD15080220349D20037
:10CFB0008B58002BFCD000207047C04600E0014099
:10CFC00004050000F0B557464546DE464E46802330
:10CFD000E0B55B051B6917001B041B0C584383B0AD
:10CFE00080469200002F00D1AEE0FF200023574D75
:10CFF0004001CC5C6DBAADB26540ECB2240965402D
:10D000002C0365406C010440ADB2013365409CB215
:10D01000A242EED843461B88AB4200D18CE00220EE
:10D020004B4A4C4BD0508020C0001358002BFCD0F2
:10D03000A1234046DB00D0508020454AC000135851
:10D04000002BFCD00020434BD05080224048D2001F
:10D050008358002BFCD0464600200836002F24D0F1
:10D060004346CA1A083A01923A4A8021944601225C
:10D07000924600229146364BC900019AB458524656
:10D08000A34664461A515C58002CFCD05A463260C4
:10D090005C58002CFCD062464C469C505C58002CDE
:10D0A000FCD001300436B842E7DB2B4C2378002B50
:10D0B00004D0FFF75DFF2378002BFAD10121244A29
:10D0C000244BD1508021C9005358002BFCD043463B
:10D0D00080211F4A5F60C9005358002BFCD00021FB
:10D0E0001C4BD15080221A49D2008B58002BFCD007
:10D0F0001A4B1D432378002B04D0FFF739FF237808
:10D10000002BFAD10121124A124BD1508021C900C3
:10D110005358002BFCD0434680210D4A1D60C900A6
:10D120005358002BFCD000210A4BD15080220849D3
:10D13000D2008B58002BFCD0002003B0F0BCBB46C3
:10D14000B246A946A046F0BD004D63E7FFFF0000D0
:10D1500000E0014004050000382100200000DE4509
:10D16000802370B55B050D00196916000904090CD0
:10D1700041430C681B4A230C1B04934203D0002339
:10D180000520337070BDFF224B6828001A403370B1
:10D190009200083108F05AFC33789800002B1ED01A
:10D1A000FF260021104B76016A5C5BBA9BB25340AC
:10D1B000DAB2120953401A0353405A0132409BB26B
:10D1C000013153408AB29042EED806480343E41A34
:10D1D000604260410423404298430530D2E7034B4C
:10D1E000F5E7C0460000DE45FFFF0000FFFFDE451B
:10D1F000F0B557464E46DE464546E0B5B5B013900D
:10D200001000DA789C78120222435C7812022243E2
:10D210001C78120222430D921492C2788478120272
:10D220004778224312021743CA788C7812022243AD
:10D230004C7812022243120215000C78C27C25435E
:10D24000847C12022243447C1202067822433F026D
:10D2500012023E431700047CDA7927439C791202BC
:10D2600022435C791202224312021F97BB46170029
:10D270001C790E9527431A9584790F97199715965F
:10D28000C279477D12022243447912022243047973
:10D290001202224391461692CA798C7912022243D5
:10D2A0004C79120222430C791202224310921B92F3
:10D2B000C27D847D1202224312021743DA7A9C7ADD
:10D2C000120222435C7A120222431C7A1202224387
:10D2D00011921E92C27A847A12022243447A120276
:10D2E000057D22433F0212023D431700047ACA7AA9
:10D2F00027438C7A120222434C7A120222431202F2
:10D300000697179717000C7A2095274312971C97BA
:10D31000C27E847E1202477E2243120217433F02DE
:10D320003C00027E1443DA7BA44621949C7B1202CB
:10D3300022435C7B12021B7B144324021C43C37BED
:10D34000827B1B021343427B1B021A4312020C9482
:10D3500023941400037B8A7B1C43CB7B05941B0224
:10D3600013434A7B1B021A4312020B7B1100194321
:10D37000C37F827F1B021343427F1B0213431F02A2
:10D38000037F38001427184318940B911D910790C0
:10D390002290149815992490259116981799269003
:10D3A00027911898199908976746289029911A98F3
:10D3B0001B992A902B911C981D992C902D911E98A9
:10D3C0001F992E902F912098219930903191229879
:10D3D0002399329033910F9803974F4681461199C4
:10D3E0000C9B01910B999A4604910D990E9B8C46CA
:10D3F000109C129A039902936346B0465E19192352
:10D40000DE410598099746406046023B8719DF4197
:10D410005740043BF219DA416A400698053B0692F0
:10D42000BA18DA41654655404A464244130019226B
:10D43000D341049A0A9453404A46AC46D418029DFC
:10D4400002931723DC414C401321029B1A19CA4155
:10D4500041460E2351406218DA4105914946514038
:10D460005A468946019903920B334A19DA41079BC0
:10D47000884653409B46D84442461721CA410999E1
:10D480004A4099181323D9416940053B049151182A
:10D49000D941019D0B334D400195039D5544DD411C
:10D4A00045405046023B4119D9410A98043B41404E
:10D4B0006818D841039B4340984688440E20079340
:10D4C0004346C34198465346404643409A46089BCC
:10D4D000013B0893002B8FD148468846B9463E9FB2
:10D4E0006146029BC4460390002F00D177E0249D43
:10D4F000AC460D9D6144491B2A9DAC460E9D63447C
:10D500005B1B299D9946AC460F9D6044431B2B989D
:10D510009846844610986444251A2E98139B0290CE
:10D52000029C0198A4466044060011981970361AAE
:10D530002C98844612986244141A339A04980192E3
:10D540005244170084460C9A0B98BF1A2D9A6244D5
:10D55000121A080A84461800634643700B0C837045
:10D560004B46090EC170190A03744174190C1B0E45
:10D57000C374434603711B0A437143461B0C8174F9
:10D58000837143460100180E2B0A4B752B0C8B75CB
:10D59000330A4B72330C8B72230A4B76230C8B7637
:10D5A0003B0A4B733B0C8B73130A0D750E722D0ED9
:10D5B000360E0C760F73240E3F0E0A774B77130C42
:10D5C000120EC871CD75CE72CC76CF738B77CA77B9
:10D5D00035B0F0BCBB46B246A946A046F0BD249883
:10D5E000139F0818010A7970010CB970390038705E
:10D5F000000EF870259837180E000F71390A7171F6
:10D60000390CB17126993F0E494408003172090A5C
:10D610007172010CB1722799F7710291029F0699FC
:10D62000B846000E4144F07208003173090A717364
:10D63000010CB1732899000E0291F07302980599BC
:10D6400080464144080A7074080CB074300031748C
:10D65000090EF17429990291029E0399B0460600C1
:10D6600041440175080A7075080C090EF1752A9974
:10D67000B07588464344190A33767176190C1B0E2F
:10D68000F3762B9BB176E318190A33777177190C6F
:10D690001B0EF3772C9BB177984620234244F2541B
:10D6A000110A0133F154110C0133F154120E0133FC
:10D6B000F2542D9B0293029A049B904643441F0010
:10D6C00024233A0AF7540133F2543A0C0133F2544A
:10D6D0003F0E0133F7542E9B0293029A019B904612
:10D6E00028224344B354190A0132B154190C0132AF
:10D6F000B1541B0E0132B3542F9B5B441A002C23F0
:10D70000110AF2540133F154110C0133F154120E89
:10D710000133F254309BEF1830233A0AF7540133A7
:10D72000F2543A0C0133F2543F0E0133F754319B5B
:10D7300063441F0034233A0AF7540133F2543A0C7D
:10D740000133F2543F0E0133F754329B0193019998
:10D75000079B8C4663441F0038233A0AF754013371
:10D76000F2543A0C0133F2543C2201333F0EF75489
:10D77000339B5344B354190A0132B154190C01328A
:10D78000B1541B0E0132B35422E7C046F0B54E46E9
:10D79000DE4657464546E0B59DB00E000590002197
:10D7A000002006920793279A269B91460A900B9198
:10D7B0009A0700D0C2E11A685B6808920993079B38
:10D7C000002B00D1CFE1069B079C02930394DA4B18
:10D7D000059D9A460CAB9B4603236F1E984608ACEA
:10D7E0007AE0330042462B431A4200D0A3E0F31CF8
:10D7F0005B1B062B00D89EE033680C9A53402B60CD
:10D8000073680D9A53406B60B3680E9A5340AB60D7
:10D81000F3680F9A5340EB603369109A53402B61C1
:10D820007369119A53406B61B369129A5340AB61AB
:10D83000F369139A5340EB61336A149A53402B6295
:10D84000736A159A53406B62169AB36A5340AB627F
:10D85000F36A179A5340EB62336B189A53402B6369
:10D86000726B199B53406B63B36B1A9A5340AB6353
:10D87000F36B1B9A5340EB6340204042C117237A5D
:10D88000403501331A0A2372637A9A18A37A6272B6
:10D89000120A9A18E37AA272120A9A18237BE27289
:10D8A000120A9A18637B2273120A9A18A37B627376
:10D8B000120A9B18E27BA3731B0AD318E373029A24
:10D8C000039B12184B4102920393002E00D0403666
:10D8D000039B4037002B3ED000234A460093210093
:10D8E00053465846FFF784FC002E00D079E74346A4
:10D8F0001D4250D10C9B2B600D9B6B600E9BAB604F
:10D900000F9BEB60109B2B61119B6B61129BAB61BA
:10D91000139BEB61149B2B62159B6B62169BAB6296
:10D92000179BEB62189B2B63199B6B631A9BAB6372
:10D930001B9BEB63A0E706AA9446172101236144D1
:10D94000A446701EC25CCC5C6240FA540133412B89
:10D95000F8D1644690E7029B3F2BBDD80699079A01
:10D960000B000598403B84469B099B0140339C4437
:10D97000634605933F230B40069300230793069AC3
:10D98000079B1100194311D11DB0F0BCBB46B24634
:10D99000A946A046F0BD06AA17219446012361447A
:10D9A000CA5CFA540133412BFAD165E70CAB9B46B4
:10D9B00000234A46009358465F4B08A9FFF718FC1E
:10D9C000002E00D1E9E00598032302003243134002
:10D9D0005A4253410622F11C091A8A42924152428C
:10D9E0001A4200D1C7E00698079901225242D31784
:10D9F00012184B41002B00D1BAE0069807998A070C
:10DA00008308134330688A080C99414005980160E7
:10DA1000012B00D153E170680D9941400598416098
:10DA2000022B00D14FE1B0680E994140059881600A
:10DA3000032B00D15AE1F0680F9941400598C1606D
:10DA4000042B00D14EE130691099414005980161E5
:10DA5000052B00D142E1706911994140059841615F
:10DA6000062B00D136E1B0691299414005988161D9
:10DA7000072B00D187E1F069139941400598C161F6
:10DA8000082B00D18FE1306A14994140059801625A
:10DA9000092B00D16FE1706A1599414005984162E8
:10DAA0000A2B00D163E1B06A169941400598816262
:10DAB0000B2B00D16FE1F06A179941400598C162C4
:10DAC0000C2B00D163E1306B18994140059801633C
:10DAD0000D2B00D163E1706B1999414005984163AA
:10DAE0000F2B05D1002A03D1B26B1A9B53408363DD
:10DAF0000322069C079D23009343224200D143E763
:10DB00005946F25CC95C4A400599CA545A1C002D1A
:10DB100000D108E15846B15C805C02334140059871
:10DB20008154079A002A00D1F8E05946F25CC95C9A
:10DB30004A400599CA5427E7687002001A7808AC71
:10DB400022705A7862709A78A270DA78E2701A7944
:10DB500022715A7962719A79DB79A271E371079B1C
:10DB6000002B00D02FE6069B3F2B00D92BE606E7C3
:10DB7000032A00D941E706A98C46172401220598FB
:10DB8000069B01386444711E8D5CA65C754085540B
:10DB900015000132AB42F7D1F6E601225242D3170B
:10DBA0000698079912184B41002B77D0059CA307C4
:10DBB00076D1069807998A07830813438A080C9937
:10DBC0002160012B00D199E005990D984860022B46
:10DBD00000D197E005990E988860032B77D00599BE
:10DBE0000F98C860042B00D184E005991098086153
:10DBF000052B00D1B7E0059911984861062B00D19B
:10DC0000ADE0059912988861072B00D1A3E0059932
:10DC10001398C861082B00D199E0059914980862FF
:10DC2000092B00D18FE00599159848620A2B00D185
:10DC300085E00599169888620B2B7CD0059917987A
:10DC4000C8620C2B74D00599189808630D2B00D16D
:10DC500095E00599199848630F2B03D1002A01D14B
:10DC60001A9B8B6303220698079903009343024291
:10DC700000D189E65A46059CD25CE2545A1C002920
:10DC800048D059460598895C02338154079A002A86
:10DC90003CD05A460599D25CCA5475E6042A85D808
:10DCA00006A917248C4601230598069A0138644476
:10DCB000E15CC154190001338A42F9D164E6002ABB
:10DCC00000D0A8E614E7002A00D0ACE610E7002A4E
:10DCD00085D1C7E7002A00D0C5E609E7002A00D0B1
:10DCE000B9E605E7002A00D0ADE601E7002A00D03A
:10DCF000A1E6FDE6002A00D077E7B3E7002A00D0CE
:10DD000062E7AFE7002A00D064E7ABE7069A9A42E1
:10DD1000BFD839E606999142B3D835E6069A9A42B9
:10DD200000D902E730E60699914200D9F2E62BE6E7
:10DD3000002A88D196E7002A00D07FE792E7002AE0
:10DD400000D076E78EE7002A00D06CE78AE7002A49
:10DD500000D062E786E7002A00D058E782E7002A71
:10DD600000D04EE77EE7002A00D044E77AE7002A99
:10DD700000D098E6BCE6002A00D08CE6B8E6002A7F
:10DD800000D066E76EE7002A00D074E6B0E6002A0D
:10DD900000D098E6ACE6002A00D08CE6A8E6002A7F
:10DDA00000D098E6A4E6002A00D06CE6A0E6C046C3
:10DDB000F0B5DE464E4645465746E0B5454C8346EF
:10DDC000A5444EAE0C003300002000218CAD03C3EF
:10DDD0009D42FCD1106851682E902F919068D168B7
:10DDE0003090319110695169329033919069D169C5
:10DDF00034903591106A516A36903791906AD16AA1
:10DE000038903991106B516B3A903B91906BD16B7C
:10DE10003C903D91106C516C3E903F91906CD16C58
:10DE200040904191106D516D42904391906DD16D34
:10DE300044904591106E516E46904791906ED16E10
:10DE400048904991106F516FD36F926F4A904B91E8
:10DE50004C924D936A9A6B9B2C922D93689A699B76
:10DE60002A922B93669A679B28922993649A659BC2
:10DE700026922793629A639B24922593609A619BD2
:10DE8000229223935E9A5F9B209221935C9A5D9BE2
:10DE90001E921F935A9A5B9B1C921D93589A599BF2
:10DEA0001A921B93569A579B18921993549A559B02
:10DEB00016921793529A539B14921593509A519B12
:10DEC000129213934E9A4F9B109211936EABA146F0
:10DED0001F0001E0CCFDFFFF4B4630CB20009946F0
:10DEE0002E9A2F9B290007F05BFD109A119B80183A
:10DEF0005941309A319B306071602000290007F051
:10DF00004FFD129A139B12184B412000B260F36030
:10DF100010921193329A339B290007F041FD149A15
:10DF2000159B12184B4120003261736112921393BA
:10DF3000349A359B290007F033FD169A179B121867
:10DF40004B412000B261F36114921593369A379BCE
:10DF5000290007F025FD189A199B12184B41200043
:10DF60003262736216921793389A399B290007F030
:10DF700017FD1A9A1B9B12184B412000B262F362E4
:10DF8000189219933A9A3B9B290007F009FD1C9AB5
:10DF90001D9B12184B412000326373631A921B932E
:10DFA0003C9A3D9B290007F0FBFC1E9A1F9B121810
:10DFB0004B412000B263F3631C921D933E9A3F9B3A
:10DFC000290007F0EDFC209A219B12184B412000FC
:10DFD000326473641E921F93409A419B290007F09C
:10DFE000DFFC229A239B12184B41200020922193A0
:10DFF0002900B264F364429A439B07F0D1FC249A4F
:10E00000259B12184B4120003265736522922393A1
:10E01000449A459B290007F0C3FC269A279B1218B7
:10E020004B412000B265F36524922593469A479BA5
:10E03000290007F0B5FC289A299B12184B412000B3
:10E040003266736626922793489A499B290007F007
:10E05000A7FC2A9A2B9B12184B412000B266F3664C
:10E06000289229934A9A4B9B290007F099FC2C9AF5
:10E070002D9B12184B412000326773672A922B9315
:10E080004C9A4D9B290007F08BFCB36FF46F1B1863
:10E090004C410836336774672C932D94BE4200D0F0
:10E0A0001AE7262270987199002307F079FC509B9B
:10E0B000519C1093119425001C00262224184D41D8
:10E0C00072987399002307F06BFC529A539B1600C9
:10E0D0001F001092119336184F417498759926229B
:10E0E000002307F05DFC549A559B1092119312186F
:10E0F0004B4176987799129213932622002307F0CA
:10E100004FFC569A579B1092119312184B417898D6
:10E110007999149215932622002307F041FC589A0E
:10E12000599B1092119312184B417A987B99169231
:10E1300017932622002307F033FC5A9A5B9B109218
:10E14000119312184B417C987D99189219932622AD
:10E15000002307F025FC5C9A5D9B10921193121826
:10E160004B417E987F991A921B932622002307F039
:10E1700017FC5E9A5F9B1092119312184B41809886
:10E1800081991C921D932622002307F009FC609AB6
:10E19000619B1092119312184B41829883991E92A1
:10E1A0001F932622002307F0FBFB629A639B1092C9
:10E1B000119312184B41209221938498859926221D
:10E1C000002307F0EDFB649A659B109211931218DF
:10E1D0004B4186988799229223932622002307F0A9
:10E1E000DFFB669A679B1092119312184B41889837
:10E1F0008999249225932622002307F0D1FB689A5F
:10E20000699B1092119312184B418A988B99269210
:10E2100027932622002307F0C3FB6A9A6B9B1218F0
:10E220004B416E986F99109211932622002307F0AC
:10E23000B7FB4E9A4F9B801859415B461860596056
:10E2400059469C60DD601E615F61129A139B8A6172
:10E25000CB61149A159B0A624B62169A179B8A62CD
:10E26000CB62189A199B0A634B631A9A1B9B8A63A9
:10E27000CB631C9A1D9B0A644B641E9A1F9B8A6485
:10E28000CB64209A219B0A654B65229A239B8A6561
:10E29000CB65249A259B0A664B66269A279B8A663D
:10E2A000CB66109A119B0A674B676C9B6D9C8B67C2
:10E2B000CC670023DA469946129153461E685F6880
:10E2C000802300245B02F618674153461E605F609E
:10E2D000012348469C460023E1440E2800DC4B46BF
:10E2E000DB005B449846320C3B041A433B1400921B
:10E2F000019301225242D317009C019DA4185D4155
:10E3000021002A000F3810911192434258412200F7
:10E310002B00002107F044FB0B000200410FD80046
:10E320000843D10003900291029803998018594143
:10E33000840FA44665468C002C438100059404910B
:10E340000498059912184B41109C119DA4185D4129
:10E3500043461A685B68A4185D4143461C605D60D3
:10E36000330C1B040C9353460D971A685B680C988A
:10E370000D99121A8B4151460CC14B468A46102BFF
:10E380009BD1129B994600239A464B461E685F68B4
:10E39000802300245B02F61867414B461E605F60D5
:10E3A000012350469C460023E2440E2800DC5346DD
:10E3B000DB005B449846320C3B041A433B14069244
:10E3C000079301225242D317069C079DA4185D4172
:10E3D00021002A000F380091019243425841220047
:10E3E0002B00002107F0DCFA0B000200410FD800DF
:10E3F0000843D1000990089108980999801859415B
:10E40000840FA44665468C002C4381000B940A912E
:10E410000A980B9912184B41009C019DA4185D416C
:10E4200043461A685B68A4185D4143461C605D6002
:10E43000330C1B040E934B460F971A685B680E98BB
:10E440000F99121A8B4149460CC153468946102B2D
:10E450009BD18D239B009D44F0BCBB46B246A94690
:10E46000A046F0BDF0B5A3B00B684C68070002935E
:10E4700003948B68CC680E00049305940B694C6977
:10E480000225069307948B69CC69089309940B6A5B
:10E490004C6A0A930B948B6ACC6A0C930D940B6BA9
:10E4A0004C6B0E930F948B6BCC6B109311940B6C85
:10E4B0004C6C129313948B6CCC6C149315940B6D61
:10E4C0004C6D169317948B6DCC6D189319940B6E3D
:10E4D0004C6E1A931B948B6ECC6E1C931D940B6F19
:10E4E0004C6F1E931F948B6FCC6F20932194FB2451
:10E4F00002AA11001000FFF75BFC2300AB4306D01B
:10E5000002A932000800FFF753FCA31C01D0013C14
:10E51000EEE7029B039C3B607C60049B059CBB6018
:10E52000FC60069B079C3B617C61089B099CBB616E
:10E53000FC610A9B0B9C3B627C620C9B0D9CBB624A
:10E54000FC620E9B0F9C3B637C63109B119CBB6326
:10E55000FC63129B139C3B647C64149B159CBB6402
:10E56000FC64169B179C3B657C65189B199CBB65DE
:10E57000FC651A9B1B9C3B667C661C9B1D9CBB66BA
:10E58000FC661E9B1F9C009301943B677C67209B4D
:10E59000219CBB67FC6723B0F0BDC046F0B5DE46EA
:10E5A00057464E464546E0B5E3B00B684C681B90B5
:10E5B000429343948B68CC68449345940B694C69AF
:10E5C000469347948B69CC69489349940B6A4C6A8B
:10E5D0004A934B948B6ACC6A4C934D940B6B4C6B67
:10E5E0004E934F948B6BCC6B509351940B6C4C6C43
:10E5F000529353948B6CCC6C549355940B6D4C6D1F
:10E60000569357948B6DCC6D589359940B6E4C6EFA
:10E610005A935B948B6ECC6E5C935D940B6F4C6FD6
:10E620005E935F948B6FCC6F189319946093619491
:10E6300042AB99469A4600239B4653461E685F6844
:10E64000802300245B02F618674153461E605F601A
:10E65000012358469C460023E3440E2800DC5B4619
:10E6600042AA9446DB0063449846320C3B041A43AA
:10E670003B140092019301225242D317009C019D4A
:10E68000A4185D4121002A000F38189119924342C5
:10E69000584122002B00002107F082F90B000200F4
:10E6A000410FD8000843D1000390029102980399CA
:10E6B00080185941840FA44665468C002C43810084
:10E6C000059404910498059912184B41189C199DC2
:10E6D000A4185D4143461A685B68A4185D4143462F
:10E6E0001C605D60330C1B041293534613971A6829
:10E6F0005B6812981399121A8B4151460CC15B4604
:10E700008A46102B99D142AB9A4600239B4653462A
:10E710001E685F68802300245B02F6186741534639
:10E720001E605F60012358469C460023E3440E2888
:10E7300000DC5B4642AA9446DB0063449846320CF8
:10E740003B041A433B140692079301225242D3170B
:10E75000069C079DA4185D4121002A000F380091F6
:10E7600001924342584122002B00002107F018F982
:10E770000B000200410FD8000843D1000990089116
:10E780000898099980185941840FA44665468C0061
:10E790002C4381000B940A910A980B9912184B4153
:10E7A000009C019DA4185D4143461A685B68A4184B
:10E7B0005D4143461C605D60330C1B04149353465B
:10E7C00015971A685B6814981599121A8B4151466F
:10E7D0000CC15B468A46102B99D100239A464B46C2
:10E7E0001E685F68802300245B02F61867414B4671
:10E7F0001E605F60012350469C460023E2440E28C1
:10E8000000DC534642AA9446DB0063449846320C2F
:10E810003B041A433B140C920D9301225242D3172E
:10E820000C9C0D9DA4185D4121002A000F38009119
:10E8300001924342584122002B00002107F0B0F81A
:10E840000B000200410FD8000843D1000F900E9139
:10E850000E980F9980185941840FA44665468C0084
:10E860002C438100119410911098119912184B416A
:10E87000009C019DA4185D4143461A685B68A4187A
:10E880005D4143461C605D60330C1B0416934B4690
:10E8900017971A685B6816981799121A8B414946A0
:10E8A0000CC153468946102B99D10124429E439FA7
:10E8B00044984599F64B6442F61867412096219793
:10E8C0003B04370C1F4301250123F24C6D421E000F
:10E8D000001969413E409C463200002306000F00AB
:10E8E00046984799B61A9F411E961F973B04370CCE
:10E8F00066461F433E400019694132000023801ADA
:10E90000994106000F00489849991C961D973B04B1
:10E91000370C66461F433E40001969413200002310
:10E92000801A994106000F004A984B99189619973A
:10E930003B04370C66461F433E40001969413200D4
:10E940000023801A994106000F004C984D991696A5
:10E9500017973B04370C66461F433E400019694138
:10E9600032000023801A994106000F004E984F99FB
:10E97000149615973B04370C66461F433E4000191A
:10E98000694132000023801A994106000F00509817
:10E990005199129613973B04370C66461F433E402D
:10E9A0000019694132000023801A994106000F00C6
:10E9B00052985399109611973B04370C66461F43A3
:10E9C0003E400019694132000023801A9941060037
:10E9D0000F00549855990E960F973B04370C6646D6
:10E9E0001F433E400019694132000023801A9941BB
:10E9F00006000F00569857990C960D973B04370C5C
:10EA000066461F433E400019694132000023801AC8
:10EA1000994106000F00589859990A960B973B04A4
:10EA2000370C66461F433E400019694132000023FF
:10EA3000801A994106000F005A985B990896099729
:10EA40003B04370C66461F433E40001969413200C3
:10EA50000023801A994106000F005C985D99069684
:10EA600007973B04370C66461F433E400019694137
:10EA700032000023801A994106000F005E985F99CA
:10EA8000049605973B04370C66461F433E40001929
:10EA9000694132000023801A9941012702000B00CE
:10EAA000609861997C4E7F428019794116001F0061
:10EAB0000296039766461B04170C1F433E40320024
:10EAC0000023801A994102000B00009201936346D3
:10EAD0000804110C01438B435F42209B39001E0444
:10EAE000429B360C5E40429B3E4073402093439BCA
:10EAF000BB4321931E9B1804449B000C5840449B2D
:10EB0000384043401E93459BBB431F931C9B1804F6
:10EB1000469B000C5840469B384043401C93479B03
:10EB2000BB431D93189B1804489B000C5840489BFE
:10EB3000384043401893499BBB431993169B1804D4
:10EB40004A9B000C58404A9B3840434016934B9BCD
:10EB5000BB431793149B18044C9B000C58404C9BD0
:10EB60003840434014934D9BBB431593129B1804AC
:10EB70004E9B000C58404E9B3840434012934F9B95
:10EB8000BB431393109B1804509B000C5840509BA0
:10EB9000384043401093519BBB4311930E9B180484
:10EBA000529B000C5840529B384043400E93539B5D
:10EBB000BB430F930C9B1804549B000C5840549B70
:10EBC000384043400C93559BBB430D930A9B18045C
:10EBD000569B000C5840569B384043400A93579B25
:10EBE000009ABB430B93089B1804589B000C584099
:10EBF000589B384043400893599BBB430993069B5D
:10EC000018045A9B000C58405A9B384043400693C6
:10EC10005B9BBB430793049B18045C9B000C584010
:10EC20005C9B3840434004935D9BBB430593029B30
:10EC300018045E9B000C58405E9B38404340029392
:10EC40005F9B0198BB430393609B5A40619B1740B5
:10EC50005840609B01407B400093619B0C4A4B40B5
:10EC600001930123209821995B4212184B411E9871
:10EC70001F9916001F002296239767461B04360C27
:10EC80001E433740001969413A00002306E0C046A0
:10EC90001300FFFF0100FFFF0180FFFF801A994171
:10ECA0000F0006001C981D99269627973B0467467F
:10ECB000360C1E433740001969413A000023801A80
:10ECC00099410F00060018981999289629973B0436
:10ECD0006746360C1E433740001969413A00169EBC
:10ECE000179F0023801A994136196F4102000B00CB
:10ECF0003000390016001F002A962B9767461B0428
:10ED0000160C1E4337403A000023801A99410F0029
:10ED10000600149815992C962D973B046746360CDF
:10ED20001E433740001969413A00129E139F002389
:10ED3000801A994136196F4102000B0030003900EA
:10ED400016001F002E962F9767461B04160C1E43B5
:10ED500037403A000023801A99410F0006001098AE
:10ED60001199309631973B04674600196941360C7A
:10ED70001E4337403A00002306000F00B61A9F4199
:10ED80000E9A0F9B12196B413296339719003B0470
:10ED9000370C66461F433E40100000233200801AA5
:10EDA000994106000F000C980D99349635973B0455
:10EDB000370C66461F433E4000196941320000236C
:10EDC000801A994106000F000A980B9936963797DA
:10EDD0003B04370C66461F433E4000196941320030
:10EDE0000023801A994106000F0008980999389667
:10EDF00039973B04370C66461F433E400019694172
:10EE000032000023801A994106000F0006980799E6
:10EE10003A963B973B04370C66461F433E40001929
:10EE2000694132000023801A994106000F000498BE
:10EE300005993C963D973B04370C66461F433E4080
:10EE40000019694132000023801A9941029A039BFC
:10EE50006746A4185D413E903F910B04000C184397
:10EE600007403A0000230121A41A9D417D484942F0
:10EE700022002B00009D019E401971410D001100E0
:10EE800067461A0004001B04080C18430740409111
:10EE9000419200233A00A41A9D4123002C006746AA
:10EEA000249325942A041B0C13439F437B42229FE7
:10EEB000209C219D3A04120C269F62401A40544027
:10EEC00038041E991F9A0F00000C20944840289C7B
:10EED00018401C991D9A474020040C00000C1E97F6
:10EEE00048402A9F184044403804020C1898199949
:10EEF00007001C942C9C42401A4020045740020CEE
:10EF000016981799040042401A405440A2462E9C7D
:10EF100018972004020C14981599040042401A40D6
:10EF20005440A346309C2004020C1298139904000C
:10EF300042401A405440329AA14610041099119A46
:10EF40000C00000C484018404440A0460E990F9A0F
:10EF5000349C20040C00000C48400C990D9A0F00C2
:10EF600018404440A446369C2004000C389C47407E
:10EF70001F4026044F40360C0A990B9A3A9A4E408D
:10EF800010041E404E40050C0899099A3C9A4D40C9
:10EF90001D4010044D40000C0699079A0895484002
:10EFA0003E9A184048401104090C049C059D409A63
:10EFB0006140194061401204029C120C62401A40E8
:10EFC000249D6240009C65402C001C40009B209DBD
:10EFD0005C401B9B1D702B0A1B9D6B702B001E9DA4
:10EFE0009D702B0A1B9DEB702B001C9D1D712B0A25
:10EFF0001B9D6B712B00189D9D712B0A1B9DEB7146
:10F0000053462B721B0A6B725B46AB721B0AEB7288
:10F010004B462B731B0A6B734346AB731B0AEB7394
:10F0200063462B741B0A6B742B00AF742E753F0A5A
:10F03000360AEF746E75089D18769D75000A2D0AC4
:10F0400099761A77090A120A9C77240ADD75587690
:10F05000D9765A77DC7763B0F0BCBB46B246A94696
:10F06000A046F0BD0180FFFF10B5012482B00094DE
:10F07000FEF7BEF8002002B010BDC046F0B55746FE
:10F080004E464546DE46E0B5EDB0009201930022C3
:10F09000002336923793389239933A923B933C92BD
:10F0A0003D933E923F9340924193429243934492C8
:10F0B0004593002346933493769B03911B781190DC
:10F0C0002493769B5B782593769B9B782693769BFF
:10F0D000D9781F795B792993769B9B792A93769BC4
:10F0E000DE791C7A5B7A2D93769B9B7A2E93769BA6
:10F0F000D87A1A7B5B7B3193769B9B7B3293769B92
:10F10000DD7B0F231940279103211E408A431840BD
:10F110002B408F438C4330923393009A019B110014
:10F1200028972B962C942F90194300D1F2E20025BA
:10F13000FF272B0000210022489149924A914B92CF
:10F140004C914D924E914F925091519252915392B7
:10F15000549155925691579200225892039A0199D0
:10F1600012784892002901D100F047FC03994978B0
:10F1700049910099022901D100F04AFC039989784C
:10F180004A910099032901D100F04DFC0399C978F7
:10F190004B910099042901D100F08DFC0399097964
:10F1A0004C910099052901D100F09DFC0399497902
:10F1B0004D910099062901D100F089FC03998979C4
:10F1C0004E910099072901D100F0BDFC0399C9793E
:10F1D0004F910099082901D100F0A9FC0399097AFF
:10F1E00050910099092901D100F095FC0399497AC1
:10F1F000519100990A2901D100F081FC0399897A83
:10F20000529100990B2901D100F03DFC0399C97A74
:10F21000539100990C2901D100F029FC0399097B35
:10F22000549100990D2901D100F015FC0399497BF7
:10F23000559100990E2901D100F001FC0399897BB9
:10F24000569100990F2901D100F029FC0399102053
:10F25000C97B10245791002104900591D82112AE4A
:10F260007618A500D739715103993E008C46A44405
:10F270006146009C019D039104980599241A8D41D3
:10F28000369949988C460094019562443D00844625
:10F29000379915406144120A89183A004A980A4081
:10F2A00084460492389A090A624451183A004B98ED
:10F2B0000A4084460692399A090A624451183A0073
:10F2C0004C980A40844607923A9A090A62445118B7
:10F2D0003A004D980A40844608923B9A090A6244D3
:10F2E000521839004E981140844609913C99120AEF
:10F2F00061448A1839004F98114084460A913D991B
:10F30000120A614489183A0050980A4084460B92C8
:10F310003E9A090A62445218390011400C913F99F3
:10F320005198120A8446614489183A0052980A405A
:10F3300084460D92409A090A624452183900539843
:10F34000114084460E914199120A61448A1839008D
:10F3500054981140844689464299120A61448A1899
:10F36000390055981140844688464399120A6144F1
:10F370008A1839005698114082468C464499120AE0
:10F3800051448A1839005798114082460F91459987
:10F39000120A51448A18589916408A46120A534450
:10F3A0009A183A401400CA460021B146A3462E00DE
:10F3B00012A814AA74E08024049D145910946C437C
:10F3C000A5002D19AD01EB18069DD46F6C43A50067
:10F3D0002D19AD01EB18079D946F6C43A5002D19F5
:10F3E000AD01EB18089D546F6C43A5002D19AD01BC
:10F3F000EB18099D146F6C43A5002D19AD01EB1896
:10F400000A9DD46E6C43A5002D19AD01EB180B9D20
:10F41000946E6C43A5002D19AD01EB180C9D546E34
:10F420006C43A5002D19AD01EB180D9D146E6C43B6
:10F43000A5002D19AD01EB180E9DD46D6C43A500F0
:10F440002D19AD01EB185546946D6C43A5002D198F
:10F45000AD01EB184546546D6C43A5002D19AD0167
:10F46000EB186546146D6C43A5002D19AD01EB1822
:10F470000F9DD46C6C43A5002D19AD01EB184D46C2
:10F48000946C6C43A5002D19AD01ED185B46546CCE
:10F4900001315C43A3001B199B015B1908C00432B6
:10F4A000136C7343002986D0D56B049C6543EB181D
:10F4B000012989D0956B069C6543EB1802298AD0F7
:10F4C000556B079C6543EB1803298BD0156B089C83
:10F4D0006543EB1804298CD0D56A099C6543EB1869
:10F4E00005298DD0956A0A9C6543EB1806298ED0B4
:10F4F000556A0B9C6543EB1807298FD0156A0C9C45
:10F500006543EB18082990D0D5690D9C6543EB182D
:10F51000092991D095690E9C6543EB180A2992D070
:10F52000544655696543EB180B2993D04446156939
:10F530006543EB180C2994D06446D5686543EB18F5
:10F540000D2995D095680F9C6543EB180E2996D030
:10F550004C4655686543ED18102997D15C46AA467C
:10F5600013683E00634353440360129B3D001A0A34
:10F57000139B3C009C463B00624413409A46149BFC
:10F58000120A9C463B00624413409946159B120A9E
:10F590009C463B00624413409846169B120A9C46C8
:10F5A0003B00624413409C46179B120A9B46189BE3
:10F5B0005A449B46199B1640120A5A449B461A9B72
:10F5C0001540120A5A449B461B9B14403800120AED
:10F5D0005A449B461C9B10403900120A5A449B46D1
:10F5E0003B001140120A5A44134006931D9B120A15
:10F5F0009B463B005A44134007931E9B120A9B46AE
:10F600003B005A44134008931F9B120A9B463B0041
:10F610005A4413400993209B120A9B463B005A44CC
:10F6200013400A93219B120A9B463B005A44134005
:10F630000B93229B120A9B4603235A4413409208C1
:10F64000049393009A18129B3B409A183B00134076
:10F6500036933B00120A5244134037933B00120A80
:10F660004A44134038933B00120A424413403993F2
:10F670003B00120A62441340120A96193A003240C3
:10F68000360A75193E002E402D0A2C193D002540E2
:10F69000240A20183C000440000A411838003A931C
:10F6A0003B92069B0840090ACB183900079A19407B
:10F6B000944640913900089A1B0A634494461940C5
:10F6C00041913900099A1B0A6344944619400A9AE9
:10F6D000429139001B0A6344944619400B9A4391A6
:10F6E0001B0A3900634494463A0019401B0A6344DC
:10F6F0001A404592049A3F90944644910099019A89
:10F7000008001B0A3C963D953E946344104300D08C
:10F7100010E54693FF22369B11005A93379B170042
:10F720005B93389B16005C93399B15005D933A9B65
:10F7300014005E933B9B10005F933C9B60933D9B4A
:10F7400061933E9B62933F9B6393409B6493419B79
:10F750006593429B6693439B6793449B6893459B49
:10F760006993369B05331940894637991B0A8C46A5
:10F77000110063441940884638991B0A8C461100D1
:10F7800063441940049139991B0A8A463A995344B3
:10F790008A463B991F401B0A53448A463C991E40A7
:10F7A0001B0A53448A463D991D401B0A53448A460E
:10F7B0003E991C401B0A53448A46110018401B0AFC
:10F7C000534419408A463F991B0A8B4611005B44FB
:10F7D00019408B46409909948C461100419C1B0AA4
:10F7E0006344A4461940429C0B9111001B0A6344D8
:10F7F000A4461940439C0C911B0A11006344A44683
:10F80000140019401B0A63441C400D912100449CC4
:10F810001B0AA446140063441C400E94459C1B0A1A
:10F82000A4464C4663441A400F921A0A469BFC3386
:10F830009B18369A1B06DB1762401A406240769C82
:10F84000247CA1464A440092140A4246A1465B9C8D
:10F850005440220044461A406240769C647CA04694
:10F86000424414004C44220A90460394389A049C63
:10F8700062401A406240769CA47CA446624494464E
:10F880005D9CC4447C401C406740769C6246E47C9E
:10F890000492A446120A6744BF1806973A0A3A9F90
:10F8A000099C77401F407E40769F3F7DF619B61831
:10F8B0000796320A5F9E57466E401E407540769E00
:10F8C000767DAD19AD1808952A0A3C9D619E65406C
:10F8D0001D406C40769DAD7D6419A5183400769E60
:10F8E00044401C406040F47D3E9E00192A0A821864
:10F8F0007E400A92140A32005846769E1A407A4098
:10F90000639F367E1097474096193A00769F099577
:10F910001A407F7E4240D7190B98409A36194240D0
:10F920001A4042407698340A857E6598551902003F
:10F930000C983F1942401A40424076983C0AC07EDB
:10F940002D198446624494462C0AA4446046429A87
:10F95000040A0D9842401A4042407698007F804643
:10F9600042441419200A804667980B9048400200D0
:10F9700076981A40407F4A4081464A444244100AE1
:10F98000804644990E984140194041407698807FC6
:10F99000814649448A46C2445046000A81466998D5
:10F9A00001000F9841400B40434076980099C07F7A
:10F9B000804611984344017003994B444170049967
:10F9C000817006994273C170079952460171089976
:10F9D000067241710999477281710A998572C171E4
:10F9E00061460473C1728273C37300206DB0F0BCB2
:10F9F000BB46B246A946A046F0BD0099012901D9EF
:10FA0000FFF7B4FB0120002101240490059125E4B7
:10FA10000199002901D0FFF7B1FB00980199022458
:10FA2000049005911AE40199002901D0FFF7AEFB7B
:10FA300000980199032404900591FFF70FFC0199A8
:10FA4000002901D0FFF7FAFB009801990E240490D9
:10FA50000591FFF703FC0199002901D0FFF7E6FBB0
:10FA6000009801990D2404900591FFF7F7FB019987
:10FA7000002901D0FFF7D2FB009801990C240490D3
:10FA80000591FFF7EBFB0199002901D0FFF7BEFBC1
:10FA9000009801990B2404900591FFF7DFFB019971
:10FAA000002901D0FFF7D2FB009801990F240490A0
:10FAB0000591FFF7D3FB0199002901D0FFF76EFBF9
:10FAC00000980199042404900591FFF7C7FB019960
:10FAD000002901D0FFF772FB0098019906240490D9
:10FAE0000591FFF7BBFB0199002901D0FFF75EFBF1
:10FAF00000980199052404900591FFF7AFFB019947
:10FB0000002901D0FFF77AFB009801990A2404909C
:10FB10000591FFF7A3FB0199002901D0FFF766FBD0
:10FB200000980199092404900591FFF797FB01992A
:10FB3000002901D0FFF752FB009801990824049096
:10FB40000591FFF78BFB0199002901D0FFF73EFBE0
:10FB500000980199072404900591FFF77FFBC046A8
:10FB6000F0B5C64600B50400884616001F008AB0EE
:10FB7000002B34D0012302AD2800119A1099009374
:10FB8000194BFDF735FB109B320010334146200026
:10FB9000009301953B00FDF7F9FD20225242D31757
:10FBA0002100200092197B41203110300094FFF792
:10FBB00065FA0023002023706370A370E370237143
:10FBC0006371A371E37123726372A372E37223738F
:10FBD0006373A373E3730AB080BCB846F0BD1F2AF9
:10FBE000C8D801204042F6E768700200F0B55746D9
:10FBF000DE464E464546E0B5A9B01F00329B824620
:10FC00000D0016009B46002F00D1EDE0794B10ACA3
:10FC100099460123339A009359464B462000FDF73D
:10FC2000E7FA10235B440022039300230692079314
:10FC30005B469B0700D0BAE05B461B6904A90493AE
:10FC40005B465B69059300232200009318A8984641
:10FC50004B46FDF7CDFA189B08A90893199B009114
:10FC600009931A9B29000A931B9B20310B931C9B21
:10FC700020000C931D9B0D931E9B0E931F9B0F93B7
:10FC800020225242D31792197B41FFF7F7F962788D
:10FC90006B7CA1785340AA7C4A401343E178EA7C0C
:10FCA0004A40134321782A7C4A40134321792A7D14
:10FCB0004A40134361796A7D4A401343A179AA7D82
:10FCC0004A401343E179EA7D4A401343217A2A7E70
:10FCD0004A401343617A6A7E4A401343A17AAA7E5E
:10FCE0004A401343E17AEA7E4A401343217B2A7F4C
:10FCF0004A401343617B6A7F4A401343A17BAA7F3A
:10FD00004A401343E17BEA7F4A401343012B6ED5FF
:10FD1000012320005946339A00934B46FDF768FAB9
:10FD2000039B32000194009329003B005046FDF7ED
:10FD30002DFD0322534614005B421C401A4233D06F
:10FD4000534642461A70012C1DD05A70032C48D1DC
:10FD50001D2503209A70534620211A190023091BE0
:10FD6000136053609360D36013615361936189089A
:10FD700008290BD1D361002029B0F0BCBB46B246A4
:10FD8000A946A046F0BD1F250120E4E752461218FF
:10FD9000137702001D321D2DEDD051461E308B54BD
:10FDA0001E2DE8D00B54E6E720250020D3E75B4664
:10FDB0001B7C04A90B705B465B7C4B705B469B7C99
:10FDC0008B705B46DB7CCB705B461B7D0B715B46AF
:10FDD0005B7D4B715B469B7D8B715B46DB7DCB71A5
:10FDE00031E71E250220B6E71F2A00D90EE70120C1
:10FDF0004042C1E768700200F0B5DE4657464E4605
:10FE00004546E0B5FD4C9446A544FFABC8331860A9
:10FE10000B008A0701D003F00FFA1A68FFA8CC3054
:10FE200002605A68FFA8D03002609A68FFA8D430F8
:10FE30000260DA68FFA8D83002601A69FFA8DC30D7
:10FE400002605A69FFA8E03002609A69FFA8E430B6
:10FE50000260FFAAFFA8CC32C430897F0260988B71
:10FE600091779083DC7F3F23402223401A439146C1
:10FE7000FFABC4331A684B460721D37713780027AA
:10FE80008B43137063465B7800211E02634618782B
:10FE90008E2336184F411B016B441E605F60634622
:10FEA000DB78129613971E0263460021002798788C
:10FEB000D34B36184F416B441E605F6063465B79DD
:10FEC000189619971E0263460021002718798F2380
:10FED00036184F411B016B441E605F606346DB793F
:10FEE000149615971E026346002100279879C54B8A
:10FEF00036184F416B441E605F6063465B7A16960E
:10FF000017971E02634600210027187A902336189F
:10FF10004F411B016B441E605F606346DB7A1A969B
:10FF20001B971E02634600210027987AB64B3618AD
:10FF30004F416B441E605F6063465B7B1C961D9760
:10FF40001E02634600210027187B912336184F417B
:10FF50001B016B441E961F971E605F606346DB7B30
:10FF600000211E0263460027987BA84B36184F419C
:10FF70006B441E605F6063465B7C269627971E027B
:10FF8000634600210027187C922336184F411B013D
:10FF90006B441E605F606346DB7C209621971E02E7
:10FFA000634600210027987C994B36184F416B44DB
:10FFB0001E605F6063465B7D229623971E02634648
:10FFC00000210027187D932336184F411B016B44F5
:10FFD0001E605F606346DB7D249625971E026346A4
:10FFE00000210027987D8B4B36184F416B441E60D3
:10FFF0005F6063465B7E289629971E026346002158
:020000022000DC
:100000000027187E942336184F411B016B441E6055
:100010005F606346DB7E2A962B971E0263460021B3
:100020000027987E7C4B36184F416B441E605F6002
:1000300063465B7F2C962D971E02634600210027A6
:10004000187F952336184F411B016B441E605F607B
:1000500063462E962F97DB7F00271E026346002102
:10006000987F6E4B8019794100264004470C6B4401
:100070001F606B4BFFAA6B441E600023AC32136001
:10008000FFAAB0321360FFAAA4321360FFAAA832FD
:100090001360FFAA9C321360FFAAA0321360FFAA6C
:1000A00094321360FFAA98321360FFAA8C32136057
:1000B000FFAA90321360FFAA53666432FFAA9366C8
:1000C0006832FFAAD3655C32FFAA13666032FFAACA
:1000D00053655432FFAA93655832FFAAD3644C3259
:1000E000FFAA13655032FFAA53644432FFAA9364F7
:1000F0004832FFAAD3633C32FFAA13644032FFAAFE
:1001000053633432FFAA93633832FFAA5362243216
:10011000FFAA93622832FFAAD3611C32FFAA13629E
:100120002032FFAA53611432FFAA93611832FFAA4A
:100130000133D36000230C32FFAA13611032FFAAEF
:10014000936008320022BC93FFAB5A600433FFABCC
:100150001A633033FFAB2C33FF92BA92FE92FC92BB
:10016000FD92C092FA92FB92B892F992F792F892AD
:10017000B692F692F292F492B492F092EC92EE92DF
:10018000B292EA92E692E892B092E4921A60FFABE1
:1001900088331A60FFAB84331A60FFABDA677C33B5
:1001A000FFAB80331A60FFAB5A677433FFAB9A67BB
:1001B0009246E092E292AE92DE92DA92DC92BE92A7
:1001C000D692D8921092D492D092D292CC92CE92D1
:1001D000C492C2920132AC9200227833FFABDA664D
:1001E0006C33FFAB1A67703390460023FE22002069
:1001F000002150925193FFABB43313E09CF4FFFF06
:10020000E8080000F80800000809000018090000CC
:1002100028090000380900004809000058090000BA
:100220005C090000186001230A00002549460024EB
:10023000B9469C46FFABBC331860FFABC0331860B7
:10024000FFABB8331A600720509B18400141CB0721
:10025000DB179B46DB17AD93FFABDE680C3330003A
:10026000129B5A465840FFAB1F6910333900139B4D
:1002700059405B461840194046404F40C896C997C0
:10028000129E139F33004340CA933B004B40CB93D5
:10029000FFAB5E6914333000189B5840FFAB9F6979
:1002A00018333900199B59405B46184019404640A5
:1002B0004F4070967197189E199F33004340729378
:1002C0003B004B407393FFABDE691C333000149B43
:1002D0005840FFAB1F6A20333900159B59405B46DD
:1002E0001840194046404F4074967597149E159FCC
:1002F0003300434076933B004B407793FFAB5E6AFD
:1003000024333000169B5840FFAB9F6A28333900D6
:10031000179B59405B461840194046404F4078961D
:100320007997169E179F330043407A933B004B40CA
:100330007B93FFAB5E6B343330001A9B5840FFABAE
:100340009F6B383339001B9B59405B46184019405E
:1003500046404F407C967D971A9E1B9F330043403A
:100360007E933B004B407F93FFABDE6B3C33300012
:100370001C9B5840FFAB1F6C403339001D9B5940FC
:100380005B461840194046404F40809681971C9E1E
:100390001D9F3300434082933B004B408393FFAB50
:1003A0005E6C443330001E9B5840FFAB9F6C48335B
:1003B00039001F9B59405B461840194046404F404A
:1003C000849685971E9E1F9F3300434086933B0073
:1003D0004B408793FFABDE6C4C333000269B58407C
:1003E000FFAB1F6D50333900279B59405B461840C7
:1003F000194046404F4088968997269E279F330094
:1004000043408A933B004B408B93FFAB5E6D54336C
:100410003000209B5840FFAB9F6D58333900219B23
:1004200059405B461840194046404F408C968D9786
:10043000209E219F330043408E933B004B408F937F
:10044000FFABDE6D5C333000229B5840FFAB1F6E6C
:1004500060333900239B59405B46184019404640A1
:100460004F4090969197229E239F33004340929352
:100470003B004B409393FFAB5E6E64333000249B94
:100480005840FFAB9F6E68333900259B59405B464F
:100490001840194046404F4094969597249E259FBA
:1004A0003300434096933B004B409793FFAB8C3314
:1004B0001E68289B30005840FFAB90331F68299B73
:1004C000390059405B461840194046404F409896C5
:1004D0009997289E299F330043409A933B004B40B5
:1004E0009B93FFAB94331E682A9B30005840FFABB0
:1004F00098331F682B9B390059405B4618401940C0
:1005000046404F409C969D972A9E2B9F3300434028
:100510009E933B004B409F93FFAB9C331E682C9BEC
:1005200030005840FFABA0331F682D9B3900594065
:100530005B461840194046404F40A096A1972C9E1C
:100540002D9F33004340A2933B004B40A393FFAB4E
:10055000A4331E682E9B30005840FFABA8331F68A1
:100560002F9B390059405B461840194046404F4088
:10057000A496A5972E9E2F9F33004340A6933B0041
:100580004B40A793FFABAC331E684B46300058403E
:10059000FFABB0331F684346390059405B461840F3
:1005A00019404B464340AA9343464B40AB93FFABA5
:1005B00046406C33A8961E68634630005840FFAB37
:1005C0004F407033A9971F68FFAB3900BC331B68DD
:1005D00010405940114062464B403193CD23424078
:1005E00030925246DB006B4446404F403098319980
:1005F00018605960FFAB74331B6852965A40100064
:10060000FFAAC0321668FFAA7832539717685A4675
:100610003100104043403293CE237940114052467E
:100620004F40DB0033976B4442404E403298339941
:1006300018605960FFABDF6F7C333900FFAB549219
:100640008433FFAA559680321B681668594008000B
:100650003100C29A51405A46104043403493CF2350
:100660001140C29A47404A40C697DB00CC9F359262
:100670006B444E4034983599186059603900C49BDA
:10068000C796CE9E594008003100FFAB88331A68E8
:1006900051408C46594663460B4008401900C49BA4
:1006A000474043405693D02336974E40D09FDB00BF
:1006B00037966B444A40369837991860596039002C
:1006C000109BD29E5940080031005792D49A514055
:1006D0008C46594663460B4008405E401900109B0B
:1006E0004A4043403893D123DB00474039926B4462
:1006F000389839995996186059605897D69FBE9B7B
:100700003900D89E594008003100FFABDA6A2C331B
:1007100051408C4659460840474063465A97370037
:100720000B4019005F40BE9B4A4043403A93D2239E
:100730005B97DB00DA9F3B926B443A983B991860D9
:1007400059603900AE9BDC9E594008003100DE9AAA
:1007500051408C4659460840474063465C973700F5
:100760000B4019005F40AE9B4A4043403C93D3236B
:100770005D97DB00E09F3D926B443C983D9918608B
:1007800059603900B09BE29E594008003100E49A5C
:1007900051408C4659460840474063465E973700B3
:1007A0000B4019005F40B09B4A4043403E93D42326
:1007B000DB003F926B443E983F995F971860596009
:1007C000E69FB29B3900E89E594008003100EA9A42
:1007D00051408C4659460840474063466097370071
:1007E0000B4019005F40B29B4A4043404093D523E1
:1007F0006197DB00EC9F41926B44409841991860EF
:1008000059603900B49BEE9E594008003100F09ABF
:1008100051408C465946084047406346629737002E
:100820000B4019005F40B49B4A4043404293D6239B
:100830006397DB00F29F43926B44429843991860A0
:1008400059603900B69BF49E594008003100F69A71
:1008500051408C46594608404740634664973700EC
:100860000B4019005F40B69B4A4043404493D72356
:10087000DB0045926B444498459965971860596030
:10088000F79FB89B3900F89E594008003100F99A4B
:1008900051408C46594608404740634666973700AA
:1008A0000B4019005F40B89B4A4043404693D82311
:1008B0006797DB00FA9F47926B4446984799186008
:1008C00059603900C09BFB9E594008003100FFABC6
:1008D0001A6B303351408C465946084047406346B6
:1008E000689737000B4019005F40C09B4A40434067
:1008F0004893D9236997DB00FC9F49926B44489841
:100900004999186059603900BA9BFD9E594008000A
:100910003100FE9A51408C46594608406346474094
:100920006A9737000B4019005F40BA9B4A4043402A
:100930004A93DA234B92DB00FFAA6B4404324A98B5
:100940004B996B97186059601668FF9F3000BC9AEE
:10095000390050405A46FFAB08331B6810405940DD
:1009600011404B404C93BC9B4F4043404D93DB2385
:100970006C973700DB0047406B446D974C9E4D9F52
:100980001E605F602B00FFAAB4321668210073401E
:100990001800FFABB8331A685B4651401840194045
:1009A000330043406E932B00709D719E4A4043403C
:1009B0004E936F922300DC224B40D2004F936A4447
:1009C0004E9B4F9C13605460C898C999529A539B90
:1009D000DD2412184B41E4006C4422606360549A99
:1009E000559BDE2452197341C69EC79FE4006C4498
:1009F00022606360749C759D32003B0012196B414C
:100A0000DF24E4006C4422606360789C799D569AF0
:100A1000579B12196B41E024E4006C442260636030
:100A2000589A599B7C9C7D9D12196B41E124E400EE
:100A30006C4422606360809C819D5A9A5B9B121972
:100A40006B41E224E4006C4422606360849C859DD9
:100A50005C9A5D9B12196B41E324E4006C442260B4
:100A60006360889C899D5E9A5F9B12196B41E424A8
:100A7000E4006C44226063608C9C8D9D609A619B55
:100A800012196B41E524E4006C4422606360909C81
:100A9000919D629A639B12196B41E624E4006C44B9
:100AA00022606360949C959D649A659B12196B41CA
:100AB000E724E4006C4422606360989C999D669AE8
:100AC000679B12196B41E824E4006C442260636068
